:100000000C9451000C94CB0C0C94CB0C0C94CB0C9A
:100010000C94CB0C0C94CB0C0C94CB0C0C94CB0C04
:100020000C94CB0C0C94CB0C0C94CB0C0C94CB0CF4
:100030000C94CB0C0C94CB0C0C94CB0C0C94CB0CE4
:100040000C94CB0C0C94CB0C0C94CB0C0C94CB0CD4
:100050000C94CB0C0C94CB0C0C94CB0C0C94CB0CC4
:100060000C94CB0C0C94CB0C0C94CB0C0C94CB0CB4
:100070000C94CB0C0C94CB0C0C94CB0C3C3E3C4025
:10008000803C443C45803C403C42803C423C448077
:100090003C2A3C34803C343C3E00199A3C003C2ACB
:1000A000800011241FBECFEFCDBFDFE3DEBFECE742
:1000B000F0E040E017C0B591A591359125910591EB
:1000C00007FD0CC095918591EF01F92FE82F059060
:1000D0000D92A217B307D9F7FE0104C01D92A21713
:1000E000B307E1F7E13AF40731F70E94470A0C94AD
:0600F0007900F894FFCF37
:1000F6004558414D504C452E54585400809A9041D5
:100106008E418F804545454949498E8F9092924F41
:10011600994F555559999A9B9C9D9E9F41494F557C
:10012600A5A5A6A7A8A9AAABAC21AEAFB0B1B2B39C
:10013600B4B5B6B7B8B9BABBBCBDBEBFC0C1C2C301
:10014600C4C5C6C7C8C9CACBCCCDCECFD0D1D2D3F1
:10015600D4D5D6D7D8D9DADBDCDDDEDFE0E1E2E3E1
:10016600E4E5E6E7E8E9EAEBECEDEEEFF0F1F2F3D1
:0C017600F4F5F6F7F8F9FAFBFCFDFEFFCB
:100182004F925F926F927F928F929F92AF92BF92A5
:10019200DF92EF92FF920F931F93CF93DF93CDB72E
:1001A200DEB7A897CDBFDEBF7C011092403C109213
:1001B200413C0E94FA0580FD8DC140E050E0BA0149
:1001C200CE0101960E94F109D82E21E0821338C097
:1001D20000E110E02EEB31E040E050E0BA01CE0148
:1001E20001960E94320981112FC08D818823A1F1CD
:1001F2008C84912CA12CB12CB82CAA24992488246B
:100202009B85892F90E0A0E0B0E0DC019927882748
:1002120088299929AA29BB298A84912C982C882477
:10022200A12CB12C882A992AAA2ABB2A8985882A34
:10023200B501A401CE0101960E94F109D82E0FC08A
:10024200812C912C54010BC0812C912C54010F2E26
:10025200F3E0DF2EF02D03C0812C912C540143E0FA
:10026200D41609F439C1D11039C104E210E02DE0ED
:1002720030E0B501A401CE0101960E94320981113C
:100282002FC12B8530E0322F22278A85282B40E090
:1002920050E0211531054105510521F52B8D822FA5
:1002A20090E0A0E0B0E0782F6627552744279A8D8A
:1002B200892F90E0A0E0B0E0DC0199278827842B09
:1002C200952BA62BB72B298D30E0322F2227A9019F
:1002D20060E070E0482B592B6A2B7B2B888D9A01AA
:1002E200AB01282BAC81B0E00E94A60C6DA37EA3CB
:1002F2008FA398A78B8190E0982F88274A8150E09E
:10030200842B952B880E991EA11CB11CD7011A961D
:100312008D929D92AD92BC921D97A981F701A28305
:100322008E8190E0982F88272D81822B848395835C
:10033200088510E0102F00272F81022B20E030E0EB
:10034200011511052105310501F50F8910E020E0A5
:1003520030E0702E6624552444240E8910E020E0FB
:1003620030E0980111270027402A512A622A732A75
:100372002D8930E0322F2227890120E030E0042944
:100382001529262937296C89062BEB81F0E0FE2FEF
:10039200EE274E2B5F2B041B150B210931094DA1B2
:1003A2005EA16FA178A5041B150B260B370B929546
:1003B20082958F7089279F7089272C01612C712C5F
:1003C200C901B80164197509860997092A2F30E015
:1003D20040E050E00E94460CDA01C9010296A11DDC
:1003E200B11DF70186839783A087B187873FFFE01E
:1003F2009F07A105B10510F4DD24D394BA01A90128
:10040200465F5F40610971094F3F5F4E61057105AB
:1004120018F46894DD24D1F8873F9F4FA105B105F8
:1004220020F00F2EF3E0DF2EF02DDD2009F45AC06C
:10043200D701DC92B3E0DB1225C08BA190E0A0E0F3
:10044200B0E0782F6627552744278AA190E0A0E0E4
:10045200B0E0DC0199278827842B952BA62BB72B9C
:1004620049A150E0542F442760E070E0842B952B83
:10047200A62BB72B28A1822BF70186879787A08B03
:10048200B18B0DC08DA19EA1AFA1B8A5880D991DFC
:10049200AA1DBB1DF70186879787A08BB18B4DA143
:1004A2005EA16FA178A5840E951EA61EB71E840CB0
:1004B200951CA61CB71CD70152968D929D92AD92A7
:1004C200BC92559711961C92E092403CF092413CAE
:1004D20080E009C082E007C081E005C086E003C079
:1004E20081E001C086E0A896CDBFDEBFDF91CF914B
:1004F2001F910F91FF90EF90DF90BF90AF909F9070
:0C0502008F907F906F905F904F90089555
:10050E004F925F926F927F928F929F92AF92BF9215
:10051E00CF92DF92EF92FF920F931F93CF93DF93C1
:10052E0000D000D0CDB7DEB7E090403CF090413C1B
:10053E00623071058105910508F4E6C0F7018680E9
:10054E009780A084B184681579058A059B0508F00B
:10055E00E0C04B015C018081823009F468C08330B9
:10056E0009F489C0813009F0D9C0C40196958795E8
:10057E00880D991D9C013170892F992786952F3FE3
:10058E00F1E03F0791F0F70142855385648575854B
:10059E00480F591F611D711D02E010E0CE0101963A
:1005AE000E943209882361F1BEC0F701428553854E
:1005BE00648575852C01612C712C440D551D661DAD
:1005CE00771D01E010E02FEF31E0CE0101960E9481
:1005DE0032098111ADC0F701428553856485758559
:1005EE00440D551D661D771D4F5F5F4F6F4F7F4F3B
:1005FE0020E030E0CE0102960E94320981119DC0AA
:10060E008A8190E0982F88272981822B80FE0AC04C
:10061E00BC01729562956F7067277F70672780E0C7
:10062E0090E099C0BC017F7080E090E094C094018E
:10063E003327F701C284D384E484F584BB27AB2D22
:10064E009A2D892D220F331FB701A601480F591F6E
:10065E006A1F7B1F02E010E0CE0101960E94320954
:10066E00811170C06A8170E0762F66278981682BB0
:10067E0080E090E070C094012F773327F701C28499
:10068E00D384E484F584D501C401689416F8B69534
:10069E00A795979587951694D1F7220F331F220FA2
:1006AE00331FB701A601480F591F6A1F7B1F04E0B5
:1006BE0010E0CE0101960E943209811148C08C8152
:1006CE0090E0A0E0B0E0782F6627552744279B8165
:1006DE00892F90E0A0E0B0E0DC0199278827842BD9
:1006EE00952BA62BB72B6A8170E0762F6627AB0170
:1006FE0060E070E0842B952BA62BB72B2981822BE3
:10070E00BC01CD019F7027C061E070E080E090E0F9
:10071E0022C061E070E080E090E01DC061E070E01A
:10072E0080E090E018C061E070E080E090E013C0DF
:10073E0061E070E080E090E00EC061E070E080E08B
:10074E0090E009C061E070E080E090E004C061E0FC
:10075E0070E080E090E02496CDBFDEBFDF91CF91B8
:10076E001F910F91FF90EF90DF90CF90BF90AF90C1
:0E077E009F908F907F906F905F904F900895A6
:10078C004F925F926F927F928F929F92AF92BF9295
:10079C00CF92DF92EF92FF92CF93DF93CDB7DEB77C
:1007AC002697CDBFDEBF2091403C3091413C2D833C
:1007BC003E832115310509F4F4C0D90111962C9111
:1007CC00119720FFF0C05A96CD90DD90ED90FC90E3
:1007DC005D97C616D706E806F90610F06B017C018A
:1007EC00ED81FE8146885788608C718C168A178A39
:1007FC00108E118EC114D104E104F10409F4D5C09A
:10080C008280912CA12CB12C072E79E0880C991C9C
:10081C00AA1CBB1C7A95D1F7702D411451046104AC
:10082C00710409F440C0C701B60161507109810916
:10083C009109A50194010E94460C29833A834B83AC
:10084C005C83B1E04B1A510861087108C301B20115
:10085C00A50194010E94460C89819A81AB81BC81CF
:10086C0082179307A407B507F0F088279927DC01B6
:10087C0088199909AA09BB09482259226A227B22A4
:10088C00AD81BE8156964D925D926D927C92599738
:10089C00C418D508E608F70892966D917D918D9154
:1008AC009C91959739C0ED81FE81668D778D80A1E5
:1008BC0091A162A373A384A395A32EC00E94870267
:1008CC00623071058105910558F0ED81FE814680FD
:1008DC00578060847184641575058605970530F022
:1008EC00AD81BE8111961C9281E060C0ED81FE81CC
:1008FC0062A373A384A395A346885788608C718CDC
:10090C00480C591C6A1C7B1C468A578A608E718E57
:10091C00C818D908EA08FB088C149D04AE04BF045F
:10092C0068F2ED81FE8186889788A08CB18CC80C0A
:10093C00D91CEA1CFB1CC68AD78AE08EF18E0E9459
:10094C00F60B611571058105910529F4ED81FE8188
:10095C00118281E02BC00B2EB9E0F694E794D7946A
:10096C00C794BA95D1F7B02DAD81BE8112962C915A
:10097C0030E0215031094901330FAA08BB08C820C7
:10098C00D920EA20FB20DC01CB018C0D9D1DAE1D76
:10099C00BF1DED81FE8186A397A3A0A7B1A780E020
:1009AC0005C085E003C084E001C080E02696CDBF81
:1009BC00DEBFDF91CF91FF90EF90DF90CF90BF9093
:1009CC00AF909F908F907F906F905F904F90089515
:1009DC004F925F926F927F92AF92BF92CF92DF92C3
:1009EC00EF92FF920F931F93CF93DF937C015B01E8
:1009FC006A01C091403CD091413CFA0110821182B5
:100A0C00209709F4DFC0898180FFDEC0672B99F441
:100A1C0086FF0CC040E050E0BA0180E090E00E94FC
:100A2C00C707882319F0198281E0CFC089818F7B99
:100A3C00898380E0CAC086FD0AC08E899F89A88DF3
:100A4C00B98D88279E7F8E8B9F8BA88FB98F8A8DAF
:100A5C009B8DAC8DBD8D4E895F89688D798D841B86
:100A6C00950BA60BB70BA50160E070E084179507FA
:100A7C00A607B70708F0A0C05C019EC08E899F89AD
:100A8C00A88DB98D9C013170232B09F04EC01A81B1
:100A9C001150AC01BD01032E39E076956795579541
:100AAC0047953A95D1F7302D1423D9F4892B8A2BFD
:100ABC008B2B29F46E8D7F8D88A199A106C06AA11C
:100ACC007BA18CA19DA10E948702623071058105DA
:100ADC00910518F4198281E078C06AA37BA38CA3DA
:100AEC009DA36AA17BA18CA19DA10E94F60B61150F
:100AFC0071058105910519F4198281E066C0AB017D
:100B0C00BC01410F511D611D711D4EA35FA368A750
:100B1C0079A780E090E00E94C707882319F019821A
:100B2C0081E053C08981806489838E899F89A88DD7
:100B3C00B98D917000E012E0081B190BA016B106DC
:100B4C0008F485012801612C712CB301A201C701A5
:100B5C000E94C707882319F0198281E036C08E895C
:100B6C009F89A88DB98D480E591E6A1E7B1E4E8A10
:100B7C005F8A688E798EE00EF11EA01AB10AF6011A
:100B8C0080819181080F191F008311838E899F89A1
:100B9C00A88DB98D9170892B79F440E050E0BA01A1
:100BAC0080E090E00E94C707882319F0198281E049
:100BBC000CC089818F7B8983A114B10409F05ECFAD
:100BCC0080E003C085E001C084E0DF91CF911F91EC
:100BDC000F91FF90EF90DF90CF90BF90AF907F90F0
:080BEC006F905F904F90089597
:100BF400EF92FF920F931F93CF93DF9300D000D017
:100C0400CDB7DEB78091443C882379F080914004CD
:100C140083FF0BC08091440483FD07C040E050E093
:100C2400BA0180E090E00E94C7070E94850C88E02A
:100C3400809345041AE003C00E94C40C11501111A2
:100C4400FBCF40E050E0BA0180E40E94E40A813026
:100C540009F097C04AEA51E060E070E088E40E943D
:100C6400E40A813009F057C00DC0E02EF12C0E9437
:100C7400C40CE1E0F0E0EC0FFD1FEE0DFF1D8083DE
:100C84000F5F01C0012F043080F38B81813009F0A4
:100C94007AC08C818A3A51F0F12C80C081E28A9525
:100CA400F1F7000081E0E81AF10806C00F2EF0E128
:100CB400EF2EF7E2FF2EF02DE114F10449F040E0AD
:100CC40050E060E070E489EE0E94E40A8111E6CF0E
:100CD400EF2809F45AC040E050E0BA018AE70E94C4
:100CE400E40A882371F0F12C59C0E12EF12C0E9402
:100CF400C40CE1E0F0E0EC0FFD1FEE0DFF1D80835E
:100D04001F5F143090F3898186FF41C00F2EFCE0F1
:100D1400FF2EF02D43C040E050E0BA0189EE0E945E
:100D2400E40A823040F46894FF24F1F80F2EF9EEBF
:100D3400EF2EF02D06C0FF24F3940F2EF1E4EF2ED6
:100D4400F02D00E117E206C081E28A95F1F7000078
:100D5400015011090115110541F040E050E0BA01BC
:100D64008E2D0E94E40A8111EFCF012BA1F040E007
:100D740052E060E070E080E50E94E40A81110DC059
:100D84000DC0F12C0BC0F12C09C0F12C07C06894E4
:100D9400FF24F2F803C0F12C01C0F12CF092443C82
:100DA40088E0809345040E94C40C81E0F11080E047
:100DB4002496CDBFDEBFDF91CF911F910F91FF909D
:040DC400EF9008950F
:100DC8006F927F928F929F92AF92BF92CF92DF9253
:100DD800EF92FF920F931F93CF93DF933C016B0128
:100DE8004A01E090403CF090413CFA0110821182A7
:100DF800E114F10409F4B5C0F701818180FFB3C0A3
:100E0800828D938DA48DB58D46895789608D718D9E
:100E1800841B950BA60BB70BA60160E070E0841746
:100E28009507A607B70708F46C01530194C0F701AA
:100E380086899789A08DB18DAC01BD015170662757
:100E48007727452B462B472B09F048C0C281C15054
:100E5800AC01BD01032E39E0769567955795479506
:100E68003A95D1F7302DC423F1F4892B8A2B8B2B9B
:100E780029F4668D778D80A191A107C0F70162A141
:100E880073A184A195A10E94870262307105810532
:100E9800910520F4F701118281E066C0F70162A391
:100EA80073A384A395A3F70162A173A184A195A15B
:100EB8000E94F60B611571058105910521F4F70172
:100EC800118281E051C0DC01CB018C0F911DA11D65
:100ED800B11DF70186A397A3A0A7B1A7F70186893B
:100EE8009789A08DB18D9C013170C0E0D2E0C21B02
:100EF800D30BCC16DD0608F4E601F70146A157A18D
:100F080060A571A56114710419F480E090E002C035
:100F18008A2D9B2D8E010E943209882321F0F7012A
:100F2800118281E021C0F70186899789A08DB18D52
:100F38008C0F9D1FA11DB11D868B978BA08FB18F24
:100F4800AC0EBD1ECC1ADD0AF40180819181C80F58
:100F5800D91FC083D183C114D10409F068CF80E0C0
:100F680003C085E001C084E0DF91CF911F910F910C
:100F7800FF90EF90DF90CF90BF90AF909F908F90B1
:060F88007F906F900895B8
:100F8E000F931F93CF93DF93FC01892BF1F0EA01AE
:100F9E0011C08F010F5F1F4F80810E94C80C80917E
:100FAE003E3C90913F3C019780933E3C90933F3C5A
:100FBE002197F801209709F45DC080913E3C9091F5
:100FCE003F3C892B31F7C0E058C0411551056105F2
:100FDE00710501F18091443C83FD09C0032E39E077
:100FEE00440F551F661F771F3A95D1F7302D88E5B0
:100FFE000E94E40A811140C08FEF0E94C80C8EEF50
:10100E000E94C80C80E092E080933E3C90933F3C5F
:10101E00C0E033C080913E3C90913F3C029604C0AC
:10102E0080E00E94C80CCE01EC012197892BC1F7FC
:10103E000E94C40CC82F8F3FD9F38F718530A1F455
:10104E0007C081E28A95F1F700000150110902C034
:10105E0008E813E10E94C40C8F3F19F00115110529
:10106E0081F7012B09F0C0E088E0809345040E94CF
:10107E00C40C03C0C0E001C0C1E08C2FDF91CF9142
:06108E001F910F9108956F
:10109400CF92DF92EF92FF920F931F93CF93DF9340
:1010A400E090403CF090413CFC01C081D18121960C
:1010B40009F45CC0448555856685778541155105DD
:1010C4006105710509F454C08C01CE018F70992714
:1010D400892B09F046C04F5F5F4F6F4F7F4F4487A6
:1010E4005587668777874085518562857385411565
:1010F40051056105710539F4F70184819581C8179B
:10110400D907C0F52EC0F701828190E001979E01B6
:10111400329522952F7023273F7023278223932310
:10112400892BF9F4CB01BA010E9487026230710560
:101134008105910508F1F701C680D780E084F18428
:101144006C157D058E059F05C8F4F80160877187CD
:10115400828793870E94F60BF801648775878687D8
:101164009787F801C083D18380E009C083E007C07A
:1011740083E005C083E003C081E001C083E0DF9128
:10118400CF911F910F91FF90EF90DF90CF90089532
:101194000F931F93CF93DF93CDB7DEB7EC97CDBFFB
:1011A400DEBF0091403C1091413C0115110509F44A
:1011B4004AC0AC01F8011182CE0141968B839C8315
:1011C400BE01635E7F4F40970E949509811140C024
:1011D4008D8D8823D1F188A584FD39C0CE014D962B
:1011E4000E94C80BF801668F778F80A391A38CAD02
:1011F40090E0A0E0B0E0782F6627552744279BAD08
:10120400892F90E0A0E0B0E0DC0199278827842BA7
:10121400952BA62BB72B4AAD50E0542F442760E002
:1012240070E0842B952BA62BB72B29AD822B828FB4
:10123400938FA48FB58F168A178A108E118E81E032
:10124400818380E005C085E003C083E001C083E0C2
:10125400EC96CDBFDEBFDF91CF911F910F91089522
:10126400AF92BF92CF92DF92EF92FF920F931F93B0
:10127400CF93DF936C0179018091443C83FD09C0D5
:10128400032E39E0440F551F661F771F3A95D1F797
:10129400302D81E50E94E40A811131C00E94C40C02
:1012A4008F3FE1F38E3F69F5CC27DD27CE19DF09A7
:1012B400C01BD10BCE5FDD4F03C00E94C40C75016F
:1012C400570181E0A81AB108EF28B9F7C114D10475
:1012D40069F07601EFEFEE1AFE0A0E94C40CF601E3
:1012E4008083015011096701A1F703C0015011095E
:1012F400E9F70E94C40C2197E1F7C0E003C0C1E004
:1013040001C0C1E088E0809345040E94C40C8C2F86
:10131400DF91CF911F910F91FF90EF90DF90CF90CD
:06132400BF90AF90089598
:10132A00EF92FF920F931F93CF93DF9300D0CDB725
:10133A00DEB78C017B0149835A8303C03196E98366
:10134A00FA83E981FA8180818032C1F38F3219F4FC
:10135A003196E983FA83D80114961D921D921D9243
:10136A001C921797E981FA818081803230F4C80192
:10137A000E94960AF701108226C0BE016F5F7F4F56
:10138A00C8010E94300B81111EC0B701C8010E941A
:10139A007C0B811118C0D8011296ED91FC9113971C
:1013AA009385911110C0F701838584FF0BC0C70193
:1013BA000E94C80BD80114966D937D938D939C93CC
:1013CA001797DBCF83E00F900F90DF91CF911F919A
:0813DA000F91FF90EF900895C0
:1013E200CF92DF92EF92FF920F931F93CF93DF93EF
:1013F200EC016A017B0102E010E02EEF31E00E9475
:101402003209811131C0898190E0982F8827288183
:10141200822B85359A4A51F526E330E0B701A601C1
:10142200CE010E943209811109C0898190E0982F72
:1014320088272881822B86349144D1F002E010E083
:1014420022E530E0B701A601CE010E9432098111E6
:1014520011C0898190E0982F88272881822B8634B9
:10146200914451F081E009C083E007C082E005C0E9
:1014720080E003C081E001C080E0DF91CF911F9145
:0C1482000F91FF90EF90DF90CF90089545
:10148E0093E088ED84BF90936100E0E2F4E080E8A1
:10149E00858381E0858381E880830E94210C60E052
:1014AE0070E0CB010E94C60342E45CE36AE070E0A8
:1014BE0084E39CE30E94EE0442E45CE360E070E0AF
:1014CE0080E090E00E94EE0460E070E0CB010E94AC
:1014DE00C60342E45CE36AE070E08AE29CE30E94A9
:1014EE00E40613C001978093423C9093433CFC0169
:1014FE00EC5CF34C2081FC01E65DF34C80812817F7
:10150E0021F080E880932604FFCF8091423C909199
:0E151E00433C009739F781E080932604FFCF0D
:10152C000F931F93CF93DF93FC01A091403CB0919C
:10153C00413C108211826481758186819781613072
:10154C0071058105910591F116960D911D912D91C5
:10155C003C911997601771078207930748F561153D
:10156C0071058105910549F42C91233031F41E96B7
:10157C006D917D918D919C915197EF016087718751
:10158C0082879387611571058105910519F00E9479
:10159C00F60B06C01E966D917D918D919C91519785
:1015AC006C877D878E879F8780E003C081E001C0B8
:0C15BC0081E0DF91CF911F910F91089505
:1015C800CF92DF92EF92FF920F931F93CF93DF9307
:1015D800C82FF42EE52ED62EC72E88234CF4CF77AD
:1015E80040E050E0BA0187E70E94E40A823058F5EB
:1015F80000E414E0D8E0F801D5830E94C40CF80197
:10160800D6830E94C40C8C2F0E94C80C8C2D0E947B
:10161800C80C8D2D0E94C80C8E2D0E94C80C8F2DD1
:101628000E94C80CC03411F081E001C085E9C834BB
:1016380009F487E80E94C80CCAE00E94C40C8823F9
:1016480014F4C150D1F7DF91CF911F910F91FF9002
:08165800EF90DF90CF900895A0
:101660000F931F93CF93DF93EB01FC010281138152
:101670004BE050E060E270E0C8010E94B10C2881AC
:10168000398190E080E058E001C0842F41E0480FAC
:10169000F901E80FF11DE081E132F0F0EF32E1F005
:1016A000EE3211F0951738F05830B1F4EE32A1F463
:1016B00098E05BE0EACFEE2324F4F0E0EE57FF473A
:1016C000E0818FE98E0F8A3108F4E052D801A90F2A
:1016D000B11DEC939F5FD9CF240F311D288339832F
:1016E00081E0E13208F080E0F801838780E0DF915B
:0816F000CF911F910F910895A5
:1016F800CF92DF92FF920F931F93CF93DF93EC016A
:101708006B010E94960A811137C0288139812F7098
:101718003327220F331F22953295307F3227207FBF
:1017280032274C855D856E857F8500E210E0C60115
:101738000E94320991E0811101C090E0F92E9111C7
:1017480016C0F60180818823A1F0838583FD09C036
:101758006A817B814BE050E0C6010E94680C892BAE
:1017680051F0CE010E944A08882379F205C0892FDA
:1017780003C083E001C08F2DDF91CF911F910F919E
:08178800FF90DF90CF9008955F
:101790000F931F93FC01A091403CB091413C8C9170
:1017A000833069F4658970E0762F66278489682B19
:1017B000CB01A0E0B0E0BC015527442703C040E0C6
:1017C00050E0BA01238D30E0322F2227828D282B62
:1017D000C901A0E0B0E08C019D01042B152B262B44
:0C17E000372BC901B8011F910F9108952B
:1017EC000F931F93E091403CF091413C9B01AC0165
:1017FC00225031094109510986819781A085B18513
:10180C000297A109B109281739074A075B0768F441
:10181C00A281B0E00E94A60C028913892489358923
:10182C00600F711F821F931F03C060E070E0CB013B
:06183C001F910F910895B9
:101842000E94FA05882321F080E88093260406C0CE
:1018520080E88093250481E380932008809124040A
:10186200882374F780E09CE30E94C100882319F06A
:1018720080E88093260486EF90E80E94CA088823B5
:0A18820019F080E880932604089511
:10188C00A1E21A2EAA1BBB1BFD010DC0AA1FBB1F78
:10189C00EE1FFF1FA217B307E407F50720F0A21BEA
:1018AC00B30BE40BF50B661F771F881F991F1A9457
:1018BC0069F760957095809590959B01AC01BD0181
:0418CC00CF010895AB
:1018D000CF93DF93DC01FB0180E090E002C0FB01CD
:1018E000DE019A0121503109452B61F0ED0121966D
:1018F0008C9190E0BF016F5F7F4F4081841B910905
:0A190000A90169F3DF91CF9108956A
:10190A0084E080930102E0E4F4E09DE0918398E0B2
:10191A00918BE0E2F8E092E290838183808181609A
:04192A008083089519
:10192E00A29FB001B39FC001A39F700D811D112412
:0E193E00911DB29F700D811D1124911D089501
:10194C000E94970CA59F900DB49F900DA49F800DA5
:06195C00911D1124089505
:10196200FC0103C06083AC013196CA010197452B8B
:04197200C9F7089514
:1019760080932408809123088823E4F78091240823
:021986000895C2
:081988008FEF0E94BB0C0895D3
:061990000E94BB0C08954B
:041996000C940000AD
:0A199A000102030405060708090A0C
:00000001FF
