:020000040000FA
:10000000803102288731E82F7F30F700FF30F6007B
:10001000FF30F500FF30F4007708F3007608F200B7
:100020007508F1007408F00008007108F800700805
:10003000F7007308FA007208F9000130F40200308A
:10004000F53B740A031D2828750A031D2828292852
:100050003828F001F10170280130F7070030F83D31
:100060000130F9070030FA3D0130F4020030F53B71
:100070007708840078088500120003194028412879
:100080006028790884007A0885001200031949283D
:100090004A2860287408750403194F2850286028DE
:1000A000790884007A0885000008F6007708840043
:1000B000780885000008760603195F2860282C2838
:1000C00077088400780885000008F6007908840025
:1000D0007A08850000087602F000F101031CF103A4
:1000E00008005F08803AB20080303202031D7A288F
:1000F00001305E02031C7D287F289331242B4101AF
:100100003108860001308700010884000130850035
:1001100002308107003FBC00013FBD003C08860063
:100120003D0887005408C03F5508C13F5608C23FEC
:100130005708C33F7D28300886008701403FB20042
:10014000413FB30032088400330885001200733A3F
:10015000031DAB28AC28F028300886008701013049
:10016000810741310318810A6E086F04031DB92805
:10017000BA28DD2831088600013087000108840094
:100180000130850002308107003FBA00013FBB000B
:100190003B084001A70041013A084001A600410187
:1001A0005308AE31B7268031400127084101DF00F6
:1001B000400126084101DE007D2800304001A600F4
:1001C0000030A70041015308AE31B726803140010D
:1001D00027084101DF00400126084101DE007D289B
:1001E000300886008701403FF000413FF100463073
:1001F000F200B830F3000330F4000030F500803135
:100200001520803170087104031D0729082947292A
:10021000410130088600870103308107413103180E
:10022000810AD430B2003208A0005308A23155220E
:10023000803141012108DF002008DE006E086F04D4
:10024000031D232924297D285F08803AB2008030CD
:100250003202031D2D2901305E02031C3029312991
:100260007D284101310886000130870001088400A3
:100270000130850002308107003FDC00013FDD00D6
:100280005C0886005D088700540881007D284101D4
:10029000300886008701403FF000413FF1004730C1
:1002A000F200B830F3000230F4000030F500803185
:1002B0001520803170087104031D5F296029A12970
:1002C000410130088600870102308107413103185F
:1002D000810AD430B2003208A0005308A23155225E
:1002E000803141012108DF002008DE006E086F0424
:1002F000031D7B297C297D285F08803AB20080306D
:100300003202031D852901305E02031C88298929D8
:100310007D284101310886000130870001088400F2
:100320000130850002308107003FDC00013FDD0025
:100330005C0886005D0887005408C03F5508C13F2F
:100340007D284101300886008701403FB200413FCF
:10035000B30032088400330885001200753A031D8B
:10036000B229B329F32930088600870101308107BB
:1003700041310318810AD430B2003208A00053087A
:10038000A2315522803141012108DF002008DE0022
:100390006E086F04031DCD29CE297D285F08803AA1
:1003A000B20080303202031DD72901305E02031CE7
:1003B000DA29DB297D2841013108860001308700D8
:1003C000010884000130850002308107003FDC0015
:1003D000013FDD005C0886005D0887005408C03FCF
:1003E0005508C13F7D28300886008701403FF00056
:1003F000413FF1004B30F200B830F3000230F4001E
:100400000030F50080311520803170087104031D23
:100410000A2A0B2A502A410130088600870102303F
:10042000810741310318810AD430B2003208A0009C
:100430005308A2315522803141012108DF002008F4
:10044000DE006E086F04031D262A272A7D285F0818
:10045000803AB20080303202031D302A01305E0241
:10046000031C332A342A7D284101310886000130DB
:100470008700010884000130850002308107003FB9
:10048000DC00013FDD005C0886005D088700540841
:10049000C03F5508C13F5608C23F5708C33F7D289B
:1004A0004101300886008701403FF000413FF100E4
:1004B0004A30F200B830F3000330F4000030F500A9
:1004C00080311520803170087104031D682A692A63
:1004D000B62A410130088600870103308107413187
:1004E0000318810AD430B2003208A0005308A231A8
:1004F0005522803141012108DF002008DE006E080E
:100500006F04031D842A852A7D285F08803AB20083
:1005100080303202031D8E2A01305E02031C912AB4
:10052000922A7D28410131088600013087000108A8
:1005300084000130850002308107003FDC00013F6C
:10054000DD005C0886005D0887005408C03F550840
:10055000C13F5608C23F5708C33F5808C43F590817
:10056000C53F5A08C63F5B08C73F7D284101300898
:1005700086008701403FF000413FF1008F30F200DC
:10058000B830F3000230F4000030F500803115205F
:10059000803170087104031DCE2ACF2A1C2B410123
:1005A0003008860087010230810741310318810A33
:1005B000D430B2003208A0005308A2315522803155
:1005C00041012108DF002008DE006E086F04031DD2
:1005D000EA2AEB2A7D285F08803AB2008030320296
:1005E000031DF42A01305E02031CF72AF82A7D2835
:1005F0004101310886000130870001088400013084
:10060000850002308107003FDC00013FDD005C080F
:1006100086005D0887005408C03F5508C13F560852
:10062000C23F5708C33F5808C43F5908C53F5A083E
:10063000C63F5B08C73F7D2841013008860087011F
:10064000403FF000413FF1009230F200B830F3003B
:100650000230F4000030F500803115208031700840
:100660007104031D342B352B7A2B41013008860091
:1006700087010230810741310318810AD430B2006A
:100680003208A0005308A2315522803141012108CF
:10069000DF002008DE006E086F04031D502B512B75
:1006A0007D285F08803AB20080303202031D5A2B49
:1006B00001305E02031C5D2B5E2B7D284101310859
:1006C0008600013087000108840001308500023077
:1006D0008107003FDC00013FDD005C0886005D080B
:1006E00087005408C03F5508C13F5608C23F57080D
:1006F000C33F7D284101300886008701403FF0005C
:10070000413FF1009530F200B830F3000230F400C0
:100710000030F50080311520803170087104031D10
:10072000922B932BD42B4101300886008701023095
:10073000810741310318810AD430B2003208A00089
:100740005308A2315522803141012108DF002008E1
:10075000DE006E086F04031DAE2BAF2B7D285F08F3
:10076000803AB20080303202031DB82B01305E02A5
:10077000031CBB2BBC2B7D284101310886000130B6
:100780008700010884000130850002308107003FA6
:10079000DC00013FDD005C0886005D08870054082E
:1007A000C03F5508C13F7D284101300886008701C0
:1007B000403FF000413FF1004E30F200B830F3000E
:1007C0000330F4000030F5008031152080317008CE
:1007D00071040319EC2BED2B062C41013008860027
:1007E0008701403FF000413FF1001E30F200B83079
:1007F000F3000330F4000030F50080311520803123
:1008000070087104031D052C062C452C410130088D
:10081000860087010330810741310318810AD430F3
:10082000B2003208A0005308A031BB208031410142
:100830002108DF002008DE006E086F04031D212C54
:10084000222C7D285F08803AB20080303202031DDE
:100850002B2C01305E02031C2E2C2F2C7D284101F5
:1008600031088600013087000108840001308500CE
:1008700002308107003FDC00013FDD005C0886009C
:100880005D088700540881007D28410130088600FA
:100890008701403FF000413FF1004F30F200B83097
:1008A000F3000230F4000030F50080311520803173
:1008B0007008710403195D2C5E2C772C41013008FF
:1008C00086008701403FF000413FF1001F30F200F9
:1008D000B830F3000230F4000030F500803115200C
:1008E000803170087104031D762C772CB82C4101DF
:1008F0003008860087010230810741310318810AE0
:10090000D430B2003208A0005308A031BB2080319F
:1009100041012108DF002008DE006E086F04031D7E
:10092000922C932C7D285F08803AB20080303202EE
:10093000031D9C2C01305E02031C9F2CA02C7D28E3
:100940004101310886000130870001088400013030
:10095000850002308107003FDC00013FDD005C08BC
:1009600086005D0887005408C03F5508C13F7D28B8
:100970004101300886008701403FB200413FB3008B
:1009800032088400330885001200783A0319C92C14
:10099000CA2CDB2C300886008701403FB200413F63
:1009A000B30032088400330885001200583A031D52
:1009B000DA2CDB2C1B2D30088600870101308107E3
:1009C00041310318810AD430B2003208A000530824
:1009D000A031BB20803141012108DF002008DE006A
:1009E0006E086F04031DF52CF62C7D285F08803AF5
:1009F000B20080303202031DFF2C01305E02031C66
:100A0000022D032D7D284101310886000130870029
:100A1000010884000130850002308107003FDC00BE
:100A2000013FDD005C0886005D0887005408C03F78
:100A30005508C13F7D28300886008701403FF000FF
:100A4000413FF1005330F200B830F3000230F400BF
:100A50000030F500803115208031700871040319D1
:100A6000322D332D4C2D4101300886008701403F47
:100A7000F000413FF1002330F200B830F3000230C3
:100A8000F4000030F50080311520803170087104C9
:100A9000031D4B2D4C2D912D4101300886008701FF
:100AA0000230810741310318810AD430B200320884
:100AB000A0005308A031BB20803141012108DF0094
:100AC0002008DE006E086F04031D672D682D7D2849
:100AD0005F08803AB20080303202031D712D013070
:100AE0005E02031C742D752D7D284101310886009E
:100AF0000130870001088400013085000230810741
:100B0000003FDC00013FDD005C0886005D088700D7
:100B10005408C03F5508C13F5608C23F5708C33F5D
:100B20007D284101300886008701403FF000413FA9
:100B3000F1005230F200B830F3000330F40000301E
:100B4000F500803115208031700871040319A92D3A
:100B5000AA2DC32D4101300886008701403FF000D7
:100B6000413FF1002230F200B830F3000330F400CE
:100B70000030F50080311520803170087104031DAC
:100B8000C22DC32D102E410130088600870103308D
:100B9000810741310318810AD430B2003208A00025
:100BA0005308A031BB20803141012108DF0020081B
:100BB000DE006E086F04031DDE2DDF2D7D285F082B
:100BC000803AB20080303202031DE82D01305E020F
:100BD000031CEB2DEC2D7D284101310886000130EE
:100BE0008700010884000130850002308107003F42
:100BF000DC00013FDD005C0886005D0887005408CA
:100C0000C03F5508C13F5608C23F5708C33F580868
:100C1000C43F5908C53F5A08C63F5B08C73F7D28F7
:100C20004101300886008701403FF000413FF1005C
:100C30009830F200B830F3000230F4000030F500D4
:100C4000803115208031700871040319282E292E57
:100C5000422E4101300886008701403FF000413FAD
:100C6000F1005630F200B830F3000230F4000030EA
:100C7000F50080311520803170087104031D412E6C
:100C8000422E8F2E410130088600870102308107F5
:100C900041310318810AD430B2003208A000530851
:100CA000A031BB20803141012108DF002008DE0097
:100CB0006E086F04031D5D2E5E2E7D285F08803A4E
:100CC000B20080303202031D672E01305E02031C29
:100CD0006A2E6B2E7D284101310886000130870085
:100CE000010884000130850002308107003FDC00EC
:100CF000013FDD005C0886005D0887005408C03FA6
:100D00005508C13F5608C23F5708C33F5808C43F63
:100D10005908C53F5A08C63F5B08C73F7D284101B7
:100D2000300886008701403FF000413FF1009B30D2
:100D3000F200B830F3000230F4000030F5008031EA
:100D400015208031700871040319A72EA82EC12E1A
:100D50004101300886008701403FF000413FF1002B
:100D60005930F200B830F3000230F4000030F500E2
:100D700080311520803170087104031DC02EC12EF2
:100D8000062F41013008860087010230810741317A
:100D90000318810AD430B2003208A0005308A031F1
:100DA000BB20803141012108DF002008DE006E08F1
:100DB0006F04031DDC2EDD2E7D285F08803AB20013
:100DC00080303202031DE62E01305E02031CE92E44
:100DD000EA2E7D2841013108860001308700010894
:100DE00084000130850002308107003FDC00013FB4
:100DF000DD005C0886005D0887005408C03F550888
:100E0000C13F5608C23F5708C33F7D284101300803
:100E100086008701403FF000413FF1009E30F20024
:100E2000B830F3000230F4000030F50080311520B6
:100E300080317008710403191E2F1F2F382F4101B4
:100E4000300886008701403FF000413FF1005C30F0
:100E5000F200B830F3000230F4000030F5008031C9
:100E60001520803170087104031D372F382F792F1A
:100E700041013008860087010230810741310318A3
:100E8000810AD430B2003208A0005308A031BB2040
:100E9000803141012108DF002008DE006E086F0468
:100EA000031D532F542F7D285F08803AB2008030F5
:100EB0003202031D5D2F01305E02031C602F612F83
:100EC0007D28410131088600013087000108840037
:100ED0000130850002308107003FDC00013FDD006A
:100EE0005C0886005D0887005408C03F5508C13F74
:100EF0007D284101300886008701403FB200413F14
:100F0000B30032088400330885001200253A031D1F
:100F10008A2F8B2F9E2F3008860087010130810792
:100F200041310318810A01304201C0070030C13D40
:100F300001304101B0000030B100E72F30088600D9
:100F400087010130810741310318810A91310C2951
:100F50005308AB310323803175084101C300740885
:100F6000C200300886008701403FB200413FB30015
:100F700032088400330885000008B400B501430836
:100F80003506031DC52F42083406031DC82FC92F7F
:100F9000D72F3008860087010130810741310318BF
:100FA000810A01304201C0070030C13DA62F43082D
:100FB000F1004208F0005308B2003208F200AA31F2
:100FC0008E228031FE304101B000FF30B1000800B8
:100FD0004101EC01ED01EE01EF0120308400013010
:100FE00085003130983101208731A03084000130F4
:100FF0008500503098310120873140018831082820
:101000004F0196019701980199019A019B010800EF
:10101000A831642088311430AC31B32488314B01BD
:101020008E018D018C0100304001AD00B030AE006A
:101030009031002088312030AA312A22883170086E
:101040007104031D2428252826281328A1304201D5
:10105000D100B830D2003030D3000230D40020307C
:10106000A831BA20883144013108803A4101EB00AF
:1010700080306B02031D3F28653044013002031CA1
:1010800042284328492864304401B0000030B100B0
:1010900050284401B11F4D284E285028B001B101FD
:1010A0003008AC31B3248831132880310228410143
:1010B000AA002A08AB318923883141016C086D04EC
:1010C000031D6328642869284F30A4000030A50060
:1010D0006D286D08A5006C08A400A801A901AC0149
:1010E000AD01A201A301A001A10129292A08AB3168
:1010F0000323883175084101AF007408AE002E0A41
:10110000031D86282F0A031D862887288F282F086D
:101110004001DF0041012E084001DE007B29280844
:101120002904031D94289528BE282B302E062F0451
:1011300003199B289C28A3282D302E062F04031D5D
:10114000A228A328BE280130A8000030A9002E083C
:101150004001E00041012C08A03E860001308700DC
:1011600040016008810001304101AC070030AD3D15
:1011700001304201C0070030C13D29292008210467
:10118000031DC328C428D0282E302E062F04031D8B
:10119000CA28CB28D0280130A0000030A100A72801
:1011A00022082304031DD528D628F92865302E06E9
:1011B0002F040319DC28DD28F22845302E062F04E1
:1011C0000319E328E428F22870302E062F040319AF
:1011D000EA28EB28F22850302E062F04031DF128B0
:1011E000F228F9280130A2000030A300A801A901CB
:1011F000A7282E08D03E4001E000FF3041012F3DDE
:101200004001E100003061020A3003196002031C52
:101210000A290C2901300D290030E200E30162089F
:101220004101A600400163084101A70026082704E8
:10123000031D1B291C29A7282F08F1002E08F000E8
:101240002A084001E0006008F200AA318E228831AD
:10125000462941012D08803A4001E000410125085E
:10126000803A40016002031D3829410124082C0204
:1012700003183B293C294629003041012D024F30FB
:1012800003192C02031C45294629762841012C0804
:10129000A03E8600013087008101AB304001E000B4
:1012A0006008B500A030A6318026883140015E0874
:1012B000860087013508C03F3608C13F3708C23F66
:1012C0003808C33F420144084504031D68296929C1
:1012D000762941012C082D0403196F2970297629DC
:1012E00001304001DE000030DF007B29FE3040018C
:1012F000DE00FF30DF0008000130B9003908DC07EC
:101300005C085D07B900390886000130870030307D
:10131000010603198C298D297C295C080319912960
:101320009229FF2C5C085D07B9003908860001305E
:1013300087007830010603199E299F29AC295C0893
:101340005D07B90039088600013087005830010672
:10135000031DAB29AC29FF2C5C08013EB9003908FC
:10136000DD07DC01B7290130B9003908DC075C086A
:101370005D07B9003908860001308700303001066A
:101380000319C329C429B329DC015C085D07B9002E
:101390003908860001308700703001060319D12911
:1013A000D229622B5C085D07B9003908860001303C
:1013B000870050300106031DDE29DF29E029622B5A
:1013C0005C085D07B90039088600013087002E30BF
:1013D0000106031DEC29ED29F429531601304001C3
:1013E000B9003908DC07622B5C085D07B9003908D1
:1013F0008600013087000108BA00BB013A08F000FE
:101400003B08F100A931FB218931700871040319EF
:101410000A2A0B2A8C2A4001D2015C085D07B90018
:1014200039088600013087000108D03EBA00FF303D
:1014300003180030BB0000303B020A3003193A02A7
:10144000031C232A252A0130262A0030BC00BD01B6
:101450003C08C3003D08C400430844040319312A72
:10146000322A3F2A5C085D07B9003908860001303E
:1014700087000108D03EBA003A08D200562A5C081C
:101480005D07B90039088600013087000108BA00FD
:10149000BB013A08F6003B08F700A93183218931E6
:1014A0007608C93E4001BC003C08D2005708803A8B
:1014B000B90080303902031D5F2A08305602031834
:1014C000622A632A822A40015208B900BA01BB018C
:1014D000BC015608073CBD000130BD35FF3E031D71
:1014E0006D2A3D35890A782AB935BA0DBB0DBC0D78
:1014F000890B742A3908D8043A08D9043B08DA045D
:101500003C08DB0401304001D6070030D73D0430F1
:10151000D4070030D53D962A00304001B800003095
:10152000B7000030B6000030B500FF2F0130B90021
:101530003908DC07C5295C085D07B9003908860051
:1015400001308700703001060319A72AA82A662BEC
:101550005C085D07B900390886000130870050300B
:101560000106031DB42AB52AB62A662B5C085D075E
:10157000B900390886000130870030300106031DAC
:10158000C22AC32ACE2A56085704031DC82AC92ACC
:10159000CE2AFC30D407FF30D53DEE295C085D072C
:1015A000B90039088600013087000108BA00BB0184
:1015B0003A08F0003B08F100A931FB21893170089D
:1015C00071040319E42AE52AEE294001D2015C08DE
:1015D0005D07B90039088600013087000108D03E58
:1015E000BA00FF3003180030BB0000303B020A3065
:1015F00003193A02031CFD2AFF2A0130002B003098
:10160000BC00BD013C08C5003D08C60045084604B5
:1016100003190B2B0C2B192B5C085D07B90039083B
:101620008600013087000108D03EBA003A08D20097
:10163000302B5C085D07B90039088600013087004F
:101640000108BA00BB013A08F6003B08F700A931CF
:10165000832189317608C93E4001BC003C08D20094
:101660005708803AB90080303902031D392B083001
:10167000560203183C2B3D2B5C2B40015208B9004D
:10168000BA01BB01BC015608073CBD000130BD35A5
:10169000FF3E031D472B3D35890A522BB935BA0D44
:1016A000BB0DBC0D890B4E2B3908D8043A08D90460
:1016B0003B08DA043C08DB0401304001D607003067
:1016C000D73DEE29531A652B662B9B2A5C085D07D4
:1016D000B90039088600013087007030010603190F
:1016E000722B732B892B5C085D07B90039088600C3
:1016F000013087005030010603197F2B802B892B86
:101700000030B8000030B7000030B6000030B5003F
:10171000FF2F0130B9003908DC075C085D07B9000C
:1017200039088600013087002B300106031D992BF4
:101730009A2B9F2B0130B9003908DC07AE2B5C08CF
:101740005D07B90039088600013087002D30010699
:10175000031DAB2BAC2BAE2BD3159A2B5C08B90019
:101760003908DD07DC01B82B0130B9003908DC0786
:101770005C085D07B9003908860001308700303009
:1017800001060319C42BC52BB42BD601D701F32BAB
:101790005C080319CC2BCD2BDD2B0A30F000003078
:1017A000F1005708F3005608F200A8319B20893158
:1017B00071084001D7007008D6005C085D07B900C9
:1017C00039088600013087000108D03EBA00FF309A
:1017D00003180030BB003A08D6073B08D73D01305C
:1017E000B9003908DC075C085D07B90039088600D4
:1017F000013087000108D03EBA00FF3003180030E6
:10180000BB0000303B020A3003193A02031C092CCA
:101810000B2C01300C2C0030BC00BD013C08C70073
:101820003D08C80047084804031D172C182CC82B76
:101830005C08031D1C2C1D2C262C0030B800003029
:10184000B7000030B6000030B500FF2FD31D292CA3
:101850002A2C2F2CD609D709D60A0319D70A5608DD
:10186000D4075708D53D35080319372C382C402CA0
:101870005D085C07B90035088600870139088100DA
:101880005B085A0459045804031D472C482C512C5A
:101890000030B8000030B7000030B6000030B500AE
:1018A000FF2FFF305805B90000305905BA0000304D
:1018B0005A05BB0000305B05BC003C08031D6C2CC6
:1018C0003B08031D6C2C3A08031D6C2C8130390237
:1018D000031C6B2C6C2C802C0030D8070130D93DB8
:1018E0000030DA3D0030DB3D802C0130D835D90D99
:1018F000DA0DDB0D890B762CFF30D407FF30D53D98
:10190000DB1F832C842C752C5508803AB9007F305E
:101910003902031D8D2C833054020318902C912C16
:101920009E2C81304001D400FF30D5000030DB0018
:101930000030DA000030D9000030D800813040019A
:101940005406031DA82C550A0319A72CA82CB32C48
:101950000130D835D90DDA0DDB0D890BA92CFF30FC
:10196000D407FF30D53D5508803AB90080303902A0
:10197000031DBC2C80305402031CBF2CC02CCD2C6A
:1019800000304001DB000030DA000030D9000030C8
:10199000D8008030D4000030D50009304001DB365B
:1019A000DA0CD90CD80C890BCE2CFF30D805FF30BF
:1019B000D9057F30DA050030DB0554087F3EB900D9
:1019C0000030553DBA00FF303905BB0000303A0504
:1019D000BC003B08BD003C08BE00BF01C001173081
:1019E000BD35BE0DBF0DC00D890BF02C3D08D804D0
:1019F0003E08D9043F08DA044008DB04DE2F531AFE
:101A0000022D032D132D5D088600013087002E3036
:101A10000106031D0C2D0D2D132D53160130B90099
:101A20003908DD07FF2C5D088600013087000108BA
:101A3000D03EB900FF3003180030BA0000303A023F
:101A40000A3003193902031C262D282D0130292DB7
:101A50000030BB00BC013B08C9003C08CA00490873
:101A60004A04031D342D352D362D822DD314093013
:101A70005606570403193D2D3E2D792D531E412D39
:101A8000422D462DFF30D407FF30D53D0130D6071B
:101A90000030D73D0030F3000030F2000030F1009C
:101AA0000A30F0005B08F7005A08F6005908F50004
:101AB0005808F400AA315B22893173084001DB0029
:101AC0007208DA007108D9007008D8005D08860035
:101AD000013087000108D03EB900BA01BB01BC014A
:101AE0003908D8073A08D93D3B08DA3D3C08DB3DC8
:101AF0000E2D531A7C2D7D2D0E2D0130D407003074
:101B0000D53D0E2DD601D7015D0886000130870036
:101B10006530010603198D2D8E2D982D5D088600E8
:101B20000130870045300106031D972D982D782E32
:101B30000130B9003908DD075D08860001308700F3
:101B40002D300106031DA52DA62DAC2DD31501307A
:101B5000B9003908DD07B72D5D0886000130870020
:101B60002B300106031DB52DB62DB72DA72D5D0811
:101B7000860001308700303001060319C02DC12DC9
:101B8000A72D5D088600013087000108D03EB9000E
:101B9000FF3003180030BA0000303A020A3003194F
:101BA0003902031CD42DD62D0130D72D0030BB00B7
:101BB000BC013B08CB003C08CC004B084C0403198B
:101BC000E22DE32D6F2E5D088600013087000108AD
:101BD000D03EB900BA013908D6003A08D700013022
:101BE000B9003908DD075D0886000130870001086B
:101BF000D03EB900FF3003180030BA0000303A027E
:101C00000A3003193902031C062E082E0130092E52
:101C10000030BB00BC013B08CD003C08CE004D08A5
:101C20004E040319142E152E6F2E5D088600013008
:101C300087000108D03EB900BA015708F1005608E4
:101C4000F0000A30F2000030F300A8319B20893107
:101C5000400139087007D6003A08713DD7000130BD
:101C6000B9003908DD075D088600013087000108EA
:101C7000D03EB900FF3003180030BA0000303A02FD
:101C80000A3003193902031C462E482E0130492E12
:101C90000030BB00BC013B08CF003C08D0004F081F
:101CA00050040319542E552E6F2E5D088600013006
:101CB00087000108D03EB900BA015708F100560864
:101CC000F0000A30F2000030F300A8319B20893187
:101CD000400139087007D6003A08713DD700D31D7E
:101CE000722E732E782ED609D709D60A0319D70A71
:101CF0005608D4075708D53D35080319802E812E84
:101D00008C2ED31C842E852E8C2E5D08B9003508B0
:101D100086008701390881005B08F3005A08F20049
:101D20005908F1005808F0000030AF3154278931CC
:101D300073084001DB007208DA007108D9007008EE
:101D4000D8005B08F3005A08F2005908F10058085F
:101D5000F0000030F7000030F6000030F5000030F1
:101D6000F400AC3165248931031CB72EB82EC22E85
:101D700000304001B8000030B7000030B60000303D
:101D8000B500FF2F4001D51FC62EC72E512FD409F5
:101D9000D509D40A0319D50AEE2E5030F3001530B8
:101DA000F2000230F100F930F00040015B08F7006A
:101DB0005A08F6005908F5005808F40098319820A0
:101DC000893173084001DB007208DA007108D9001C
:101DD0007008D800F630D407FF30D53D5508803A5A
:101DE000B90080303902031DF72E0A30540203185F
:101DF000FA2EFB2ECD2E1C2F4130F3002030F200A6
:101E00000030F1000030F0005B08F7005A08F600DF
:101E10005908F5005808F400983198208931730862
:101E20004001DB007208DA007108D9007008D800A0
:101E3000FF30D407FF30D53D400154085504031D41
:101E4000222F232FFC2E5B08F3005A08F2005908BA
:101E5000F1005808F0000030F7008030F600003044
:101E6000F5000030F400AD319D2589310318392F7C
:101E70003A2FDE2F4001531C3E2F3F2F482F80303A
:101E8000B8008030B7000030B6000030B500FF2F3A
:101E90000030B8008030B7000030B6000030B50028
:101EA000FF2F5508803AB90080303902031D5A2FA0
:101EB00001305402031C5D2F5E2FDE2F7F2F503028
:101EC000A3001530A2000230A100F930A0005B0889
:101ED000A7005A08A6005908A5005808A400933185
:101EE0002623893140012308DB002208DA0021087B
:101EF000D9002008D800F630D407FF30D53D003097
:101F0000400155020A30031954020318882F892F03
:101F10005F2FAA2F4130A3002030A2000030A10083
:101F20000030A0005B08A7005A08A6005908A500C9
:101F30005808A40093312623893140012308DB008F
:101F40002208DA002108D9002008D800FF30D40781
:101F5000FF30D53D54085504031DAF2FB02F8A2FF5
:101F60007F30F3007F30F200FF30F100FF30F000EF
:101F70005B08F7005A08F6005908F5005808F40005
:101F8000AD319D2589310318C62FC72FDE2F4001A3
:101F9000531CCB2FCC2FD52F8030B8008030B7000A
:101FA0000030B6000030B500FF2F0030B8008030A0
:101FB000B7000030B6000030B500FF2F4001531CC1
:101FC000E22FE32FF72F5B08F3005A08F2005908BD
:101FD000F1005808F000A031012089317308400158
:101FE000DB007208DA007108D9007008D8005B08BD
:101FF000B8005A08B7005908B6005808B5000800DC
:102000002F30FD007D084001B1002E08A6002D08EC
:10201000A5003130FD007D08A7000030A931CD2199
:10202000903108004101A7002708AB318923903186
:1020300041016C086D04031D1E281F2824284F3001
:10204000A2000030A30028286D08A3006C08A2009D
:10205000A501A60176282708AB3103239031750826
:102060004101A9007408A800280A031D3B28290A79
:10207000031D3B283C2841282908A1002808A0006E
:10208000D42800302902303003192802031C4928C3
:102090004A28532800302902383003192802031C2B
:1020A0005228532860282908F1002808F000270842
:1020B0004001EF006F08F200AA318E229031932880
:1020C00028084001EF0041012508A03E86000130AC
:1020D000870040016F08810001304101A5070030F1
:1020E000A63D01304201C0070030C13D4101260834
:1020F000803A4001EF0041012308803A40016F021D
:10210000031D8528410122082502031888288928F3
:1021100093280030410126024F3003192502031C89
:10212000922893282B2841012508A03E86000130E3
:1021300087008101A4304001EF006F08E5000830FE
:10214000E6000030E700A030A831FB2090314101CB
:1021500020088600870140016508C03F6608C13F2E
:102160006708C23F6808C33F6908C43F6A08C53FA3
:102170006B08C63F6C08C73F420144084504031D75
:10218000C228C328CF284101250826040319C928DD
:10219000CA28CF280130A0000030A100D428FE308A
:1021A0004101A000FF30A100080041013008860075
:1021B0008701403FF000413FF1003630F200B83077
:1021C000F3000330F4000030F50080311520903129
:1021D00070087104031DED28EE2811294101300813
:1021E000860087010330810741310318810A3108D5
:1021F000860001308700010884000130850002302C
:102200008107003FDC00013FDD005C0886005D08BF
:1022100087004201400881004101B001B1018731CE
:10222000E72F4101300886008701403FF000413F21
:10223000F1003730F200B830F3000230F400003023
:10224000F50080311520903170087104031D292993
:102250002A294B2941013008860087010230810775
:1022600041310318810A31088600013087000108D6
:1022700084000130850002308107003FDC00013F0F
:10228000DD005C0886005D08870042014008C03F11
:102290004108C13F0C294101300886008701403FB9
:1022A000B200413FB30032088400330885001200B9
:1022B0006E3A031D5C295D297D293008860087015F
:1022C0000130810741310318810A3108860001304D
:1022D0008700010884000130850002308107003F3B
:1022E000DC00013FDD005C0886005D0887004201DC
:1022F0004008C03F4108C13F0C29300886008701D3
:10230000403FF000413FF1003B30F200B830F300B5
:102310000230F4000030F500803115209031700853
:102320007104031D94299529C629410130088600AE
:1023300087010230810741310318810A3108860084
:1023400001308700010884000130850002308107D8
:10235000003FDC00013FDD00420140084101B200C6
:10236000420141084101B3000030B31BFF30B4000B
:10237000B5005C0886005D0887003208C03F33085E
:10238000C13F3408C23F3508C33F0C294101300822
:1023900086008701403FF000413FF1003A30F200F3
:1023A000B830F3000330F4000030F5008031152020
:1023B000903170087104031DDE29DF291C2A4101B8
:1023C0003008860087010330810741310318810AF4
:1023D0003108860001308700010884000130850043
:1023E00002308107003FDC00013FDD004201400870
:1023F0004101B200420141084101B3000030B31B6A
:10240000FF30B400B500B600B700B800B9005C08F2
:1024100086005D0887003208C03F3308C13F34089A
:10242000C23F3508C33F3608C43F3708C53F3808A8
:10243000C63F3908C73F0C29410130088600870193
:10244000403FF000413FF1007D30F200B830F30032
:102450000230F4000030F500803115209031700812
:102460007104031D342A352A722A4101300886007E
:1024700087010230810741310318810A3108860043
:102480000130870001088400013085000230810797
:10249000003FDC00013FDD00420140084101B20085
:1024A000420141084101B3000030B31BFF30B400CA
:1024B000B500B600B700B800B9005C0886005D083A
:1024C00087003208C03F3308C13F3408C23F350897
:1024D000C33F3608C43F3708C53F3808C63F3908F0
:1024E000C73F0C294101300886008701403FF000BA
:1024F000413FF1008030F200B830F3000230F400C8
:102500000030F50080311520903170087104031DF2
:102510008A2A8B2ABC2A41013008860087010230B2
:10252000810741310318810A310886000130870094
:10253000010884000130850002308107003FDC0083
:10254000013FDD00420140084101B2004201410863
:102550004101B3000030B31BFF30B400B5005C088C
:1025600086005D0887003208C03F3308C13F340849
:10257000C23F3508C33F0C2941013008860087015E
:10258000403FF000413FF1008330F200B830F300EB
:102590000230F4000030F5008031152090317008D1
:1025A0007104031DD42AD52AF62A41013008860079
:1025B00087010230810741310318810A3108860002
:1025C0000130870001088400013085000230810756
:1025D000003FDC00013FDD005C0886005D088700ED
:1025E00042014008C03F4108C13F0C294101300869
:1025F00086008701403FB200413FB30032088400AB
:10260000330885001200703A031D072B092B803117
:102610009B2830088600870101308107413103186B
:10262000810AD430B2003208A0005308A031BB2088
:10263000903141012108DF002008DE006E086F04A0
:10264000031D242B80317128A531942D40012308CE
:102650008039F9007908A8002335F9007908AE001F
:10266000A21F332B342B352B2E142E080319392B94
:102670003A2B492B2E0A031D3E2B3F2B472B0030B4
:10268000A3000030A2000030A1000030A000A2177B
:10269000512B0030A3000030A2000030A100003018
:1026A000A00027088039F9007908A8062735F90025
:1026B0007908A900A61F5D2B5E2B5F2B2914290822
:1026C0000319632B642B732B290A031D682B692BB9
:1026D000712B0030A7000030A6000030A5000030AC
:1026E000A400A6177B2B0030A7000030A600003006
:1026F000A5000030A400290803197F2B802B852B0F
:102700002E08031D842B852B8E2B0030A300003058
:10271000A2000030A1000030A0007C2D2008F900AC
:102720007908F0002608A931602193317108400131
:10273000B4007008B3003308F900FA01FB01FC0192
:102740007C08AD007B08AC007A08AB007908AA00D1
:102750003408F900FA01FB01FC017C08B2007B0897
:10276000B1007A08B0007908AF002108F9007908B3
:10277000F0002508A9316021933171084001B400AF
:102780007008B3003308F900FA01FB01FC01790875
:10279000AA077A08AB3D7B08AC3D7C08AD3D340808
:1027A000F900FA01FB01FC017908AF077A08B03D96
:1027B0007B08B13D7C08B23D2208F9007908F000A1
:1027C0002408A9316021933171084001B4007008D8
:1027D000B3003308F900FA01FB01FC017908AA07EC
:1027E0007A08AB3D7B08AC3D7C08AD3D3408F90070
:1027F000FA01FB01FC017908AF077A08B03D7B08BC
:10280000B13D7C08B23D0830AA35AB0DAC0DAD0D25
:10281000890B042C2108F9007908F0002408A9315B
:102820006021933171084001B4007008B30033088F
:10283000AA073408AB3D0030AC3DAD3D2008F9009F
:102840007908F0002508A931602193317108400111
:10285000B4007008B3003308AA073408AB3D003059
:10286000AC3DAD3D0830AA35AB0DAC0DAD0D890BBF
:10287000332C2008F9007908F0002408A9316021E0
:10288000933171084001B4007008B3003308AA07FF
:102890003408AB3D0030AC3DAD3D2108F90079086E
:1028A000F0002608A9316021933171084001B4007D
:1028B0007008B3003308AF073408B03D0030B13DB5
:1028C000B23D2208F9007908F0002508A9316021FD
:1028D000933171084001B4007008B3003308AF07AA
:1028E0003408B03D0030B13DB23D2208F90079080E
:1028F000F0002608A9316021933171084001B4002D
:102900007008B3003308F9003408FA00FB01FC0139
:102910000830F935FA0DFB0DFC0D890B892C79086F
:10292000AF077A08B03D7B08B13D7C08B23D2A086C
:10293000F9002B08FA002C08FB002D08FC001830C9
:10294000FC36FB0CFA0CF90C890BA02C7908AF07AC
:102950007A08B03D7B08B13D7C08B23D0830AA350D
:10296000AB0DAC0DAD0D890BAF2C2E082907F9006E
:10297000FA01FA0D7908823EB300FF307A3DB400C7
:10298000D82C0130AF35B00DB10DB20D890BC22C72
:10299000AD1FCB2CCC2CCD2C2F140130AA35AB0D78
:1029A000AC0DAD0D890BCE2CFF30B307FF30B43D1D
:1029B000B11FDB2CDC2CC12CA901AD1FE02CE12CBC
:1029C000FD2CFF302A05F900FF302B05FA00FF30FF
:1029D0002C05FB007F302D05FC007C087B047A046D
:1029E00079040319F42CF52CF82CA901A90AFD2C63
:1029F0002F1CFB2CFC2CFD2CF52C29080319012D78
:102A0000022D2A2D0130AF070030B03D0030B13D1E
:102A10000030B23D321C0D2D0E2D2A2D2F08F9004D
:102A20003008FA003108FB003208FC000130FD00DC
:102A3000FC37FB0CFA0CF90CFD0B182D7C08B200CE
:102A40007B08B1007A08B0007908AF000130B30705
:102A50000030B43D3408803AF90080307902031D1B
:102A6000332DFF303302031C362D372D412D7F309F
:102A70004001B2008030B1000030B0000030AF0043
:102A8000702D40013408803AF90080307902031D2E
:102A90004B2D0130330203184E2D4F2D5A2D00308F
:102AA0004001B2000030B1000030B0000030AF0093
:102AB000A801702D40013308F9007908AE00FF30FD
:102AC000AF05FF30B0057F30B1050030B2052E1CD8
:102AD0006A2D6B2D6C2DB1172E36F9007908B200D6
:102AE0002808F9007908B2043208A3003108A200CE
:102AF0003008A1002F08A00008004001D8005B307A
:102B00008600003087000830B80000301E00B80B87
:102B1000862D5808B8003808E30063080319912D82
:102B2000922DD92F63088600013087000108031D0C
:102B30009A2D9B2D9C2DD92F63088600013087008C
:102B40000108B8003808E400B12D0130B800380899
:102B5000E30763088600013087000108B9003908DF
:102B6000E400CE01CE0A203064060319B82DB92D39
:102B7000CA2D6408F73EB800FF3003180030B900D2
:102B800000303902053003193802031CC82DC92D45
:102B9000CA2DCE014E08B800B9013808C80039085E
:102BA000C90048084904031DD62DD72DA52DD901EC
:102BB000CF01DA012D306406031DDF2DE02DEF2D4E
:102BC000D901D90A0130B8003808E3076308860044
:102BD000013087000108B9003908E400F62D2B30D8
:102BE0006406031DF42DF52DF62DE22D303064061C
:102BF000031DFB2DFC2D3E2E0130B8003808E307E5
:102C000063088600013087000108B9003908E40034
:102C10003108320403190D2E0E2E152E10303106F8
:102C20003204031D142E152E322E7830640603193B
:102C30001A2E1B2E212E58306406031D202E212E05
:102C4000322E1030B1000030B2000130B800380828
:102C5000E30763088600013087000108B9003908DE
:102C6000E4003E2ECF01CF0A31083204031D392E75
:102C70003A2E3E2E0830B1000030B2003108320446
:102C8000031D432E442E482E0A30B1000030B200FE
:102C9000330803194C2E4D2E742E5908031D512E46
:102CA000522E632E7F30D700FF30D600FF30D50084
:102CB000FF30D400FF30D300FF30D200FF30D1000E
:102CC000FF30D0007D2E8030D7000030D60000309D
:102CD000D5000030D4000030D3000030D2000030E6
:102CE000D1000030D0007D2EFF30D000D100D200C6
:102CF000D300D400D500D600D7005B08C0005C0824
:102D0000C1005D08C2005E08C3005F08C40060081F
:102D1000C5006108C6006208C70020306404B8001E
:102D20000030B90038089F3EBA00FF30393DBB0083
:102D300000303B021A3003193A02031CA02EA22EC7
:102D40000130A32E0030BC00BD013C08CA003D0884
:102D5000CB004A084B040319AE2EAF2EC02E6408D8
:102D6000B800B9013808F6003908F700A931832105
:102D700095317608C93E4001BA003A08E400E02ED9
:102D80006408D03EB800FF3003180030B9000030AE
:102D900039020A3003193802031CCF2ED12E01301C
:102DA000D22E0030BA00BB013A08CC003B08CD005F
:102DB0004C084D040319DD2EDE2EB02F3030E40216
:102DC0003208803A803C031DE72E31086402031C60
:102DD000EA2EEB2EEC2EB02F40015A08031DF12EE7
:102DE000F22EA12F6408B800B901BA01BB01BC01E1
:102DF000BD01BE01BF013108A0003208A100890D4C
:102E0000893B8909A200A300A400A500A600A70091
:102E10005B08A8005C08A9005D08AA005E08AB007A
:102E20005F08AC006008AD006108AE006208AF004A
:102E3000AC311924953140012030860000308700E4
:102E4000403FB807413FB93D423FBA3D433FBB3DDC
:102E5000443FBC3D453FBD3D463FBE3D473FBF3D76
:102E60003F08E2003E08E1003D08E0003C08DF00CA
:102E70003B08DE003A08DD003908DC003808DB00DA
:102E800047086202031D5E2F46086102031D5E2F84
:102E900045086002031D5E2F44085F02031D5E2F7C
:102EA00043085E02031D5E2F42085D02031D5E2F74
:102EB00041085C02031D5E2F40085B02031C612F6A
:102EC000622F892F33080319662F672FA12F6208FD
:102ED0005702031D852F61085602031D852F6008C8
:102EE0005502031D852F5F085402031D852F5E08C0
:102EF0005302031D852F5D085202031D852F5C08B8
:102F00005102031D852F5B0850020318882F892F5B
:102F1000A12F5008DB005108DC005208DD005308E7
:102F2000DE005408DF005508E0005608E1005708AD
:102F3000E20022304201C4000030C5004001DA0145
:102F4000DA0A0130B8003808E30763088600013068
:102F500087000108B9003908E400CF01CF0A7D2EAF
:102F600040015A08031DB52FB62FD92F5908031950
:102F7000BA2FBB2FD92FDB09DC09DD09DE09DF09F8
:102F8000E009E109E209DB0A031DD92FDC0A031D70
:102F9000D92FDD0A031DD92FDE0A031DD92FDF0A21
:102FA000031DD92FE00A031DD92FE10A031DD92FD4
:102FB000E20A400130080319DE2FDF2FEF2F4F0800
:102FC000031DE32FE42FE82F5808B8003808E3006A
:102FD0006308B800300886008701380881005B0864
:102FE000B0005C08B1005D08B2005E08B3005F0885
:102FF000B4006008B5006108B6006208B7000800B8
:10300200640080010131890B022800344001A900CB
:1030120041016C086D04031D0F2810281628013089
:103022004001A2000030A3001D286D084001A3004A
:1030320041016C084001A200A701A80184284001B7
:103042002908AB310323983175084001AB0074089D
:10305200AA002A0A031D31282B0A031D312832280F
:1030620037282B08FD002A08FC009728A601A60A8B
:1030720020302A062B0403193F28402850282A080A
:10308200F73EA000FF302B3DA100003021020530A9
:1030920003192002031C4E284F285028A601260897
:1030A200A000A1012008A4002108A50024082504ED
:1030B20003195C285D2869282B08F1002A08F00012
:1030C2002908A0002008F200AA318E229831932804
:1030D2007C087D0403196E286F287B2827087C074B
:1030E200A00028087D3DA100200886002108870055
:1030F2002A0881000130A7070030A83D01304201B3
:10310200C0070030C13D40012808803AA0002308D2
:10311200803A2002031D8F2822082702031C9228CE
:10312200932820280130FC000030FD0008007708B9
:103132008039F80078084001A4007735F800780853
:10314200AB00F61FA528A628A7282B142B080319C5
:10315200AB28AC28BC282B0A031DB028B128B928FB
:103162000030F7000030F6000030F5000030F400C7
:10317200F617F701C4280030F7000030F6000030DF
:10318200F5000030F40073088039F8007808A406CE
:103192007335F8007808AC00F21FD028D128D22865
:1031A2002C142C080319D628D728E7282C0A031D2B
:1031B200DB28DC28E4280030F3000030F200003085
:1031C200F1000030F000F217F301EF280030F300B5
:1031D2000030F2000030F1000030F0007308720499
:1031E20071047004031DF628F72810290030F70037
:1031F2000030F6000030F5000030F4008030F604B4
:103202007F30F7042408F8007808F7047708F30001
:103212007608F2007508F1007408F0004B2A2B08BA
:10322200031D142915291E290030F3000030F20075
:103232000030F1000030F0004B2A2B08F800F901B1
:103242007908FB002C087802FA00031CFB037A08B9
:103252007F3EA50000307B3DA6007708A3007608DC
:10326200A2007508A1007408A0000030F700003029
:10327200F6000030F5000030F4000030AA00003003
:10328200A9000030A8000030A700AC0186292C0854
:1032920003194C294D2967290130A035A10DA20D32
:1032A200A30D890B4E290130F435F50DF60DF70DFE
:1032B200890B5529AA1F5E295F29602974140130E0
:1032C200A735A80DA90DAA0D890B61297308230240
:1032D200031D752972082202031D75297108210236
:1032E200031D752970082002031C78297929822977
:1032F2002A177008A0027108A13B7208A23B73084A
:10330200A33B0130F8007808AC071A302C02031CEA
:103312008B298C294829230822042104200403191B
:1033220093299429AD292714AD290130F435F50DDF
:10333200F60DF70D890B9729AA1FA029A129A22909
:1033420074140130A735A80DA90DAA0D890BA32964
:10335200FF30A507FF30A63DF61FB029B1299629F7
:10336200AC01AA1FB529B629D229FF302705F800DA
:10337200FF302805F900FF302905FA007F302A05C1
:10338200FB007B087A04790478040319C929CA2945
:10339200CD29AC01AC0AD229741CD029D129D22959
:1033A200CA292C080319D629D729FF290130F40785
:1033B2000030F53D0030F63D0030F73D771CE22944
:1033C200E329FF297408F8007508F9007608FA0065
:1033D2007708FB000130FC00FB37FA0CF90CF80C03
:1033E200FC0BED297B08F7007A08F6007908F50056
:1033F2007808F4000130A5070030A63D2608803A7F
:10340200F80080307802031D082AFF302502031CD1
:103412000B2A0C2A192AFF304001A5000030A60011
:103422000030F7000030F6000030F5000030F40004
:1034320040012608803AF80080307802031D232AD2
:10344200013025020318262A272A332A4001A50122
:10345200A6010030F7000030F6000030F500003021
:10346200F400A40140012508F8007808AB002B1CE9
:103472003B2A3C2A3E2AF617422A7F30F800780877
:10348200F6052B36F8007808F7002408F8007808CB
:10349200F704072908000030FC000030FD00530843
:1034A200983107209A317D084101DF007C08DE0057
:1034B20041015F08B1005E08B0008731E72F300894
:1034C20086008701403FF000413FF1002630F200C4
:1034D200B830F3000330F4000030F50080311520DD
:1034E2009A31700871040319772A782A912A4101C6
:1034F200300886008701403FF000413FF1002E3046
:10350200F200B830F3000330F4000030F5008031EF
:1035120015209A3170087104031D902A912AD02A2D
:1035220041013008860087010330810741310318C9
:10353200810ACB30B2003208A0005308A1317B21AE
:103542009A3141012108DF002008DE006E086F0475
:10355200031DAC2AAD2A592A5F08803AB200803096
:103562003202031DB62A01305E02031CB92ABA2AAE
:10357200592A410131088600013087000108840080
:103582000130850002308107003FDC00013FDD0091
:103592005C0886005D0887004B088100592A4101BA
:1035A200300886008701403FF000413FF10027309C
:1035B200F200B830F3000230F4000030F500803140
:1035C20015209A31700871040319E82AE92A022B9E
:1035D2004101300886008701403FF000413FF10081
:1035E2002F30F200B830F3000230F4000030F50062
:1035F200803115209A3170087104031D012B022BB2
:10360200432B410130088600870102308107413196
:103612000318810ACB30B2003208A0005308A1314E
:103622007B219A3141012108DF002008DE006E086B
:103632006F04031D1D2B1E2B592A5F08803AB2000E
:1036420080303202031D272B01305E02031C2A2B1D
:103652002B2B592A410131088600013087000108CD
:1036620084000130850002308107003FDC00013F09
:10367200DD005C0886005D0887004B08C03F4C08EF
:10368200C13F592A4101300886008701403FB200FC
:10369200413FB30032088400330885001200643AC7
:1036A2000319542B552B662B300886008701403FA7
:1036B200B200413FB3003208840033088500120093
:1036C200693A031D652B662BA62B300886008701FD
:1036D2000130810741310318810ACB30B200320830
:1036E200A0005308A1317B219A3141012108DF005A
:1036F2002008DE006E086F04031D802B812B592ADF
:103702005F08803AB20080303202031D8A2B0130FA
:103712005E02031C8D2B8E2B592A41013108860033
:1037220001308700010884000130850002308107E2
:10373200003FDC00013FDD005C0886005D08870079
:103742004B08C03F4C08C13F592A30088600870108
:10375200403FF000413FF1002B30F200B830F3005F
:103762000230F4000030F500803115209A317008E3
:1037720071040319BD2BBE2BD82B410130088600E2
:103782008701403FF000413FF1003330F200B83092
:10379200F3000230F4000030F500803115209A3138
:1037A20070087104031DD62BD82B9C311D2C4101AE
:1037B2003008860087010230810741310318810AEF
:1037C200CB30B2003208A0005308A1317B219A31DC
:1037D20041012108DF002008DE006E086F04031D8E
:1037E200F32BF42B592A5F08803AB2008030320260
:1037F200031DFD2B01305E02031C002C012C592AF3
:10380200410131088600013087000108840001303F
:10381200850002308107003FDC00013FDD005C08CB
:1038220086005D0887004B08C03F4C08C13F4D0829
:10383200C23F4E08C33F592A410130088600870122
:10384200403FF000413FF1002A30F200B830F3006F
:103852000330F4000030F500803115209C317008EF
:1038620071040319352C362C4F2C41013008860087
:103872008701403FF000413FF1003230F200B830A2
:10388200F3000330F4000030F500803115209C3144
:1038920070087104031D4E2C4F2C9D2C41013008E1
:1038A200860087010330810741310318810ACB303A
:1038B200B2003208A0005308A1317B219C314101A2
:1038C2002108DF002008DE006E086F04031D6A2C49
:1038D2006C2C9A31592A5F08803AB2008030320249
:1038E200031D752C01305E02031C782C792C6A2C86
:1038F200410131088600013087000108840001304F
:10390200850002308107003FDC00013FDD005C08DA
:1039120086005D0887004B08C03F4C08C13F4D0838
:10392200C23F4E08C33F4F08C43F5008C53F51082D
:10393200C63F5208C73F6A2C410130088600870102
:10394200403FF000413FF1006230F200B830F30036
:103952000230F4000030F500803115209C317008EF
:1039620071040319B52CB62CCF2C41013008860006
:103972008701403FF000413FF1007430F200B8305F
:10398200F3000230F4000030F500803115209C3144
:1039920070087104031DCE2CCF2C1C2D4101300860
:1039A200860087010230810741310318810ACB303A
:1039B200B2003208A0005308A1317B219C314101A1
:1039C2002108DF002008DE006E086F04031DEA2CC8
:1039D200EB2C6A2C5F08803AB20080303202031D61
:1039E200F42C01305E02031CF72CF82C6A2C4101E6
:1039F200310886000130870001088400013085000B
:103A020002308107003FDC00013FDD005C088600D8
:103A12005D0887004B08C03F4C08C13F4D08C23FBC
:103A22004E08C33F4F08C43F5008C53F5108C63F28
:103A32005208C73F6A2C4101300886008701403F87
:103A4200F000413FF1006530F200B830F30002307F
:103A5200F4000030F500803115209C3170087104AB
:103A62000319342D352D4E2D410130088600870172
:103A7200403FF000413FF1007730F200B830F300F0
:103A82000230F4000030F500803115209C317008BE
:103A92007104031D4D2D4E2D932D410130088600DA
:103AA20087010230810741310318810ACB30B2000D
:103AB2003208A0005308A1317B219C314101210829
:103AC200DF002008DE006E086F04031D692D6A2DD9
:103AD2006A2C5F08803AB20080303202031D732DD7
:103AE20001305E02031C762D772D6A2C41013108CC
:103AF2008600013087000108840001308500023011
:103B02008107003FDC00013FDD005C0886005D08A4
:103B120087004B08C03F4C08C13F4D08C23F4E08CA
:103B2200C33F6A2C4101300886008701403FF00004
:103B3200413FF1006830F200B830F3000230F40087
:103B42000030F500803115209C3170087104031992
:103B5200AB2DAC2DC62D4101300886008701403FB8
:103B6200F000413FF1007A30F200B830F300023049
:103B7200F4000030F500803115209C31700871048A
:103B8200031DC42DC62D9E31072E4101300886002B
:103B920087010230810741310318810ACB30B2001C
:103BA2003208A0005308A1317B219C314101210838
:103BB200DF002008DE006E086F04031DE12DE22DF8
:103BC2006A2C5F08803AB20080303202031DEB2D6E
:103BD20001305E02031CEE2DEF2D6A2C41013108EB
:103BE2008600013087000108840001308500023020
:103BF2008107003FDC00013FDD005C0886005D08B4
:103C020087004B08C03F4C08C13F6A2C613041011C
:103C1200440603190D2E0E2E202E6530440603197C
:103C2200132E142E202E663044060319192E1A2E36
:103C3200202E67304406031D1F2E202E6A2E3008C8
:103C4200860087010130810741310318810AC7309C
:103C5200B20032084001DE0041015308883157208A
:103C62009E3140015F084101DF0040015E084101D1
:103C7200DE006E086F04031D3F2E412E9C316A2C1C
:103C82005F08803AB20080303202031D4A2E0130B2
:103C92005E02031C4D2E4E2E3F2E4101310886003E
:103CA200013087000108840001308500023081075D
:103CB200003FDC00013FDD005C0886005D088700F4
:103CC2004708C03F4808C13F4908C23F4A08C33FAE
:103CD2003F2EC430F0000030F1005F30F200B83007
:103CE200F3000230F4000030F500803115209E31DF
:103CF2007008710403197E2E7F2EBE2EC430F00090
:103D02000030F1006B30F200B830F3000230F40002
:103D12000030F500803115209E31700871040319BE
:103D2200932E942EBE2EC430F0000030F1006E307F
:103D3200F200B830F3000230F4000030F5008031B8
:103D420015209E31700871040319A82EA92EBE2ECB
:103D5200C430F0000030F1007130F200B830F300EE
:103D62000230F4000030F500803115209E317008D9
:103D72007104031DBD2EBE2E4D2FC7304101B2006E
:103D820032084001DE0041015308883157209E313C
:103D920040015F084101DF0040015E084101DE0091
:103DA2006E086F04031DD62ED72E432F5F08803A6C
:103DB200B20080303202031DE02E01305E02031C8D
:103DC200E32EE42E432F4101300886008701403F55
:103DD200B200413FB3003208840033088500000876
:103DE200BF3EB400FF3003180030B500003035028A
:103DF2001A3003193402031CFF2E012F0130022F47
:103E02000030B600B7013608C0003708C1004008CC
:103E1200410403190D2F0E2F292F3108860001307E
:103E22008700010884000130850002308107003FCD
:103E3200DC00013FDD005C0886005D088700470862
:103E4200C03F4808C13F4908C23F4A08C33F432F09
:103E520031088600013087000108840001308500A6
:103E620002308107003FDC00013FDD005C08860074
:103E72005D0887004708C03F4808C13F4908C23F64
:103E82004A08C33F4101300886008701023081079A
:103E920041310318810A3F2E410130088600870113
:103EA200403FF000413FF1003E30F200B830F300F5
:103EB2000330F4000030F500803115209E31700887
:103EC2007104031D652F662FA52F4101300886005E
:103ED20087010330810741310318810AD430B200CF
:103EE2003208A0005308903112209E31410121086E
:103EF200DF002008DE006E086F04031D812F822F71
:103F02003F2E5F08803AB20080303202031D8B2FB1
:103F120001305E02031C8E2F8F2F3F2E410131088C
:103F220086000130870001088400013085000230DC
:103F32008107003FDC00013FDD005C0886005D0870
:103F42008700540881003F2E410130088600870116
:103F5200403FF000413FF1003F30F200B830F30043
:103F62000230F4000030F500803115209E317008D7
:103F72007104031DBD2FBF2FA3312F2B4101300828
:103F8200860087010230810741310318810AD4304B
:103F9200B2003208A0005308903112209E31410134
:103FA2002108DF002008DE006E086F04031DDA2FEF
:103FB200DB2F3F2E5F08803AB20080303202031DB1
:103FC200E42F01305E02031CE72FE82F3F2E410150
:103FD2003108860001308700010884000130850025
:103FE20002308107003FDC00013FDD005C088600F3
:0E3FF2005D0887005408C03F5508C13F3F2EB0
:1040020073087204710470040319082809280B2824
:104012008030F30608004001A701A801A001A10118
:1040220016280130F6070030F73DA601A60A7608E9
:104032008400770885001200203A031921282228DB
:10404200372876088400770885000008F73EF800D4
:10405200FF3003180030F9000030790205300319EF
:104062007802031C352836283728A6012608F800CE
:10407200F9017808A2007908A30022082304031D8D
:104082004328442812284E280130A0000030A10005
:104092000130F6070030F73D822876088400770861
:1040A20085000008F800F9017908003A03195A2836
:1040B200822878082B3A03194928063A0319452819
:1040C200822876088400770885000008F80028080E
:1040D200F1002708F0000A30F2000030F300A831A6
:1040E2009B20A0317108FA0078087002F900031CC5
:1040F200FA037908303E4001A70000307A3DA8005B
:10410200492876088400770885000008D03EF80028
:10411200FF3003180030F900003079020A30031929
:104122007802031C95289728013098280030FA005D
:10413200FB017A08A4007B08A50024082504031DBE
:10414200A328A428622820082104031DA928AA283C
:10415200B6282709F8002809F900F80A0319F90A0C
:104162007808F6007908F700BA282808F700270827
:10417200F60008004101A9002908AB318923A031CA
:1041820041016C086D04031DC728C828CD284F3093
:10419200A2000030A300D1286D08A3006C08A20081
:1041A200A701A8011C292908AB310323A0317508F6
:1041B2004101A6007408A500250A031DE428260A69
:1041C200031DE428E528EA282608A1002508A00006
:1041D2007A292608F1002508F000A931FB21A03137
:1041E20070087104031DF628F728052941012608E5
:1041F200F1002508F00029084001EF006F08F200E5
:10420200AA318E22A0313929410125084001EF004F
:1042120041012708A03E86000130870040016F0857
:10422200810001304101A7070030A83D0130420161
:10423200C0070030C13D41012808803A4001EF002B
:1042420041012308803A40016F02031D2B294101DD
:104252002208270203182E292F293929003041016B
:1042620028024F3003192702031C38293929D42880
:1042720041012708A03E8600013087008101A43059
:104282004001EF006F08E5001030E6000030E70063
:10429200A030A831FB20A03141012008860087010F
:1042A20040016508C03F6608C13F6708C23F680811
:1042B200C33F6908C43F6A08C53F6B08C63F6C0824
:1042C200C73F420144084504031D6829692975292D
:1042D20041012708280403196F2970297529013023
:1042E200A0000030A1007A29FE304101A000FF3079
:1042F200A10008004101AB002B08AB318923A13199
:1043020041016C086D04031D872988298D294F30CE
:10431200A6000030A70091296D08A7006C08A6002E
:10432200AC01AD01FA292B08AB310323A131750889
:104332004101AF007408AE002E0A031DA4292F0A02
:10434200031DA429A529AA292F08A1002E08A0002F
:10435200542A2C082D04031DAF29B029D1292B3052
:104362002E062F040319B629B729BE292D302E0691
:104372002F04031DBD29BE29D1292E08A2002C0815
:10438200A03E860001308700220881000130AC0780
:104392000030AD3D01304201C0070030C13DFA2975
:1043A2002E08D03EA200FF302F3DA3000030230292
:1043B2000A3003192202031CDF29E1290130E22914
:1043C2000030A400A5012408A8002508A900280897
:1043D2002904031DED29EE29BE292F08F1002E081C
:1043E200F0002B08A2002208F200AA318E22A1318D
:1043F200132A41012D08803AA2002708803A22029E
:10440200031D052A26082C020318082A092A132A42
:10441200003041012D024F3003192C02031C122AD5
:10442200132A942941012C08A03E860001308700FE
:104432008101AA30A20022084001E5000A30E6000C
:104442000030E700A030A9313E21A131410120080E
:104452008600870140016508C03F6608C13F6708C2
:10446200C23F6808C33F6908C43F6A08C53F6B087A
:10447200C63F6C08C73F420144084504031D422A57
:10448200432A4F2A41012C082D040319492A4A2A9A
:104492004F2A0130A0000030A100542AFE30410111
:1044A200A000FF30A10008004101AB002B08AB3196
:1044B2008923A23141016C086D04031D612A622A1D
:1044C200672A4F30A6000030A7006B2A6D08A700AC
:1044D2006C08A600AC01AD01D42A2B08AB31032332
:1044E200A23175084101AF007408AE002E0A031D07
:1044F2007E2A2F0A031D7E2A7F2A842A2F08A100E2
:104502002E08A0002E2B2C082D04031D892A8A2A8E
:10451200AB2A2B302E062F040319902A912A982AAF
:104522002D302E062F04031D972A982AAB2A2E0817
:10453200A2002C08A03E86000130870022088100DC
:104542000130AC070030AD3D01304201C007003000
:10455200C13DD42A2E08D03EA200FF302F3DA30039
:10456200003023020A3003192202031CB92ABB2A93
:104572000130BC2A0030A400A5012408A8002508A7
:10458200A90028082904031DC72AC82A982A2F0827
:10459200F1002E08F0002B08A2002208F200AA3136
:1045A2008E22A231ED2A41012D08803AA20027086D
:1045B200803A2202031DDF2A26082C020318E22A6F
:1045C200E32AED2A003041012D024F3003192C025B
:1045D200031CEC2AED2A6E2A41012C08A03E86001B
:1045E200013087008101AA30A20022084001E500C3
:1045F2000A30E6000030E700A030A831FB20A231EB
:10460200410120088600870140016508C03F660815
:10461200C13F6708C23F6808C33F6908C43F6A08D0
:10462200C53F6B08C63F6C08C73F420144084504BA
:10463200031D1C2B1D2B292B41012C082D040319B2
:10464200232B242B292B0130A0000030A1002E2B7C
:10465200FE304101A000FF30A100080041013008F6
:1046620086008701403FB200413FB3003208840018
:104672003308850012006F3A031D402B412B822B19
:104682003008860087010130810741310318810A11
:10469200D430B2003208A000530890311220A33166
:1046A20041012108DF002008DE006E086F04031DAF
:1046B2005B2B5D2B9E313F2E5F08803AB20080302B
:1046C2003202031D662B01305E02031C692B6A2B2A
:1046D2005B2B41013108860001308700010884000C
:1046E2000130850002308107003FDC00013FDD0020
:1046F2005C0886005D0887005408C03F5508C13F2A
:104702005B2B300886008701403FF000413FF100FB
:104712004330F200B830F3000230F4000030F5000C
:1047220080311520A33170087104031D992B9A2B37
:10473200DF2B4101300886008701023081074131B9
:104742000318810AD430B2003208A0005308903115
:104752001220A33141012108DF002008DE006E088B
:104762006F04031DB52BB62B5B2B5F08803AB2009A
:1047720080303202031DBF2B01305E02031CC22BAC
:10478200C32B5B2B410131088600013087000108F1
:1047920084000130850002308107003FDC00013FC8
:1047A200DD005C0886005D0887005408C03F55089C
:1047B200C13F5608C23F5708C33F5B2B4101300837
:1047C20086008701403FF000413FF1004230F20095
:1047D200B830F3000330F4000030F50080311520CA
:1047E200A33170087104031DF72BF92BA531602D3D
:1047F20041013008860087010330810741310318E7
:10480200810AD430B2003208A0005308903112203D
:10481200A33141012108DF002008DE006E086F0489
:10482200031D142C152C5B2B5F08803AB2008030DC
:104832003202031D1E2C01305E02031C212C222C8D
:104842005B2B41013108860001308700010884009A
:104852000130850002308107003FDC00013FDD00AE
:104862005C0886005D0887005408C03F5508C13FB8
:104872005608C23F5708C33F5808C43F5908C53FAE
:104882005A08C63F5B08C73F5B2B4101D300300883
:1048920086008701403FB200413FB30032088400E6
:1048A200330885001200253A031D582C5A2C8731F3
:1048B200A82F300886008701013081074131031893
:1048C200810AEC01ED01EE01EF013008860087015B
:1048D200403FB200413FB3003208840033088500F4
:1048E20012002A3A031D762C772C832C300886007E
:1048F20087010130810741310318810A0130EE003E
:104902000030EF00300886008701403FF600413F4B
:10491200F700A0310C20A43177084101ED007608A0
:10492200EC009B2C30088600870101308107413161
:104932000318810A300886008701403FB200413FD8
:10494200B30032088400330885000008D03EB4006A
:10495200FF3003180030B500003035020A30031969
:104962003402031CB52CB72C0130B82C0030B60031
:10497200B7013608BE003708BF003E083F04031DDA
:10498200C32CC42C932C300886008701403FB20010
:10499200413FB30032088400330885000008B400A8
:1049A200B5013408F6003508F700A931A821A43171
:1049B20076084101B6003608C40044080319E22C07
:1049C200E32C222D300886008701403FB200413F90
:1049D200B30001303207840033080318330A85001C
:1049E2000008B400B5013408F6003508F700A93113
:1049F200A821A43176084101B6003608C500450851
:104A02000319042D052D222D300886008701403F11
:104A1200B200413FB300023032078400330803186A
:104A2200330A85000008B400B5013408F6003508E1
:104A3200F700A931A821A43176084101B600360851
:104A4200C600300886008701403FB200413FB300F4
:104A520032088400330885001200633A031D322DA8
:104A6200342D9A31602A300886008701013081078F
:104A720041310318810A6E086F04031D412D432D35
:104A82009A314C2A310886000130870001088400DF
:104A92000130850002308107003FDC00013FDD006C
:104AA2005D08FD005C08FC00530898310720A43122
:104AB2007D084101DF007C08DE009A31592A41015C
:104AC200300886008701403FF000413FF100863008
:104AD200F200B830F3000230F4000030F50080310B
:104AE2001520A53170087104031D782D792DC72D6D
:104AF20041013008860087010230810741310318E5
:104B0200810AD430B2003208A0005308903112203A
:104B1200A53141012108DF002008DE006E086F0484
:104B2200031D942D962DA3315B2B5F08803AB200B2
:104B320080303202031D9F2D01305E02031CA22D24
:104B4200A32D942D41013108860001308700010810
:104B520084000130850002308107003FDC00013F04
:104B6200DD005C0886005D0887005408C03F5508D8
:104B7200C13F5608C23F5708C33F5808C43F5908AF
:104B8200C53F5A08C63F5B08C73F942D4101300814
:104B920086008701403FF000413FF1008930F2007A
:104BA200B830F3000230F4000030F50080311520F7
:104BB200A53170087104031DDF2DE02D252E410162
:104BC2003008860087010230810741310318810ACB
:104BD200D430B2003208A000530890311220A5311F
:104BE20041012108DF002008DE006E086F04031D6A
:104BF200FB2DFC2D942D5F08803AB20080303202EA
:104C0200031D052E01305E02031C082E092E942D71
:104C1200410131088600013087000108840001301B
:104C2200850002308107003FDC00013FDD005C08A7
:104C320086005D0887005408C03F5508C13F5608EA
:104C4200C23F5708C33F942D4101300886008701B7
:104C5200403FF000413FF1008C30F200B830F300E9
:104C62000230F4000030F50080311520A5317008C3
:104C72007104031D3D2E3F2E9031D528410130088D
:104C8200860087010230810741310318810AD4303E
:104C9200B2003208A000530890311220A531410120
:104CA2002108DF002008DE006E086F04031D5A2E63
:104CB2005B2E942D5F08803AB20080303202031DD1
:104CC200642E01305E02031C672E682E942D410172
:104CD2003108860001308700010884000130850018
:104CE20002308107003FDC00013FDD005C088600E6
:104CF2005D0887005408C03F5508C13F942D40010C
:104D0200DD0035080319862E872E932E5D08B90023
:104D120035088600870139088100932E0130B900D9
:104D22003908DD07D101D10A5D088600013087000C
:104D32002030010603199E2EA02E0130A12E003034
:104D4200B900BA013908D6003A08D7005608570404
:104D5200031DAC2EAD2EC82E5D08860001308700E3
:104D62000108B900BA013908D6003A08D700560836
:104D7200F73EBB00FF30573DBC0000303C0205301F
:104D820003193B02031CC62EC72EC82ED10151089F
:104D9200B900BA013908C1003A08C2004108420408
:104DA200031DD42ED52E8F2ED3012D305606570437
:104DB200031DDC2EDD2EE42ED301D30A0130B9000F
:104DC2003908DD07EC2E2B3056065704031DEA2E58
:104DD200EB2EEC2EDF2EDC01F22E0130B900390869
:104DE200DC075C085D07B9003908860001308700DE
:104DF20001080319FD2EFE2E2A2F5C08093E8400AD
:104E0200B8300318013E85000008B9005C085D0750
:104E1200BA003A08860001308700010839060319F2
:104E2200132F142FEE2E5C08003E8400B8300318B6
:104E3200013E85000008B9005C085D07BA003A0827
:104E4200860001308700010839060319292F2A2F0D
:104E5200EE2E03305C02031C2F2F302F512F7F3098
:104E6200DB008030DA000030D9000030D80035088D
:104E720003193C2F3E2F8F31DE2F08305C060319B9
:104E8200432F442F482F0330B9003908DC005D0856
:104E92005C07B900350886008701390881003C2F7C
:104EA200DC01572F0130B9003908DC075C085D07C7
:104EB200B900390886000130870001080319622F02
:104EC200632F8F2F5C081A3E8400B8300318013E0E
:104ED20085000008B9005C085D07BA003A08860040
:104EE20001308700010839060319782F792F532FD3
:104EF2005C08123E8400B8300318013E85000008A9
:104F0200B9005C085D07BA003A08860001308700E4
:104F12000108390603198E2F8F2F532F03305C0699
:104F2200031D942F952FF12F1530F000B030F100B2
:104F320080310420A63173084001DB007208DA00D8
:104F42007108D9007008D80035080319A92FAA2FB3
:104F52003C2F5C08B9003908DD075D088600013086
:104F6200870028300106031DB72FB82FE92FDC0177
:104F7200BE2F0130B9003908DC075C085D07B900B3
:104F8200390886000130870001080319C92FCA2F8A
:104F9200D72F5C085D07B900390886000130870009
:104FA20029300106031DD62FD72FBA2F5C085D07C3
:104FB200B900390886000130870029300106031D37
:104FC200E32FE42FE92F5C08013EB9003908DD0721
:104FD2005D08B900350886008701390881003C2F39
:104FE200D601D7010030DB000030DA000030D900F2
:0E4FF2000030D800D401D501DC0189318029BE
:10500200F1007108B731C027A83108007C01910175
:105012000930920004309300043094001A30950055
:1050220002309600083097002030980080309900B6
:105032008030900008007008D03EF200FF30713DD1
:10504200F300003073020A3003197202031C2A288B
:105052002C2801302D280030F400F5017408F000EE
:105062007508F100080070089F3EF200FF30713DA4
:10507200F300003073021A3003197202031C422833
:105082004428013045280030F400F5017408F0008E
:105092007508F10008007008BF3EF200FF30713D54
:1050A200F300003073021A3003197202031C5A28EB
:1050B2005C2801305D280030F400F5017408F0002E
:1050C2007508F100080088310020A831AB31442373
:1050D200A831B731B727A831A8310720A831B73195
:1050E200D427A831B731F027A831A9311C21A83122
:1050F200B7319F27A831080020307004F200003039
:105102007104F30072089F3EF400FF30733DF50016
:10511200003075021A3003197402031C9128932877
:10512200013094280030F600F7017608F000770885
:10513200F1000800F401F501701CA028A128A5289F
:105142007208F4077308F53D0130F235F30D890B4F
:10515200A6280130F136F00C890BAB2870087104D7
:10516200031DB428B5289D287508F1007408F000C5
:1051720008004201D70053304101EA006A084201A7
:10518200DD0057084101EA006A084201D800D9014E
:10519200DA0152084101E100420151084101E000F7
:1051A2005D30EA006A08E2005830AB31D023A83102
:1051B2000800F401F40A2030700671040319E22891
:1051C200E328F3287008F73EF200FF30713DF30048
:1051D20000307302053003197202031CF128F22811
:1051E200F328F4017408F200F3017208F000730866
:1051F200F10008004001EE006508ED006D08B00006
:105202006708B2006608B100B3016E0895317D25CA
:10521200A83140013008E5003108E6003208E70015
:105222003308E8003408E9003508EA003608EB00E4
:105232003708EC000800083042019F0090309D00C2
:1052420024309E008A309B009C010030F000003028
:10525200F100B731AB27A9310030F0000030F10086
:10526200B731B127A9310030F0000030F100B73179
:10527200A527A9314201D00108004001EE006508CE
:10528200ED006D08B0006708B2006608B100B30116
:10529200B30A6E0895317D25A93140013008E50039
:1052A2003108E6003208E7003308E8003408E90074
:1052B2003508EA003608EB003708EC000800F80071
:1052C200F401F5017008F200F3017208F6007308A8
:1052D200F700781C6D296E2972297608F407770881
:1052E200F53D0130F635F70D890B73290310F80CE3
:1052F2007808031D7D297E296A297508F100740842
:10530200F000080076089F3EF800FF30773DF90074
:10531200003079021A3003197802031C912993296B
:10532200013094290030FA00FB017A08FC007B0866
:10533200FD007C087D0403199F29A029A7295F305D
:105342007605F60000307705F700A72908007608F1
:10535200BF3EF800FF30773DF900003079021A3085
:1053620003197802031CB629B8290130B929003083
:10537200FA00FB017A08FC007B08FD007C087D0432
:105382000319C429C529CC2920307604F60000303F
:105392007704F700CC2908004001AA002608AC00D7
:1053A2002508AB004201C601C701E8292B30A8003D
:1053B2002808FA002708A9002908FB002A08AD31AD
:1053C2002125A9317A084201C6077B08C73D400161
:1053D2002B0884002C0885001200031DF129F229F4
:1053E200D729420147084001A60042014608400170
:1053F200A5000800F601F60A7008D03EF200FF3060
:10540200713DF300003073020A3003197202031C6B
:105412000B2A0C2A222A20307004F2000030710478
:10542200F30072089F3EF400FF30733DF500003038
:105432007502063003197402031C202A212A222A2B
:10544200F6017608F200F3017208F0007308F10029
:105452000800F500F301F401B731E127AA31F200A7
:105462007208F60030307602031C382A392A512A93
:105472003A307602031C3E2A3F2A402A512A7608F5
:10548200F200750886000230870072088100013040
:10549200F2007208F5070130F3070030F43D2D2ABF
:1054A200750886000230870081017408F1007308D4
:1054B200F00008000030FB000030FA000030F90074
:1054C2000030F800701C662A672A6F2A7408F807F1
:1054D2007508F93D7608FA3D7708FB3D0130F43551
:1054E200F50DF60DF70D890B702A0130F336F20C2B
:1054F200F10CF00C890B772A7308720471047004A2
:10550200031D842A852A632A7B08F3007A08F200A5
:105512007908F1007808F00008007208031D922A49
:10552200932A9B2A7008F30073084201CF00CE0130
:10553200CE0AC32A720A86000130870016000104CF
:10554200031DA42AA52AA62AC32A720A86000130AC
:105552008700FF3081074131FF30813D7F31700884
:10556200F3007208860001308700720A840001305D
:10557200850000080107F4007408860002308700E5
:1055820073088100080074080319C82AC92ACE2AA0
:105592007408031DCD2ACE2AD32A7208A83101200D
:1055A200AA31022B7408033E86008701160001040B
:1055B2000319DC2ADD2AFA2A7408033E86008701D1
:1055C200403FF500413FF600740A86008701403FE4
:1055D200F700413FF8007808803AF9007608803AEF
:1055E2007902031DF62A750877020318F92AFA2AA6
:1055F200022B740A860087010130810741310318AA
:10560200810A0800FB007B08031D082B092B202BB5
:1056120042014E0803190E2B0F2B182B4F08F600D0
:10562200F7017608F9007708FA00CE013F2BB7316F
:10563200CA27AB317108FA007008F9003F2B7B08CA
:105642008600013087007B0A840001308500000853
:105652000107F60076088600023087000108F7008D
:10566200F8017708F9007808FA007B0A8600013011
:1056720087000130810741310318810A7A08F50059
:105682007908F400080040019A01990196019701F6
:105692009801073095007D309100FF309200BF30B5
:1056A2009300FF309400FF307E01D9003F30CE00DE
:1056B200FF30C3000730E4007830B800DA01E501BA
:1056C200C401B901CF01E601BA01C501D001DB0174
:1056D200FF30BB00FF30C600FF30D100FF30DC00DE
:1056E2000730E700FF30BC00FF30C700FF30D200B8
:1056F200FF30DD000F30E8000230970017307D01E7
:10570200CB00BB0119307E0191001030A6000800C9
:105712004001A300BE2BA201A20A203024062504C8
:105722000319942B952BA52B2408F73EFC00FF3080
:10573200253DFD0000307D02053003197C02031C6B
:10574200A32BA42BA52BA2012208FC00FD017C089F
:10575200A0007D08A10020082104031DB12BB22B5B
:10576200BE2B2508F1002408F0002308FC007C0869
:10577200F200AA318E22AB31CF2B2308AB310323A7
:10578200AB3175084001A5007408A400240A031D6A
:10579200CE2B250A031DCE2BCF2B8C2B08004101CB
:1057A200E5006108E9006008E8004201C001C101AA
:1057B200C201C301F92BE830E3006308B0006208BC
:1057C200E4006408B1006508A4314624AB3141010C
:1057D2003108E7003008E600E71FF02BF12BF22B2F
:1057E200032C66084201C207410167084201C33D1A
:1057F200410168088400690885001200031D022C1B
:10580200032CDC2B660A031D0A2C670A031D0A2CD3
:105812000B2C102C6708E1006608E000182C4201EE
:1058220043084101E100420142084101E000080051
:1058320071308600003087000830F00000301E0012
:10584200F00B202C4001201C272C282C382C280857
:10585200F1072908F23D2A08F33D2B08F43D2C08F4
:10586200F53D2D08F63D2E08F73D2F08F83DA835E9
:10587200A90DAA0DAB0DAC0DAD0DAE0DAF0DA7363A
:10588200A60CA50CA40CA30CA20CA10CA00C200825
:105892002104220423042404250426042704031DCE
:1058A200532C542C232C7108A0007208A1007308F9
:1058B200A2007408A3007508A4007608A500770862
:1058C200A6007808A700080000307005F800003034
:1058D2007105F90080307205FA007F307305FB0014
:1058E2007B087A0479047804031D782C792C812CA6
:1058F2000030F3000030F2000030F1000030F00020
:1059020000307405F80000307505F9008030760526
:10591200FA007F307705FB007B087A04790478046B
:10592200031D942C952C9D2C0030F7000030F600BE
:105932000030F5000030F40077087306031DAB2C2D
:1059420076087206031DAB2C75087106031DAB2C7D
:10595200740870060319AE2CAF2CB12C0310B22CB4
:10596200031408004001AA0033302A02031CBA2C97
:10597200BB2CE32C4B01121680307C0199004001B4
:105982002A08F900FA01FB01FC017C08F3007B08FC
:10599200F2007A08F1007908F0000030F7001930BF
:1059A200F6000030F5000030F400AE312726AC31AD
:1059B20073084001A9007208A8007108A7007008C6
:1059C200A6000A2D4B01121240307C01990064306E
:1059D200F90040012A087902F000F101031CF103E9
:1059E200F201F11BF2037208F3000030F7001930E4
:1059F200F6000030F5000030F400AE312726AC315D
:105A020073084001A9007208A8007108A700700875
:105A1200A6002608F9002708FA002808FB00290832
:105A2200FC000830FC36FB0CFA0CF90C890B132D28
:105A320079084B019000400126084B018F000800B5
:105A4200FC007A0886008701403F4001A000413FE8
:105A5200A10020088400210885001200253A031DB8
:105A6200332D342D7A2D7A08860087010130810783
:105A720041310318810A4201C801C901CC01CD019B
:105A8200FF30CA00FF30CB007A0886008701403F12
:105A92004001A000413FA1002008840021088500A8
:105AA2001200253A031D562D572D6F2D7A088600B8
:105AB20087010130810741310318810A2530F20044
:105AC2000030F3007C08A0002008F400AA31C422B0
:105AD200AD310130FA000030FB009C2D7A088600BF
