:020000040000FA
:0400000080311B2808
:100008007E1480310B1F09280A2819284E011B1F4E
:100018000E280F281928111F122813281928803193
:10002800DC2080318131202180317E10090080312F
:100038001D287E1040018031F52840019A01990160
:1000480096019701980107309500CF309100DF3075
:1000580092009301FF309400FF307E01D900CE0159
:10006800DF30C3000730E4004C30B800DA01E501A6
:10007800C401B901CF01E601BA01C501D001DB0114
:10008800FF30BB00FF30C600FF30D100FF30DC007E
:100098000730E700FF30BC00FF30C700FF30D20058
:1000A800FF30DD000F30E800013094007D01BB0116
:1000B80003307E019D000230950001307D01BC00B7
:1000C800080081310921803180312120803181313E
:1000D800002180318031992080318031CF208031DA
:1000E8008031C12080318031812080318031AE2043
:1000F80080318031E9208031080001307C01A50081
:100108000130A6002130A7002330A8002130A90023
:100118000230AA000830AB002030AC00AD019530A9
:10012800A4004E0111131B1708000C307C0191002C
:100138001A3092002130930022309400223095002A
:1001480002309600083097002030980099018230DC
:10015800900008000A307C019B0001309C009D0142
:1001680023309E0001309F000230A000A101203002
:10017800A200A30185309A0008004B019201930167
:100188008E018D018C01063091006630900066303A
:100198008F00921708007C01AF01B001B101B201D4
:1001A800B301B401B501B601B7018230AE00080051
:1001B80081311121803140019800003081311821AE
:1001C80080317C01AF17AF130800C03040019F0099
:1001D800FF309D009C014E018C12803040019E0032
:1001E80008008031652080318B170B1781311D2164
:1001F8008031FD2880311B28623051018D008F012C
:10020800910102309300920108004F019601970175
:10021800980199019A019B01080040011C08F0000F
:100228007008F10071080800F000700840019C0097
:0E023800080040019E1708004E011113080037
:020000040001F9
:0A000E00EC3FFF3F9F3FFF3FFF3F25
:00000001FF
