:100000000C944A000C94D1020C94D1020C94D102AD
:100010000C94D1020C94A8020C94D1020C94B70257
:100020000C94D1020C94D1020C94D1020C94D10204
:100030000C94D1020C94D1020C94D1020C94D102F4
:100040000C94D1020C94D1020C94D1020C94D102E4
:100050000C94D1020C94D1020C94D1020C94D102D4
:100060000C94D1020C94D1020C94D1020C94D102C4
:100070000C94D1020C94D1020C94D1023C293C394D
:100080000005C23C153C290005AE3C393C3A803C99
:10009000003C158011241FBECFEFCDBFDFE3DEBFD4
:1000A000ECE7F0E040E017C0B591A59135912591BE
:1000B000059107FD0CC095918591EF01F92FE82F6F
:1000C00005900D92A217B307D9F7FE0104C01D9247
:1000D000A217B307E1F7E439F40731F70E941A02D7
:0800E0000C947200F894FFCFAC
:1000E8000E94F50180B1826080B981B18D7F81B9AC
:1000F800E1E1F4E080818860808380818F7780836C
:100108008081887F808380B1846080B981B18B7F52
:1001180081B9E2E1F4E080818860808380818F7713
:1001280080838081887F808384B1846084B985B12D
:10013800846085B984B1886084B985B1886085B9DF
:1001480084B1816084B985B18E7F85B9E0E3F4E03C
:1001580080818860808380818F7780838081887F99
:10016800808384B1826084B985B18D7F85B9E1E3EC
:10017800F4E080818860808380818F7780838081AC
:10018800887F808388B18E7F88B989B18E7F89B94D
:10019800E0E5F4E080818860808380818F778083C8
:1001A8008081887F8160808388B18D7F88B989B19B
:1001B8008D7F89B9E1E5F4E0808188608083808162
:1001C8008F7780838081887F8160808388B18B7FEF
:1001D80088B989B18B7F89B9E2E5F4E080818860CC
:1001E800808380818F7780838081887F816080830E
:1001F80088B1877F88B989B1877F89B9E3E5F4E059
:1002080080818860808380818F7780838081887FE8
:10021800816080830E94D5020E9498020E94CB02CE
:0A0228000E94C6020E94D30208954E
:10023200E091143CF0E0E75DF34C80818A3251F4A6
:1002420084E1E0E0FCE3DF011D928A95E9F7109278
:10025200393C0895E091143CF0E0E75DF34C808175
:10026200833239F560E07CE385E19CE30E948702FA
:10027200892B59F485B18B7F85B984EF91E00E9477
:10028200CB0185B1846085B90AC085B1877F85B904
:1002920084EF91E00E94CB0185B1886085B984E149
:1002A200E0E0FCE3DF011D928A95E9F71092393C08
:1002B20008958091393C843180F4282F30E0E09118
:1002C200143CF0E0E75DF34C9081F901E050F44C0E
:1002D20090838F5F8093393C08951092393C85B1A9
:1002E200877F85B98AEF90E00E94CB0185B1886053
:1002F20085B98AEF90E00E94CB0185B1877F85B9ED
:100302008AEF90E00E94CB0185B1886085B984E1D3
:0E031200E0E0FCE3DF011D928A95E9F7089513
:100320001092143C539903C01092143C11C0509980
:1003300004C081E08093143C0BC0519904C082E05A
:100340008093143C05C0529903C083E08093143C11
:100350000E945602309905C08091143C8093143C51
:1003600017C0319906C08091143C8C5F8093143C77
:100370000FC0129906C08091143C885F8093143C92
:1003800007C0119905C08091143C845F8093143C90
:060390000E943D020895E9
:10039600CF93DF9300D0CDB7DEB7AC0119821A82B6
:1003A60081E0809352010FC0E0E5F0E0908191601A
:1003B6009083889590819E7F908329813A812F5FD3
:1003C6003F4F29833A8329813A812417350761F7FC
:1003D600E0E4F1E082898E7F828B0F900F90DF91AF
:0403E600CF91089516
:1003EA0080E008C0E82FF0E0E05FFB4F9081986062
:1003FA0090838F5F8830B0F380E008C0E82FF0E088
:10040A00E05DFB4F9081986090838F5F8830B0F3F6
:10041A0080E008C0E82FF0E0E05BFB4F9081986035
:0A042A0090838F5F8830B0F30895CF
:100434000E94CE02E0E5F0E08081816080838895AF
:1004440080818E7F80830E946F02E09BF3CF0E94A5
:1004540090010E94190109C0E0E5F0E0808181600B
:100464008083889580818E7F8083809148048F70FB
:060474008F3091F7DFCF8D
:10047A0084B1816084B984B1826084B980B18460B6
:10048A0080B980B1826080B988B1877F88B988B124
:10049A008E7F88B988B18D7F88B988B18B7F88B9FA
:0204AA000895B3
:1004AC0084B18E7F84B984B18D7F84B980B18B7F08
:1004BC0080B980B18D7F80B988B1886088B988B1E6
:1004CC00816088B988B1826088B988B1846088B944
:0204DC00089581
:1004DE00CF938CB381608CBBC0E00EC0809148047A
:1004EE008F708F3021F48CB38E7F8CBB07C082E06F
:1004FE0090E00E94CB01CF5FCA3080F3CF91089578
:10050E00DC01FB0104C0992349F0119631969C91B0
:10051E0080819817C1F381E090E0089580E090E02B
:02052E0008952E
:10053000809141018111FCCF81E080934001809145
:1005400051018111FCCF81E28093500180E0089538
:100550001F920F920FB60F9211248F938FE080930A
:0E05600049048F910F900FBE0F901F901895B9
:10056E001F920F920FB60F9211248F9381E08093FA
:0E057E0053018F910F900FBE0F901F90189594
:0A058C0084E08093500080E00895A1
:06059600789480E0089556
:06059C000E9474000895A6
:0405A2000C940000B5
:0405A60080E0089554
:0405AA0080E0089550
:1005AE0031323341424300000000000000000000E1
:0405BE000000000039
:1005C2003132334134353642373839432A302344C5
:00000001FF
