:020000040000FA
:04000000803118280B
:100008007E1480310B1F09280A2816284E01181C57
:100018000E280F2816280E1C12281328162880319F
:10002800D62080317E10090080311A287E104001C8
:1000380080315A2840019A01990196019701980147
:10004800073095007E309100FF309200FF3093001A
:10005800FF309400FF307E01D900FF30CE00FF3022
:10006800C3000730E400FE30B800DA01E501C4013E
:10007800B901CF01E601BA01C501D001DB01FF30AA
:10008800BB00FF30C600FF30D100FF30DC00073076
:10009800E700FF30BC00FF30C700FF30D200FF3060
:1000A800DD000F30E80012309000080080318A200F
:1000B80080318B170B178031D0208031003A03191B
:1000C800662867285F28F301F4010130F100003049
:1000D800F20073088031DC2080317108F307720860
:1000E800F43D1F3073067404031D7B287C28812887
:1000F800FF30F100FF30F2006D2873087404031D0F
:10010800862887286D286928803118288031C220E0
:10011800803180311E2080318031B920803180319A
:10012800E12080318031CA20803180319D208031AA
:1001380008004E01181080305301900002309100E1
:1001480001309200053093004E010E10181408007B
:1001580003104001961F03140318B328B628400162
:100168009617B828400196130800623051018D0097
:100178008F01910102309300920108004F0196010E
:100188009701980199019A019B010800A830520132
:100198008E001F308F00080052010C0E890C890C4C
:1001A800013908008031AC2080314E010E10080062
:1001B800F000700852018F000800893052018C004D
:0201C80008002D
:020000040001F9
:0A000E00EC3FFF3F9F3FFF3FFF3F25
:00000001FF
