:1000000023C0DBC0DAC0D9C0D8C0D7C0D6C0D5C0E5
:10001000D4C0D3C0D2C0D1C0D0C0CFC0CEC0CDC05C
:10002000CCC0CBC0CAC0C9C0C8C0C7C0C6C0C5C08C
:10003000C4C0C3C0C2C0C1C02FC0BFC0BEC03E0389
:100040003E04803E003E038011241FBECFEFCDBF93
:10005000DFE3DEBFEEE3F0E040E017C0B591A5912D
:1000600035912591059107FD0CC095918591EF0182
:10007000F92FE82F05900D92A217B307D9F7FE01CB
:1000800004C01D92A217B307E1F7E834F40731F773
:0800900043D000C0F894FFCF3B
:100098001F920F920FB60F9211248F93EF93FF9335
:1000A800E091033EE33060F4F0E0E050F24C8081F0
:1000B800809302088091033E8F5F8093033E04C0C3
:1000C800109205081092033EFF91EF918F910F90C7
:0800D8000FBE0F901F90189558
:1000E000E0E1F4E0808188608193E83184E0F80702
:1000F000C9F7E0E3F4E0808188608193E83384E02D
:10010000F807C9F7E0E5F4E0808188608193E8357D
:0801100084E0F807C9F7089527
:100118004ED02FE880ED93E0215080409040E1F7E9
:1001280000C000000AD019D0E0E0FEE3108281E0B0
:0A013800818382E082837894FFCF78
:1001420082EC8093070880E49CE9809308089093EE
:10015200090880E28093050880E4809306080895E8
:100162008AEA8093C60189E98093C80189E2809373
:0A017200C50181E08093C0010895EB
:10017C00B1DF049A0C98219A2998229A2A9804D0D3
:08018C0010D011D00CD0089531
:0E01940047E068ED81E690E002D080E008953B
:0801A200FC0164BF40830895D5
:0401AA0080E0089554
:0401AE0080E0089550
:0401B20080E008954C
:0401B600E2DF0895E7
:0201BA0022CF52
:00000001FF
