:1000000023C0F7C2C3C2F5C2F4C2F3C2F2C2F1C246
:10001000F0C2EFC2EEC2EDC2ECC2EBC2EAC2E9C26C
:10002000E8C2E7C2E6C2E5C2E4C2E3C2E2C2E1C29C
:10003000E0C2DFC2DEC2DDC2DCC2DBC2DAC23E0425
:100040003E4C803E003E048011241FBECFEFCDBF4A
:10005000DFE3DEBFEEE3F0E040E017C0B591A5912D
:1000600035912591059107FD0CC095918591EF0182
:10007000F92FE82F05900D92A217B307D9F7FE01CB
:1000800004C01D92A217B307E1F7E834F40731F773
:0800900099D100C0F894FFCFE4
:10009800CF92DF92EF92FF920F931F93CF93DF934C
:1000A800EC0120E018C0822F90E0DC01AA0FBB1FF2
:1000B800AA0FBB1FAA0FBB1FA80FB91FAC0FBD1FEC
:1000C8001C9280E005C0FD01E80FF11D11828F5FD1
:1000D8008830C8F32F5F261730F3F6D1C82E8E016B
:1000E8000F5F1F4FF12CEE24E3943AC08E2D8C2124
:1000F800B1F1E02FF12FD12C01C08C0188E0D8019B
:1001080001900D928A95E1F78E2D90E0DDD14E2D6C
:100118006D2DC801B5D0D82E8F2D90E0FC01EE0FC3
:10012800FF1FEE0FFF1FEE0FFF1F8E0F9F1FFE0119
:10013800E80FF91FE082F3948F2D90E09C01220FC5
:10014800331F220F331F220F331F820F931F8C0F71
:100158009D1F0196E02FF12FD110CFCF8C01EE0C0F
:10016800E110C4CF10E012C0812F90E09C01220F53
:10017800331F220F331F220F331F820F931F8C0F41
:100188009D1F01966FD1811105C01F5F1F1560F378
:1001980080E001C081E0DF91CF911F910F91FF9026
:0801A800EF90DF90CF90089565
:1001B000CF92DF92EF92FF920F931F93E0E0F4E073
:1001C00098E0918B80818260808381B1826081B967
:1001D000E0E0F2E0818181608183E0E0F8E09583F6
:1001E00088EC868383E08783C09024110C2C000C5C
:1001F000DD082CEFD21A0D2C000CEE08FF08A6E447
:10020000B0E1A7019601DDD18B019C01992324F473
:1002100001501C4F2F4F3F4FD901C801072E7AE0E4
:10022000B595A795979587957A95D1F7702D809379
:10023000023E9093033EABE5B1E0A7019601C1D128
:100240006B017C01992334F42FEFC20E23E0D21E00
:10025000E11CF11CD701C601072E7AE0B595A795E0
:10026000979587957A95D1F7702D8093003E90935E
:10027000013E80930808909309081F910F91FF9009
:08028000EF90DF90CF9008958C
:10028800AF92BF92CF92DF92EF92FF920F931F939C
:10029800CF93DF937C01B62EC42E642F80EFFCD061
:1002A800C1E0A12CD1E041C00C2D10E0C8018FD1D4
:1002B800D82EC8018CD1DD2011F081113BC0D81691
:1002C80071F0DD2029F0F70190819C2B90831DC0EF
:1002D800F70120819C2F90959223908316C0DB1103
:1002E80005C0F70180818C2B80830FC0BD1640F4B8
:1002F800F70190818C2F809589238083AD2E05C0CE
:10030800F70180818C2309F4AD2EF70190819C239D
:1003180019F0C80164D102C0C80164D1DF5FCC0FF5
:1003280021F4FFEFEF1AFF0AC1E0D13408F4BCCF83
:100338008A2D01C08FEFDF91CF911F910F91FF9010
:0C034800EF90DF90CF90BF90AF90089531
:10035400EF92FF921F93CF93DF93182F7B01C82F47
:10036400D0E0CE01B3D0882301F1612FC7015DD065
:10037400612F84E493D0CE012CD18823E1F3CE0104
:10038400A5D08823A9F0612FC7014FD0612F8EEB30
:1003940085D0812FB1D0C82FD0E0812FADD090E08F
:1003A400982F88278C2B9D2B05C088E19CEF02C0D9
:1003B40088E19CEFDF91CF911F91FF90EF9008951A
:1003C400CF93DF9300D0CDB7DEB719821A828FEFB7
:1003D4008093200421E030E088ED84BF2093610005
:1003E400E5DE68E084E09EE355DE8111FACF48E063
:1003F40064E07EE388E2A8D08C010115110541F088
:10040400B8016F5F7F4FF8018081A2DF89839A83EF
:1004140089819A81959587959595879595958795E1
:0A0424009595879580932404E8CF96
:10042E00EF92FF920F931F93CF93DF938C01D62FF2
:10043E0085E52FD0C8E00AC078018FEFE81AF80AD8
:10044E006D2FF801808125D0C1508701C111F4CFE5
:0E045E00DF91CF911F910F91FF90EF900895C5
:10046C000F931F93CF938C0180E0C0E006C0682FE0
:10047C00F80181918F0151D0CF5FC730C0F3F801E3
:10048C009081891302C080E001C081E0CF911F915F
:04049C000F9108951F
:1004A0001F93CF93DF93D82F162FC0E00BC0D0FF40
:1004B00004C0812F90E097D003C0812F90E096D0A8
:1004C000D695CF5FC83098F3DF91CF911F910895F3
:1004D000E0E0F8E086818F77868386818068868376
:1004E0008091023E9091033E8087918780EF3ED0BD
:0C04F00091E0803F09F490E0892F08950E
:1004FC001F93CF93DF93182FC0E0D0E007C0D695A1
:10050C00812F90E062D08111D068CF5FC830B8F3F2
:0A051C008D2FDF91CF911F910895FC
:10052600282F98E00CC0822F862780FD02C0669592
:1005360004C088E1682766956068269591509111F8
:06054600F2CF862F08959C
:10054C00FB0190E005C02181281739F039969F5F97
:10055C009417C8F380E090E008958E2F9F2F089594
:10056C0080930208809104088823E4F78091003E70
:10057C009091013EE0E0F8E08087918780810895BA
:10058C001F920F920FB60F9211248F9381E08093DC
:0E059C008A008F910F900FBE0F901F90189540
:1005AA00A29FB001B39FC001A39F01D0B29F700D5B
:0805BA00811D1124911D08951B
:1005C200F3DFA59F900DB49F900DA49F800D911D08
:0405D2001124089553
:1005D6008FEFC9DF91E08F3F09F090E0892F0895F2
:0605E6008FEFC1DF089554
:0605EC0080E0BEDF08956F
:0205F20006CD34
:02000004008278
:090000000000020000C40700002A
:00000001FF
