:100000000C94EE000C9416010C9416010C9416013D
:100010000C9416010C9416010C9416010C94160104
:100020000C9416010C9416010C940B0A0C949A086B
:100030000C9416010C9416010C9416010C941601E4
:100040000C9416010C9416010C9416010C941601D4
:100050000C9416010C9416010C9416010C94A90A28
:100060000C9416010C9416010C9416010C941601B4
:100070000C9416010C9416010C9416010C941601A4
:100080000C9416010C9416010C9416010C94160194
:100090000C9416010C9416010C9416010C94160184
:1000A0000C9416010C9416010C9416013220352084
:1000B000242028202E2056205620562039203D204E
:1000C000412047204B2056205120080B00020202FD
:1000D00001000904000001020200000524001001D3
:1000E0000524010101042402060524060001070578
:1000F000810310004009040100020A000000070506
:1001000002024000000705830240000012010002C5
:10011000EF02014041233680000101020301120178
:10012000000200000040412336800001010203016B
:1001300041726475696E6F204C4C430055534220E8
:10014000494F20426F61726400040309047C3C3E05
:100150005E2B3D3F2F5B5D3B2C2A225C00000000A4
:100160000200090F0000030401000C000000000061
:100170000000000000000000000000000408020170
:1001800010408040102040804080080204018040E0
:1001900020100201108010204040200404040404B8
:1001A000030405020202020403020202020606061A
:1001B00006060604040202020404000000002500F2
:1001C00028002B002E003100000000002400270032
:1001D0002A002D00300036068F0F3A1311241FBE5F
:1001E000CFEFDAE0DEBFCDBF11E0A0E0B1E0EEED91
:1001F000F4E402C005900D92AC34B107D9F724E0C5
:10020000ACE4B1E001C01D92AA31B207E1F710E001
:10021000CEEED0E004C02197FE010E94F920CB3E33
:10022000D107C9F70E944C060C946D220C94000073
:100230002091080130910901FC01318320838091D4
:10024000060190910701FB01918380830895FC01D1
:1002500048E08CE89081292F30E035952795962746
:1002600090FD2827208366954150A1F708950895B1
:10027000682F8CE491E00C9430051F93CF93DF93AB
:1002800000D0CDB7DEB7182F862F79839A830E94CE
:1002900038017981872F0E943801812F0E9438010F
:1002A0009A81892F0F900F90DF91CF911F910C941D
:1002B0003801AF92BF92CF92DF92EF92FF920F93ED
:1002C0001F93CF93DF93CDB7DEB7EB970FB6F894BC
:1002D000DEBF0FBECDBF21E041E251E061EB71E036
:1002E000CE0181960E94FA0ECE0181960E94EE0CFC
:1002F000882309F457C08E01075F1F4F5E01FCE0A1
:10030000AF0EB11C40E250E0BE016F5F7F4FCE01E7
:1003100081960E94830C809709F044C089818823CC
:1003200009F440C0853E71F38C85887159F785E4E6
:100330000E943801CE0101967C01F70181917F0175
:10034000803211F00E943801E016F106B1F78EE21A
:100350000E9438017801F70181917F01803211F00C
:100360000E943801EA14FB04B1F780E00E943801D2
:10037000C98CDA8CE12CF12C7601DD24CC248F8918
:10038000988DA0E0B0E0C82AD92AEA2AFB2A6D8D10
:100390007E8D8F8D98A10E943D01C701B6010E94FC
:1003A0003D01B0CFCE0181960E94DC0C80E00E941E
:1003B000380181E0EB960FB6F894DEBF0FBECDBFDB
:1003C000DF91CF911F910F91FF90EF90DF90CF9031
:1003D000BF90AF9008950F931F93CF93DF938C013D
:1003E000C0E0D0E08CE491E00E945A05892B41F0F6
:1003F0008CE491E00E946A05F801808381E00CC0E2
:1004000061E070E080E090E00E94240B2196C83EFD
:10041000F3E0DF0739F780E0DF91CF911F910F9173
:1004200008958F929F92AF92BF92EF92FF920F9397
:100430001F93CF93DF931F92CDB7DEB78C01FC01E2
:100440001082118212821382E12CF12CCE010196CE
:100450000E94EB01882301F1498150E060E070E0E7
:100460000E2C04C0440F551F661F771F0A94D2F745
:10047000F80180809180A280B380480D591D6A1DCB
:100480007B1D4083518362837383F8E0EF0EF11C80
:1004900090E2E916F104D1F60F90DF91CF911F9110
:1004A0000F91FF90EF90BF90AF909F908F90089525
:1004B000CF93DF9300D000D0CDB7DEB78BE40E949E
:1004C0003801CE0101960E941102882361F0498112
:1004D0005A816B817C81709309016093080150936C
:1004E0000701409306010F900F900F900F90DF913E
:1004F000CF910895AF92BF92CF92DF92EF92FF9289
:100500000F931F93CF93DF9300D000D0CDB7DEB70A
:100510005C01C12CD12C7601C416D506E606F7067F
:1005200071F08501C50149835A836B837C830E94E6
:10053000EB0149815A816B817C81811102C080E08D
:100540000DC09FEFA91AB90AF8019081992331F0E3
:10055000FFEFCF1ADF0AEF0AFF0ADECF0F900F90EE
:100560000F900F90DF91CF911F910F91FF90EF901F
:10057000DF90CF90BF90AF9008951F93CF93DF93FC
:100580001F92CDB7DEB7CE0101960E94EB0181111B
:1005900002C010E013C089818235D9F788E50E9436
:1005A0003801CE0101960E94EB01182F882389F3B0
:1005B0008981823771F788E70E943801812F0F9077
:1005C000DF91CF911F9108951F93CF93DF931F92D7
:1005D000CDB7DEB7CE0101960E94EB01882361F012
:1005E000698181EB91E00E94F10D182F882321F0A1
:1005F0008BE40E94380104C086E40E94380110E0B8
:10060000812F0F90DF91CF911F9108957F928F924C
:100610009F92AF92BF92CF92DF92EF92FF920F9391
:100620001F93CF93DF93CDB7DEB7CF56D1090FB667
:10063000F894DEBF0FBECDBF8EE40E943801CE011C
:100640008F5B9F4F0E94700C4EE050E060E070E0C6
:10065000CE01845A9F4F0E947A02811104C086E421
:100660000E943801C3C0BE01645A7F4F81EB91E004
:100670000E94840F23E1AE01445A5F4F61EB71E0A9
:10068000CE0101960E94FA0E8B819C8125969FAF28
:100690008EAF25978D819E81AF81B88529968CAFCD
:1006A0009DAFAEAFBFAF299789859A85AB85BC85D5
:1006B0002D968CAF9DAFAEAFBFAF2D978DE0FE01F5
:1006C0003D96DE01A35BBF4F01900D928A95E1F745
:1006D0008A8D9B8D6C969FAF8EAF6C97CE018F5B92
:1006E0009F4F0E94EE0C882309F4B9CF83E50E9446
:1006F0003801CE0186599F4F0E941102782E88231F
:1007000009F475C0E0961FAEE097AE96CCACDDACB8
:10071000EEACFFACAE9781E4C816D104E104F1045D
:1007200028F080E4C82ED12CE12CF12CC701B601B1
:100730000E943D01C114D104E104F10431F4CE0161
:100740008F5B9F4F0E94DC0C52C08E010F5F1F4FCA
:100750005801AC0CBD1C4801C8010E94EB0181117D
:1007600014C0A601BE016F5F7F4FCE018F5B9F4F0C
:100770000E94CC0B83E40E943801CE0182599F4F26
:100780000E94EB0181110EC02CC00F5F1F4FF401BE
:100790006081CE0181599F4F0E9427010A151B05D8
:1007A000D1F6DFCFE0969FADE097AF968FADAF97D4
:1007B000981731F060E070E0CB010E943D0111C05C
:1007C000AE968CAD9DADAEADBFADAE978C199D090B
:1007D000AE09BF09AE968CAF9DAFAEAFBFAFAE97BF
:1007E00091CFCE018F5B9F4F0E94DC0C712C872D27
:1007F000C159DF4F0FB6F894DEBF0FBECDBFDF91FA
:10080000CF911F910F91FF90EF90DF90CF90BF900D
:10081000AF909F908F907F900895CF92DF92EF924C
:10082000FF921F93CF93DF93CDB7DEB7C654D109A4
:100830000FB6F894DEBF0FBECDBF8EE40E94380124
:10084000CE014C960E94700C4EE050E060E070E0EB
:10085000CE01C7960E947A02182F811104C086E447
:100860000E94380190C021E0AE01495C5F4F61EB0E
:1008700071E0CE0101960E94FA0E8B819C819F8FC0
:100880008E8F8D819E81AF81B88588A399A3AAA3FD
:10089000BBA389859A85AB85BC858CA39DA3AEA39C
:1008A000BFA38DE0FE013D96DE01989601900D926A
:1008B0008A95E1F78A8D9B8D9EAB8DABCE014C96D0
:1008C0000E94EE0C182F811106C060E070E0CB0191
:1008D0000E943D0158C0CE014C960E949D0C0E9482
:1008E0003D01CE0101960E941102182F882309F4C0
:1008F00045C089819A81AB81BC81892B8A2B8B2B46
:1009000029F4CE014C960E94DC0C3DC027961FAE08
:100910002797C12CD12C760189819A81AB81BC812A
:10092000C816D906EA06FB06B8F4CE014C960E941A
:10093000070C26968FAF26970E94380126966FAD3A
:100940002697CE018A5B9F4F0E9427018FEFC81A1E
:10095000D80AE80AF80AE0CFCE018B5B9F4F0E94CD
:10096000EB01882359F026968FAD2697833431F416
:1009700027968FAD27970E943801B3CFCE014C96B2
:100980000E94DC0C10E0812FCA5BDF4F0FB6F89499
:10099000DEBF0FBECDBFDF91CF911F91FF90EF90D3
:1009A000DF90CF9008951F93CF93DF931F92CDB721
:1009B000DEB710E0112339F0CE0101960E94EB0161
:1009C000811106C010E00E94BD028111F5CFFBCF5E
:1009D0008981893489F048F48434C9F0853451F729
:1009E0000F90DF91CF911F9108958435D1F0853517
:1009F00049F08C34F9F610C01111DCCF0E94E402EA
:100A0000182FD8CF1123F9F20E940603D3CF112358
:100A1000D1F20E940D04CECF1123A9F20E945901F8
:100A2000C9CF112381F20E945802C4CF40E052EC9A
:100A300061E070E08CE491E00E9420068CE491E09B
:100A40000E9427068823D1F388E191E09093FE016C
:100A50008093FD010E94D3048CE491E00C9426065F
:100A6000CF93DF931F92CDB7DEB76983DC01ED91A1
:100A7000FC910280F381E02D41E050E0BE016F5F08
:100A80007F4F09950F90DF91CF910895CF93DF931A
:100A9000EC018C859D8597FF05C082E00E946E0762
:100AA0009D878C878C859D85DF91CF91089583E00C
:100AB0000C94010AFC018485958597FD06C082E0AF
:100AC0000E94180790E00196089582E00E9418079E
:100AD00090E00895FC018485958597FD05C02FEF72
:100AE0003FEF35872487089582E00C946E07CF93FB
:100AF000DF93EC0180911501882331F083E00E949F
:100B00009F071816190634F081E090E09B838A83D2
:100B100080E090E0DF91CF910895FC0190819E5F8D
:100B2000908342E450E06AEC70E080E80C94400866
:100B3000FC0181819081913A59F4813209F048C0D9
:100B400047E050E06EE071E080E00E94400876C02F
:100B50009132F1F5833291F49381892F90E0982FAF
:100B600088272281822BA0E0B0E080930A01909335
:100B70000B01A0930C01B0930D0160C0803239F4D9
:100B800067E070E08EE091E00E94670806C0823264
:100B900009F054C082818093150180919C018823C3
:100BA00019F0EEEFFAE002C0E0E0F8E080910E010B
:100BB00090910F01A0911001B0911101803B9440E0
:100BC000A105B10539F48091150180FF1FC002C055
:100BD00080E008950FB6F894A89580916000886130
:100BE00080936000109260000FBEA895EE3F8AE0EF
:100BF000F80739F08091FE0A9091FF0A9183808373
:100C00001DC01092FF0A1092FE0A18C0EE3F2AE0A3
:100C1000F20731F0808191819093FF0A8093FE0A60
:100C200087E797E7918380839BE088E10FB6F8948C
:100C3000A895809360000FBE9093600081E00895B6
:100C40002FEF3FEFFC013587248708950895CF9358
:100C5000C09115016AE070E080E090E00E94240BF2
:100C600081E0C11101C080E0CF910895ECE4F1E092
:100C70001382128288EE93E0A0E0B0E08483958333
:100C8000A683B78387E291E0918380838FEF9FEF04
:100C900095878487089508950E94600B0E944B06F3
:100CA0008DE991E00E948C0A0E941605C0E0D0E018
:100CB0000E9437012097E1F30E940000F9CF6150B4
:100CC00030F02091F100FC0120830196F8CF2898A4
:100CD00084E68093A60108954091A1015091A2015C
:100CE00020919F013091A00142175307B4F49091D5
:100CF000E8009570E1F39091E80092FD19C08093AF
:100D0000F1008091A1019091A20101968F73992722
:100D1000892B19F48EEF8093E8008091A1019091C6
:100D2000A20101969093A2018093A10181E0089510
:100D300080E00895CF92DF92EF92FF920F931F937E
:100D4000CF93DF931F92CDB7DEB7182F062FE42E77
:100D5000862F880F8E5F99830E946C0683E00E9425
:100D60006C06F12EC12E9981D92E8C2D8F198017EA
:100D700098F4F601E7FE02C0849101C080810E94D0
:100D80006C06182F80E00E946C068123FFEFCF1ABB
:100D9000DF0A8111EACF01C081E00F90DF91CF918E
:100DA0001F910F91FF90EF90DF90CF900895809169
:100DB000D70081608093D70080EA8093D80089B5FE
:100DC000806189BD89B5826089BD09B400FEFDCF0F
:100DD00061E070E080E090E00E94240B8091D800F8
:100DE0008F7C80618093D8008091E000807F809329
:100DF000E0000895CF93DF931F92CDB7DEB719823D
:100E0000CE0101960E948D050E94DB1FBE016F5F1F
:100E10007F4F0E94561F89810F90DF91CF910895D7
:100E20002FB7FC012083F89467706093E900089560
:100E3000CF93DF931F92CDB7DEB7682FCE01019617
:100E40000E9410078091F20099819FBF0F90DF915F
:100E5000CF910895EF92FF920F931F93CF93DF935B
:100E60001F92CDB7DEB79091A501992311F057FFDE
:100E700003C08FEF9FEF2AC08A017B01682FCE014C
:100E800001960E9410078091F20090E0A80180175F
:100E900091070CF4AC01842FF70194E6815038F0EF
:100EA00028989093A6012091F1002193F7CF411546
:100EB000510521F08091F200882321F089818FBFB4
:100EC000CA0104C08BE68093E800F8CF0F90DF9151
:100ED000CF911F910F91FF90EF900895CF93DF93E3
:100EE0001F92CDB7DEB741E050E0BE016F5F7F4F8C
:100EF0000E942A07019719F4898190E002C08FEFC0
:100F00009FEF0F90DF91CF910895CF93DF931F92C2
:100F1000CDB7DEB7682FCE0101960E9410079091E1
:100F2000E800892F807295FF04C09091F2008FE352
:100F3000891B99819FBF0F90DF91CF9108956F9288
:100F40007F928F929F92AF92BF92CF92DF92EF9259
:100F5000FF920F931F93CF93DF931F92CDB7DEB70E
:100F6000A82E6B01B42E052F8091A501811103C01D
:100F70008FEF9FEF6AC08091A30180FF05C0809131
:100F8000E00082608093E000EB2CF02E8AEF982E38
:100F90008A2D8072782E9AE3892E8A2D8074682E8D
:100FA000E114F10409F447C08A2D0E948507182F27
:100FB00081110AC09A949920D9F261E070E080E032
:100FC00090E00E94240BECCF90E0E816F9060CF4B8
:100FD0001E2D6A2DCE0101960E9410078091E80017
:100FE00085FF26C0812F90E0E81AF90A772029F0C2
:100FF0001150A8F01092F100FBCFF601A7FE07C038
:10100000115058F024912093F1003196F9CF1150EE
:1010100020F021912093F100FACFC80ED91E8091C3
:10102000E80085FF0FC0E114F10411F461100AC05B
:1010300089818FBFB5CF5D9884E68093A7018B2D02
:10104000902F03C08092E800F3CF0F90DF91CF91F3
:101050001F910F91FF90EF90DF90CF90BF90AF90D6
:101060009F908F907F906F9008951092E90010925A
:10107000A2011092A1019093A00180939F01089575
:10108000DF92EF92FF920F931F93CF93DF93D82EAF
:101090008A017B01E40EF51EEB01CE15DF0571F030
:1010A000D7FE03C0FE01849101C088810E946C06B6
:1010B00021968111F2CF8FEF9FEF01C0C801DF9120
:1010C000CF911F910F91FF90EF90DF900895BF9205
:1010D000CF92DF92EF92FF920F931F93CF93DF9304
:1010E0006C018B01EB019BEFB92E2097C1F07E01C3
:1010F000C134D1051CF080E4E82EF12C8091E80089
:1011000082FFFCCFC8018C1B9D0B6E2D8C0D9D1D8D
:101110000E945F06B092E800CE19DF09E6CFC80151
:10112000DF91CF911F910F91FF90EF90DF90CF90C3
:10113000BF9008951F920F920FB60F921124CF9275
:10114000DF92EF92FF920F931F932F933F934F9352
:101150005F936F937F938F939F93AF93BF93EF931F
:10116000FF93CF93DF93CDB7DEB76C97DEBFCDBFD4
:101170001092E9008091E80083FF24C168E0CE016D
:1011800045960E945F0682EF8093E8008D8987FF75
:1011900005C09091E80090FFFCCF03C09EEF9093B4
:1011A000E800982F907609F0F1C09E892F89188D5C
:1011B00091110CC0803829F48091A4018093F10032
:1011C00002C01092F1001092F100F5C0422F50E0E1
:1011D000512B913051F48111EEC04130510509F08D
:1011E000EAC08091A4018D7F0BC0933061F481111E
:1011F000E2C04130510509F0DEC08091A401826057
:101200008093A401D8C0953041F48091E80080FF1C
:10121000FCCF20682093E300CEC0963009F08CC04C
:10122000EB8CFC8C123069F580E090E00E94350870
:101230000E94FA0699E09E012F5F3F4F6901F90174
:10124000292F11922A95E9F799831A8391E09E83B9
:1012500090EA98879AEF99872091A1013091A20195
:10126000275F3F4F3C832B838D83C7010E94350846
:1012700049E050E0B60180E00E9440080E94FA0672
:101280009AC0C7010E9435080E94DB1FBE016B5E39
:101290007F4F0E947F1F009719F00CF08CC08FC009
:1012A000113071F48B8D9C8D089719F481E0809337
:1012B0009E0180919E0181112FC06EE171E031C0CD
:1012C000133009F07CC08F89882349F1823029F4DA
:1012D00040E86CE08CE391E006C0813039F440E8EE
:1012E0006BE080E391E00E949A0663C0833009F0CE
:1012F00066C00E94DB1F8E010F5F1F4FB8010E9466
:101300009E1FF80101900020E9F73197BF01601B93
:10131000710B40E0C801E7CF6CE071E002C069E406
:1013200071E06115710509F44AC0FB01449150E078
:1013300080E80E9440083FC0973009F440C09830D0
:1013400021F481E08093F10036C09930A1F58370DB
:10135000B1F5E7E1F1E081E021E036E39081992306
:1013600061F08093E9002093EB0091919093EC0061
:101370003093ED008F5F873089F78EE78093EA0026
:101380001092EA008F898093A50115C08B8D9C8DEA
:101390000E943508898D811105C0CE0145960E94B5
:1013A000980507C00E94DB1FBE016B5E7F4F0E9445
:1013B000BD1F882321F08EEF8093E80003C081E2F7
:1013C0008093EB006C960FB6F894DEBF0FBECDBFD6
:1013D000DF91CF91FF91EF91BF91AF919F918F914D
:1013E0007F916F915F914F913F912F911F910F913D
:1013F000FF90EF90DF90CF900F900FBE0F901F9057
:1014000018958093E9008091F200882319F08AE30F
:101410008093E80008951F920F920FB60F92112447
:101420002F933F934F935F936F937F938F939F93EC
:10143000AF93BF93CF93EF93FF93C091E10080915F
:10144000E100837F8093E100C3FF0FC01092E900A9
:1014500081E08093EB001092EC0082E38093ED003A
:101460001092A50188E08093F000C2FF19C083E0CC
:101470000E94010A8091A701882339F08091A70179
:1014800081508093A701882389F18091A601882348
:1014900039F08091A60181508093A601882341F103
:1014A000C4FF10C08091E2008E7E81608093E200D4
:1014B0008091E1008F7E8093E1008091A3018E7E78
:1014C000806111C0C0FF16C08091E2008E7E8061F5
:1014D0008093E2008091E1008E7E8093E100809114
:1014E000A3018E7E81608093A30104C05D9ACDCF5D
:1014F000289AD6CFFF91EF91CF91BF91AF919F9155
:101500008F917F916F915F914F913F912F910F90AC
:101510000FBE0F901F9018951092A5011092A40174
:101520001092A3010E94D7068091E1008E7E8093E5
:10153000E1008DE08093E200559A209AEEEFFFE7FC
:10154000859194918B3F9C4D19F481E080939C018F
:1015500008951F920F920FB60F9211242F933F936D
:101560008F939F93AF93BF938091A9019091AA010C
:10157000A091AB01B091AC013091A80123E0230F01
:101580002D3720F40196A11DB11D05C026E8230FBB
:101590000296A11DB11D2093A8018093A9019093EB
:1015A000AA01A093AB01B093AC018091AD019091E1
:1015B000AE01A091AF01B091B0010196A11DB11D86
:1015C0008093AD019093AE01A093AF01B093B001B1
:1015D000BF91AF919F918F913F912F910F900FBE2F
:1015E0000F901F9018952FB7F8946091A9017091F2
:1015F000AA018091AB019091AC012FBF08953FB734
:10160000F8948091AD019091AE01A091AF01B0919D
:10161000B00126B5A89B05C02F3F19F00196A11D6A
:10162000B11D3FBFBA2FA92F982F8827820F911D78
:10163000A11DB11DBC01CD0142E0660F771F881FBF
:10164000991F4A95D1F708958F929F92AF92BF92BA
:10165000CF92DF92EF92FF926B017C010E94FF0A12
:101660004B015C01C114D104E104F10401F10E94B9
:10167000551F0E94FF0ADC01CB0188199909AA09AC
:10168000BB09883E9340A105B10560F321E0C21A71
:10169000D108E108F10888EE880E83E0981EA11CAD
:1016A000B11CC114D104E104F10419F7DBCFFF90A0
:1016B000EF90DF90CF90BF90AF909F908F90089564
:1016C000789484B5826084BD84B5816084BD85B51D
:1016D000826085BD85B5816085BDEEE6F0E08081E4
:1016E00081608083E1E8F0E0108280818260808305
:1016F000808181608083E0E8F0E080818160808388
:10170000E1E9F0E080818260808380818160808374
:10171000E0E9F0E0808181608083E1ECF0E08081AD
:101720008460808380818260808380818160808307
:10173000E3ECF0E0808181608083E0ECF0E0808188
:1017400082608083E2ECF0E0808181608083EAE760
:10175000F0E08081846080838081826080838081EA
:10176000816080838081806880830895CF93DF9338
:101770001F92CDB7DEB76983DC01ED91FC91028049
:10178000F381E02D41E050E0BE016F5F7F4F09958E
:101790000F90DF91CF910895CF93DF93EC01898D66
:1017A0009A8D009739F481E090E09B838A8380E0F2
:1017B00090E00BC0FC01138212820E94FA18E98D9E
:1017C000FA8D22813381232B71F7DF91CF91089518
:1017D000FC01818D928D009711F00C944E160895A6
:1017E000CF93DF931F92CDB7DEB741E050E0BE014B
:1017F0006F5F7F4F0E946A14019719F4898190E00E
:1018000002C08FEF9FEF0F90DF91CF910895FC0101
:10181000818D928D009711F00C94F00B8FEF9FEF5C
:1018200008950F931F93CF93DF93FC01818D928DC9
:101830000097B9F0EF010E94F00B8C010F3F8FEF82
:10184000180791F0898D9A8DFC0142855385648536
:10185000758541505109610971090E94B815C80187
:1018600005C080E090E002C08FEF9FEFDF91CF9145
:101870001F910F910895EF92FF920F931F93CF93B3
:10188000DF93EC017B018A011B821A8288EE93E0D0
:10189000A0E0B0E08C839D83AE83BF8387E391E0BB
:1018A000998388838DE190E00E9419219A8F898F16
:1018B000009779F02DE1F701DC0101900D922A9556
:1018C000E1F74CE050E0B801CE010C960E945E2298
:1018D000188EDF91CF911F910F91FF90EF90089597
:1018E000FC011382128288EE93E0A0E0B0E08483D2
:1018F0009583A683B78387E391E091838083128EDB
:10190000118E14860895FC01818D928D009711F03F
:101910000C946A1480E090E00895DC015996ED91F2
:10192000FC915A97309729F0628573858485958557
:1019300008956FEF7FEFCB010895DC015996ED918B
:10194000FC915A97309729F0638974898589968923
:10195000089560E070E0CB010895CF92DF92EF929E
:10196000FF92CF93DF93FC01218D328D232BD9F091
:10197000EC010E949D0C6B017C01CE010E948D0C3C
:10198000A7019601261B370B480B590BDA01C90139
:10199000811530E89307A105B10538F08FEF9FE777
:1019A000A0E0B0E002C080E090E0DF91CF91FF9036
:1019B000EF90DF90CF900895CF93DF93EC01898D66
:1019C0009A8D009741F00E949516898D9A8D0E94FC
:1019D000AE211A8E198EDF91CF910895DC015996B0
:1019E000ED91FC915A97309721F081E0958191110A
:1019F00001C080E00895442339F00E94D31891E09B
:101A0000811103C090E001C091E0892F08950F93E8
:101A10001F93CF93DF93EC018B0141E00E943E1EA8
:101A2000811109C040E0B801CE01DF91CF911F9133
:101A30000F910C943E1E81E0DF91CF911F910F9189
:101A400008950F931F93CF93DF93DA01EB01288161
:101A50003981FC01E20FF31F40814F3211F42F5FF7
:101A60003F4F8D01E0E0F0E0AC01420F531FEA016F
:101A700058815F3259F0552349F031962F5F3F4F1F
:101A8000E80159938E01EC30F10571F7EA0FFB1F65
:101A90001082FC01E20FF31F40814F3211F42F5FDF
:101AA0003F4FFB0131832083FC01E20FF31F81E0F4
:101AB0009081911101C080E0DF91CF911F910F9132
:101AC00008954F925F926F927F928F929F92AF9202
:101AD000BF92CF92DF92EF92FF920F931F93CF931B
:101AE000DF93CDB7DEB7C954D1090FB6F894DEBF86
:101AF0000FBECDBF5C016B013A01490119A218A2CA
:101B000087E491E09F8F8E8F1BA21C821B829A8399
:101B100089831E822A961FAE1EAE2A978B017E01F4
:101B20008EE1E80EF11C44244394AE01455C5F4F06
:101B3000BE01685B7F4FC5010E94210D582E482FC2
:101B400044259401BE01655C7F4FC801F3010995EE
:101B5000811108C00C151D0519F0C8010E949516C9
:101B600080E027C05520B9F021E0AE01455C5F4F11
:101B7000B801C7010E94C917582E0C151D0599F010
:101B8000C8010E949516552059F3902F812F870187
:101B9000E92EF82ECACF0C151D0519F0C8010E94B8
:101BA000951681E006C08823D9F28E010F5F1F4F82
:101BB000ECCFC75BDF4F0FB6F894DEBF0FBECDBFD3
:101BC000DF91CF911F910F91FF90EF90DF90CF9019
:101BD000BF90AF909F908F907F906F905F904F904D
:101BE00008950F931F93CF93DF93EC01462F61E08D
:101BF0000E941511882389F08E01045F1F4FBE01DA
:101C0000C8010E94070D882341F0B801CE018A96D1
:101C10000E94191491E0811101C090E0892FDF9199
:101C2000CF911F910F910895FC01DB0112968D91C8
:101C30009C9113979383828387E491E091838083BF
:101C400014968C911497848315968C91159785839F
:101C500016964D915D916D917C91199746835783AE
:101C6000608771871A964D915D916D917C911D975A
:101C700042875387648775871E964D915D916D915C
:101C80007C91519746875787608B718B52968C91C8
:101C90005297828B53964D915D916D917C915697A1
:101CA000438B548B658B768B57964D915D916D91DF
:101CB0007C915A97478B508F618F728F5B968D9175
:101CC0009C915C97948F838F08954F925F926F924F
:101CD0007F928F929F92AF92BF92CF92DF92EF92BC
:101CE000FF920F931F93CF93DF93CDB7DEB7C75407
:101CF000D1090FB6F894DEBF0FBECDBF6C015A01FB
:101D00004901665D7F4F7E018EE1E80EF11CC7013F
:101D10000E94140E1C821B8287E491E09A838983BF
:101D20001E828501FE0131963F0127016FE270E0BE
:101D3000C8010E9453220097D9F1F80120812F3267
:101D400019F40F5F1F4FF2CF801B8D3008F08CE02D
:101D5000E82EF12CA701B801CE01CB960E945E229D
:101D6000EBE3F0E0EC0FFD1FEE0DFF1D1082C30151
:101D70000E94951621E0AE01455C5F4FB201C301A0
:101D80000E94C917811109C0F6011382128287E4EB
:101D900091E091838083158214C00E0D1F1DC20136
:101DA0000E949516942D852D2301692E782EBECF85
:101DB0000A191B09F40111830083B201C6010E94B4
:101DC000140EC601C95BDF4F0FB6F894DEBF0FBE1D
:101DD000CDBFDF91CF911F910F91FF90EF90DF90DA
:101DE000CF90BF90AF909F908F907F906F905F90BB
:101DF0004F900895AF92BF92CF92DF92FF920F93D0
:101E00001F93CF93DF93CDB7DEB7C955D1090FB676
:101E1000F894DEBF0FBECDBF6C015B018A01F22ECC
:101E20009E01285A3F4FCE01CB960E94650E6A96BE
:101E30008EAD9FAD6A97080F191FF801808181113F
:101E40000AC0BE01655C7F4FCE0101960E94140E50
:101E500041E251E041C019A218A287E491E09F8FAE
:101E60008E8F1BA221968FAD2197811104C0C601D0
:101E70000E94700C37C08250823060F4B501665DFC
:101E80007F4F2F2DA801CE014E960E94C9178111B8
:101E900010C0EDCF2F2DA801BE01655C7F4FCE0194
:101EA0004E960E94C917882311F3CE01CB960E944B
:101EB00095169F2D967041F049A95AA96BA97CA946
:101EC000CE014E960E94B815BE01625E7F4FCE01D4
:101ED00001960E94140EA801BE016F5F7F4FC601DC
:101EE0000E943B0CC601C75ADF4F0FB6F894DEBF05
:101EF0000FBECDBFDF91CF911F910F91FF90DF906B
:101F0000CF90BF90AF900895FB01BC01665D7F4FFD
:101F100020E030E04BEF5CE0CF010C94610DE1EB91
:101F2000F1E0158216821186138682E090E0A0E02F
:101F3000B0E084879587A687B78713A215A614A655
:101F400087E491E093A782A717A608950F93FC0159
:101F500030E080E092E1AAE7B0E0481759076A074D
:101F60007B0740F4B695A795979587953F5F3630E8
:101F7000A1F737E091E09327222311F020E501C07B
:101F800020E7892F86950C70082B022B0083917017
:101F900091830F91089520911404222399F04FB753
:101FA000F89420911404213059F42DB32093120495
:101FB0003DB320911304209523232DBB4FBF02C0B6
:101FC000409312048CBD9DBD08958EBD00000DB4DC
:101FD00007FEFDCF8EB508958FEF0C94E50F80912D
:101FE0001404882361F09FB7F89420911404809121
:101FF0001204213019F48DBB9FBF08958FBF08953F
:1020000061E0FC0184810E9493208091FA01882381
:1020100021F01092FA010C94EF0F0895CF93DF9303
:10202000EC018091FA01811109C081E08093FA01ED
:102030008091FB019091FC010E94CB0F60E08C81AC
:10204000DF91CF910C949320CF93DF93EC018E819D
:10205000882389F08F8198859C012F5F3F4F3887B7
:102060002F838230924018F40E94EC0FF3CFCE0100
:102070000E9400101E82DF91CF9108950F93CF939D
:10208000DF9300D0CDB7DEB7673028F026E1FC0142
:10209000258380E047C06230F9F058F46623A9F048
:1020A000613079F500E021E040E059E06DE370E057
:1020B0002EC06430F9F0B8F0653019F500E021E089
:1020C00040E950ED63E070E022C000E021E040E430
:1020D00058E76DE771E01BC000E021E040E854E8FC
:1020E0006EE170E014C000E021E040E452E46FE0F3
:1020F00070E00DC000E021E040E251EA67E070E0EE
:1021000006C000E021E048E458EE61E070E0CE0156
:1021100001960E94A60F89819A819093FC01809379
:10212000FB0181E00F900F90DF91CF910F91089507
:102130000F931F93CF93DF93EB010E94F30A8B0160
:102140000E94EC0F8F3F49F00E94F30A601B710B55
:102150006C177D07A8F380E001C081E0DF91CF918B
:102160001F910F910895CF92DF92FF920F931F93CB
:10217000CF93DF9300D000D0CDB7DEB76C01F62E41
:1021800029833A834B835C830E942410C6010E94FA
:102190000E106CE271E0C6010E9498108F2D8064D1
:1021A0000E94E50F08E110E05C814B813A812981B2
:1021B000DA01C901002E04C0B695A79597958795B9
:1021C0000A94D2F729833A834B835C830E94E50FFC
:1021D0000850110929813A814B815C81083F8FEFBA
:1021E000180731F7FF2029F0E8E0FE1204C087E865
:1021F00003C085E901C08FEF0E94E50F10E00E9447
:10220000EC0FF601828787FF04C01F3F11F01F5FAC
:10221000F6CF0F900F900F900F90DF91CF911F91FD
:102220000F91FF90DF90CF9008957F928F929F92B1
:10223000AF92BF92CF92DF92EF92FF920F931F93D4
:10224000CF93DF9300D0CDB7DEB77C01762EFC01B3
:10225000138611861682158244830E94F30A6B014D
:1022600061E0F70184810E94572061E0F7018481D9
:102270000E9493200E94C32000E021E040E950ED3D
:1022800063E070E0CE0101960E94A60F89819A81D9
:102290009093FC018093FB010E94CB0F1AE08FEF1B
:1022A0000E94E50F1150D9F70E94EF0FC7010E945D
:1022B0000E1020E030E0A90160E0C7010E94B310D9
:1022C000082FF7018287813049F00E94F30A6C19C8
:1022D0007D09613D774068F381E04FC02AEA31E033
:1022E00040E050E068E0C7010E94B31082FF03C0E5
:1022F000F70103870EC004E00E94EC0FF70182870C
:102300000150D1F78A3A11F082E038C082E0F7013B
:102310008387F7018385823021F0812C912C540131
:1023200005C0812C912CA12C80E4B82E20E030E057
:10233000A90167E3C7010E94B310A501940169E2F6
:10234000C7010E94B310F7018287882349F00E94D9
:10235000F30A6C197D09613D774040F388E00DC0B8
:1023600083858230F1F420E030E0A9016AE3C701FF
:102370000E94B310882339F086E0F7018583C701F6
:102380000E94001016C00E94EC0F807C803C19F463
:1023900083E0F70183870E94EC0F0E94EC0F0E94FC
:1023A000EC0FC7010E940010672DC7010E943E106C
:1023B000182F812F0F900F90DF91CF911F910F91C8
:1023C000FF90EF90DF90CF90BF90AF909F908F9055
:1023D0007F9008950F931F93CF93DF93EC010E949A
:1023E000F30A8B010E94EC0F8A878F3F49F40E9409
:1023F000F30A601B710B6D327140A0F38FE003C0D4
:102400008E3F39F08DE08D83CE010E94001080E078
:1024100001C081E0DF91CF911F910F910895CF927C
:10242000DF92EF92FF920F931F93CF93DF93EC0114
:102430006901C801820F931F8130924008F05CC08F
:102440008E81882371F088819981AA81BB81481788
:1024500059076A077B0729F48F819885C816D90622
:1024600010F5488359836A837B838B85833039F0E9
:1024700089E0440F551F661F771F8A95D1F79A018F
:10248000AB0161E1CE010E94B310882319F083E013
:102490008D8332C0CE010E94EA11882369F118862B
:1024A0001F8281E08E838F8198858C159D0540F475
:1024B0000E94EC0F8F819885019698878F83F3CFC8
:1024C0006701E00EF11ECE14DF0431F00E94EC0F24
:1024D000F60181936F01F7CF8F819885080F191F3F
:1024E00018870F838985882319F00115124048F059
:1024F000CE010E94241005C0CE010E94001080E091
:1025000001C081E0DF91CF911F910F91FF90EF907B
:10251000DF90CF900895EF92FF920F931F930115D4
:10252000110519F00E940F1201C081E01F910F9157
:10253000FF90EF900895EF92FF920F931F93790110
:1025400000E012E020E030E00E940F121F910F9196
:10255000FF90EF900895CF92DF92EF92FF920F934A
:102560001F93CF93DF9300D0CDB7DEB78C01862FBA
:1025700049835A830E94E50F4981C42E5A81D52E82
:1025800076018EEFF81AF60181916F010E94E50F36
:10259000CE14DF04C1F78FEF0E94E50F8FEF0E948A
:1025A000E50F0E94EC0FF8018287982F9F719530FC
:1025B00039F081E18583C8010E94001080E001C0EC
:1025C00081E00F900F90DF91CF911F910F91FF90BD
:1025D000EF90DF90CF9008950F931F93CF93DF93E9
:1025E000EC018901411551056105710511F482E184
:1025F00032C08B85833039F089E0440F551F661F48
:10260000771F8A95D1F79A01AB0168E1CE010E944C
:10261000B310882311F084E01EC0A8016EEFCE0134
:102620000E94AB128823C1F068E572E0CE010E94DF
:102630009810811102C085E10EC020E030E0A901B0
:102640006DE0CE010E94B310811104C00E94EC0F16
:10265000882339F084E18D83CE010E94001080E050
:1026600004C0CE010E94001081E0DF91CF911F9144
:102670000F910895EBEFF1E080E5808311820895DA
:10268000CF93DF93EC019C012A5F3F4F41E050E084
:1026900060E070E08B8D9C8D0E94D31C8823A1F09C
:1026A0008F89988DA98DBA8D892B8A2B8B2B59F404
:1026B0008E819F81A885B9858F8B988FA98FBA8FBE
:1026C0008C8180688C8381E0DF91CF910895CF92D7
:1026D000DF92EF92FF921F93CF93DF93EC010E9462
:1026E0004013811102C080E04AC0EB8DFC8DCE808A
:1026F000DF80E884F98482E0C81AD108E108F10893
:10270000058404C0CC0CDD1CEE1CFF1C0A94D2F71F
:1027100086859785A089B189C80ED91EEA1EFB1E41
:10272000148181E0C81AD108E108F108112361F091
:10273000C701B601610F711D811D911D0E94221BF1
:10274000882389F21150F2CFEB8DFC8D80E092E06E
:10275000A0E0B0E0058404C0880F991FAA1FBB1F2A
:102760000A94D2F74B895C896D897E89840F951F05
:10277000A61FB71F8B8B9C8BAD8BBE8B81E0DF912F
:10278000CF911F91FF90EF90DF90CF900895CF935E
:10279000DF93EC01462F6E857F85888999890E9499
:1027A000E71A882341F08A8920E2829FC001112420
:1027B0008A5F9D4F02C080E090E0DF91CF91089545
:1027C000FB019B01255F3F4F40E24193E217F30776
:1027D000E1F7DC0190E027E08D91882319F18E323A
:1027E00019F0EDE4F1E008C02A3009F198E02AE0A0
:1027F000F3CF31963817D9F034913111FACF291728
:10280000B0F03FED380F3E3590F431E0390FFB0169
:10281000E90FF11D9FE9980F9A3108F480528083E7
:10282000932FDACF81E0FB019081903209F480E0B0
:1028300008950F931F93CF93DF93FC0125812223EB
:1028400011F080E042C08B01EC01FB0187898031EF
:10285000B1F482E08D831F8A188E198E1A8E808DB6
:10286000918DA0E0B0E025E0880F991FAA1FBB1F43
:102870002A95D1F78B8B9C8BAD8BBE8B15C080328C
:1028800001F783E08D83FB01428D538D648D758D3F
:102890004F8B588F698F7A8F9E012D5E3F4FC801F5
:1028A0000E94CA1B882369F21C8F0B8F81E08C83E6
:1028B0001E821F82188619861A861B861C861D8614
:1028C0001E861F86188A198A1A8ADF91CF911F9156
:1028D0000F9108952F923F924F925F926F927F9245
:1028E0008F929F92AF92BF92CF92DF92EF92FF9220
:1028F0000F931F93CF93DF93EC015B014A018D810E
:10290000811103C08FEF9FEFD7C08C8180FFFACF7A
:102910004B885C886D887E884A855B856C857D8563
:10292000C401A0E0B0E093018201041B150B260B4B
:10293000370B081719072A073B0718F44201841AB6
:10294000950A24011E0126E0220E311C4114510477
:1029500009F47EC04A855B856C857D856A0181E0CE
:10296000D822ED818A019B0189E03695279517953C
:1029700007958A95D1F78B8D9C8DE23061F4FC012F
:10298000828D938DA48DB58DBC01CD01600F711F1B
:10299000821F931F3FC0FC0174807A947022C1147F
:1029A000D104C9F4711017C0452B462B472B49F4AD
:1029B0008F89988DA98DBA8D8E839F83A887B987BB
:1029C0000AC04E815F816885798591010E94461B0E
:1029D000882309F497CFEB8DFC8D8E819F81A8858C
:1029E000B9850297A109B109058404C0880F991F10
:1029F000AA1FBB1F0A94D2F7468557856089718943
:102A0000840F951FA61FB71FBC01CD01670D711D57
:102A1000811D911D20E032E02C193D093201241561
:102A2000350508F439012C8126FD04C06114F2E05B
:102A30007F0679F500911D0110911E0120911F0163
:102A400030912001601771078207930719F421C0A4
:102A5000C40132C0750183019601AB01BC018091B4
:102A60000402909105020E948B12882309F44ACF38
:102A7000A60CB71C8A859B85AC85BD85860D971DE8
:102A8000A11DB11D8A879B87AC87BD874618570853
:102A90005DCF40E00E94E71A882309F433CFF601A6
:102AA000EA5FFD4FD501CF01860D971DE817F907A5
:102AB000F9F221912D93FACFDF91CF911F910F91D0
:102AC000FF90EF90DF90CF90BF90AF909F908F904E
:102AD0007F906F905F904F903F902F900895FF925E
:102AE0000F931F93CF93DF931F92CDB7DEB7FC01F7
:102AF0002581223018F480E090E033C08C01FC0185
:102B0000428553856485758585E0769567955795EB
:102B100047958A95D1F7F42FFF70FF2E41E050E0E2
:102B2000BE016F5F7F4FC8010E946A14019719F4BC
:102B3000898190E002C08FEF9FEF0196E1F2F801EA
:102B400082859385A485B5854F96A11DB11D828789
:102B50009387A487B587F0E2FF9EC00111248A5FA6
:102B60009D4F0F90DF91CF911F910F91FF9008958E
:102B70008F929F92AF92BF92CF92DF92EF92FF928D
:102B80000F931F93CF93DF93EC018D81811102C0CE
:102B900080E077C00B891C892D893E8904171507B1
:102BA00026073707A8F36A017B01823029F4CA8619
:102BB000DB86EC86FD860DC0C114D104E104F1046E
:102BC00051F41E821F82188619861A861B861C865F
:102BD0001D8681E056C08A849B84AC84BD84EB8DC5
:102BE000FC8D258530E0275F3F4FB501A4014150A2
:102BF000510961097109022E04C0769567955795B0
:102C000047950A94D2F7D701C6010197A109B109E6
:102C100004C0B695A795979587952A95D2F78417FE
:102C20009507A607B70720F089288A288B2849F43A
:102C30004F89588D698D7A8D4E835F836887798738
:102C400004C0841B950BA60BB70B4C015D018E01D4
:102C50000A5F1F4F81149104A104B10409F4A7CFA6
:102C60004E815F816885798598018B8D9C8D0E944E
:102C7000461B91E0891A9108A108B1088111EACF99
:102C800087CFDF91CF911F910F91FF90EF90DF9051
:102C9000CF90BF90AF909F908F9008950F931F9308
:102CA000CF93DF93EC018D818823C9F18C8187FF5D
:102CB00030C061E0CE010E94C7138C01892B79F1ED
:102CC0008D81823048F48B899C89AD89BE89F80159
:102CD000848F958FA68FB78F8F89988DA98DBA8D88
:102CE000F801938F828FB58BA48BE091FD01F09159
:102CF000FE01309759F0B8016A5E7F4FC8014896CF
:102D00000995F801808D918D938B828B8C818F77C3
:102D10008C83DF91CF911F910F910C94AC1A80E0BE
:102D2000DF91CF911F910F910895CF93DF93EC0125
:102D30000E944E16882311F01D8281E0DF91CF9111
:102D400008954F925F926F927F928F929F92AF926F
:102D5000BF92EF92FF920F931F93CF93DF9300D018
:102D600000D0CDB7DEB7FC0185818130E9F48481E4
:102D700081FF1AC083899489A589B689841795072C
:102D8000A607B70788F0892B8A2B8B2B09F479C00B
:102D90004A015B017F014284538464847584CF01BE
:102DA0000E94B815811102C080E06CC0F701838DCC
:102DB000948D81149104A104B10471F44789508D5C
:102DC000618D728D0E94E81D882371F3F701178AC7
:102DD000108E118E128E3AC0F701468157816085A0
:102DE00071859E012F5F3F4F0E94461B8823E1F2B1
:102DF00049815A816B817C81F701838D948DFC011F
:102E00002789203129F008EF1FEF2FEF3FE004C0A2
:102E100008EF1FEF20E030E040175107620773070B
:102E2000A8F40E94E81D882309F4BECFF70146816B
:102E30005781608571850FEF1FEF2FEF3FE0838D86
:102E4000948D0E94331C882309F4AECFF701838A46
:102E5000948AA58AB68A848180688483C7010E9487
:102E60004E16882309F4A0CFB501A40148145904D3
:102E70006A047B0410F4B301A201C7010E94B815D3
:102E800001C081E00F900F900F900F90DF91CF91D4
:102E90001F910F91FF90EF90BF90AF909F908F90F8
:102EA0007F906F905F904F9008951F93CF93DF9323
:102EB000EC0180E2689FF00111249F012A5F3D4FE1
:102EC000D9011B969C91917129F0842F827411F085
:102ED00080E05BC0142F6A8B80911D0190911E01D0
:102EE000A0911F01B09120018E879F87A88BB98B7D
:102EF000EA5FFD4F4489558960E070E0BA015527CB
:102F000044274F8B588F698F7A8F828D938DA0E0E5
:102F1000B0E0482B592B6A2B7B2B4F8B588F698F36
:102F20007A8FD9011B968C91887151F4848D958D7F
:102F3000A68DB78D8B8B9C8BAD8BBE8B81E00DC02E
:102F4000803131F69E012D5E3F4F8B8D9C8D0E940E
:102F5000CA1B882309F4BCCF84E08D83812F8F7036
:102F60008C831E821F82188619861A861B861C86F1
:102F70001D8616FF09C040E050E0BA01CE01DF9186
:102F8000CF911F910C94A11681E0DF91CF911F91F9
:102F90000895CF92DF92EF92FF920F931F93CF93FA
:102FA000DF93CDB7DEB72C970FB6F894DEBF0FBE18
:102FB000CDBFFC0135813111C2C0D22E8B017C0105
:102FC000BE016F5F7F4FCA010E94E013882309F49E
:102FD000B6C0F801838D948DF701948F838FF8012B
:102FE000168217821086118612861386148615861D
:102FF00030E0F80182859385A485B585438954899D
:103000006589768984179507A607B70708F041C038
:1030100025E0B695A795979587952A95D1F7F82F2E
:10302000FF70CF2EC8013C870E946F153C8500972A
:1030300009F485C0FC012081222309F484C0253EC7
:1030400099F04BE050E0BC01CE0101963C870E9414
:1030500046223C85892B69F68D2D8073803309F4D7
:103060006EC04D2D6C2D67C031116BC0F701C28A47
:1030700040911D0150911E0160911F01709120012E
:1030800046875787608B718BFC01808131E081110D
:10309000B0CF8D2D8271823109F051C0332341F0C0
:1030A00061E0C7010E94C7138C01892B79F447C0E6
:1030B000F8018581823009F442C0C8010E9467137B
:1030C0008823E9F1F701128A06E012E080E2F801B4
:1030D00011928A95E9F78BE0FE013196D8010190B3
:1030E0000D928A95E1F7E091FD01F091FE01309794
:1030F00039F0B801625F7F4FC8014096099509C059
:1031000081E298E2F801918B808B80E098E09787CC
:103110008687F80180899189938B828B918F808F2C
:1031200086859785978B868B0E94AC1A882339F009
:103130004D2DF7016289C7010E94551709C080E033
:1031400007C031E056CF332309F490CF31E0A1CF4F
:103150002C960FB6F894DEBF0FBECDBFDF91CF9196
:103160001F910F91FF90EF90DF90CF900895CF9334
:10317000DF93EC0140E050E0BA010E94A1168823E1
:1031800071F061E0CE010E94C713009741F025EE77
:10319000FC0120831D82DF91CF910C94AC1A80E05A
:1031A000DF91CF910895CF93DF93CDB7DEB76D97C1
:1031B0000FB6F894DEBF0FBECDBFAB011C821B82E1
:1031C00027E431E03A8329831E8222E0BC01CE014C
:1031D00001960E94C917882321F0CE0101960E9412
:1031E000B7186D960FB6F894DEBF0FBECDBFDF9156
:1031F000CF9108952F923F924F925F926F927F925C
:103200008F929F92AF92BF92CF92DF92EF92FF92F6
:103210000F931F93CF93DF9300D000D0CDB7DEB7CD
:103220008C016B013A01DC0115968C911597813068
:10323000C9F414968C9181FF15C082FF1DC0F8015E
:10324000438954896589768982859385A485B58566
:1032500084179507A607B70779F0C8010E94B8152B
:1032600081110AC081E090E0D80113969C938E935F
:10327000129780E090E048C1430184C0D8015B967A
:103280008D919C915C97FC0154802FEF250D1A01C4
:103290002B0139E056944794379427943A95D1F707
:1032A000522E52207A01F1E0FF22552009F476C017
:1032B00080E092E08E199F0954018815990508F461
:1032C0005C01D8015B962D913C915C9716968D918F
:1032D0009D910D90BC91A02D0297A109B109F90112
:1032E000058404C0880F991FAA1FBB1F0A94D2F738
:1032F0004685578560897189840F951FA61FB71F62
:103300009C01AD01250D311D411D511D19012A01E1
:10331000A11432E0B30609F088C080911D0190919C
:103320001E01A0911F01B091200182159305A405F3
:10333000B50559F48FEF9FEFDC0180931D01909349
:103340001E01A0931F01B09320019601B201A101BB
:1033500080910402909105020E94EC12882309F4E6
:1033600081CF9EEFD91A8A189B08F8018285938530
:10337000A485B5858A0D9B1DA11DB11D82879387EC
:10338000A487B587D8011A964D915D916D917C9176
:103390001D978114910409F071CF87C0E114F104E5
:1033A00009F086CF16964D915D916D917C9119979C
:1033B000411551056105710559F457968D919D91FF
:1033C0000D90BC91A02D0097A105B10541F521C03C
:1033D0009E012F5F3F4F0E94461B882309F44ACF6E
:1033E00089819A81AB81BC81F801238D348DF901EB
:1033F0002789203129F048EF5FEF6FEF7FE004C0AD
:1034000048EF5FEF60E070E084179507A607B70705
:1034100030F0C8010E94401381114ACF23CFF80138
:1034200086839783A087B18743CFE114F10429F500
:10343000D8011A964D915D916D917C911D9753968F
:103440008D919D910D90BC91A02D481759076A0749
:103450007B0798F00E94AC1A882309F403CF2092CE
:103460001D0130921E0140921F0150922001809157
:10347000030281608093030208C041E0C201B101F0
:103480000E94E71A882309F4EDCED601F701EA5F1E
:10349000FD4FCF018A0D9B1DE817F90719F02D91FB
:1034A0002193FACFCA0CDB1C5ECF5396CD90DD90F2
:1034B000ED90FC90569714968C91C416D506E606AE
:1034C000F70640F4F801438B548B658B768B80684C
:1034D00084830DC02091FD013091FE01232B39F032
:1034E0006114710421F08068D80114968C93F8015E
:1034F000848183FD02C0C30107C0C8010E944E162B
:10350000882309F4AFCEF7CF0F900F900F900F9054
:10351000DF91CF911F910F91FF90EF90DF90CF90AF
:10352000BF90AF909F908F907F906F905F904F90E3
:103530003F902F900895CF93DF931F92CDB7DEB7C2
:10354000698341E050E0BE016F5F7F4F0E94FA182F
:103550000F90DF91CF910895809103028823A9F104
:1035600040911D0150911E0160911F017091200139
:1035700026E032E080910402909105020E94EC1254
:10358000811102C080E008954091FF015091000236
:1035900060910102709102024115510561057105AA
:1035A00091F026E032E080910402909105020E94A1
:1035B000EC12882339F31092FF011092000210924E
:1035C0000102109202021092030281E00895CF924C
:1035D000DF92EF92FF92CF936B017C01C42F809119
:1035E0001D0190911E01A0911F01B09120018C1529
:1035F0009D05AE05BF05D1F00E94AC1A811102C035
:1036000080E01AC026E032E0B701A60180910402F2
:10361000909105020E949B12882391F3C0921D0194
:10362000D0921E01E0921F01F092200180910302CE
:10363000C82BC093030281E0CF91FF90EF90DF9001
:10364000CF900895CF92DF92EF92FF926B017C01B1
:103650000E94AC1A8823A9F0E6E0F2E0119284E01F
:10366000E630F807D9F7C0921D01D0921E01E09212
:103670001F01F09220018091030281608093030278
:1036800081E0FF90EF90DF90CF9008958F929F920E
:10369000AF92BF92CF92DF92EF92FF920F931F9360
:1036A000CF93DF93FC0181859285A385B485019634
:1036B000A11DB11D84179507A607B70710F480E078
:1036C0005CC083899489A589B689C789C03129F4EA
:1036D000852E962EA72EBB2409C04A015B01C7E0A8
:1036E000B694A79497948794CA95D1F7E9016A0193
:1036F0007B018F01BC01CD01680D791D8A1D9B1DC9
:1037000080901D0190901E01A0901F01B09020019B
:10371000681579058A059B0599F4F8018789803138
:10372000A9F4B701A601552766277727440F551F2F
:10373000FA01EA5FFD4F80819181A0E0B0E018C0FE
:1037400040E00E94E71A8111E8CFB9CFB701A60186
:103750004F77552766277727440F551F440F551F6E
:10376000FA01EA5FFD4F80819181A281B381BF7030
:1037700088839983AA83BB8381E0DF91CF911F91D6
:103780000F91FF90EF90DF90CF90BF90AF909F9000
:103790008F9008954F925F926F927F92AF92BF92F7
:1037A000CF92DF92EF92FF920F931F93CF93DF930D
:1037B00000D000D0CDB7DEB78C0149835A836B832C
:1037C0007C835901C12CD12C7601412C82E0582EEA
:1037D000612C712C49815A816B817C819E012F5F04
:1037E0003F4FC8010E94461B882351F1D301C201FB
:1037F000F801058404C0880F991FAA1FBB1F0A94F3
:10380000D2F7C80ED91EEA1EFB1E49815A816B8170
:103810007C818789803129F088EF9FEFAFEFBFE08F
:1038200004C088EF9FEFA0E0B0E0481759076A078F
:103830007B0780F2F501C082D182E282F38281E0CF
:103840000F900F900F900F90DF91CF911F910F91DC
:10385000FF90EF90DF90CF90BF90AF907F906F90F0
:103860005F904F9008954F925F926F927F928F92E8
:103870009F92AF92BF92CF92DF92EF92FF920F93FF
:103880001F93CF93DF93EC016A017B01280139017B
:10389000423051056105710510F480E073C08985DF
:1038A0009A85AB85BC850196A11DB11D841795072E
:1038B000A607B70790F38B889C88AD88BE888F8950
:1038C000803129F4BB27AF2D9E2D8D2D09C0DB0142
:1038D000CA0147E0B695A795979587954A95D1F780
:1038E000880E991EAA1EBB1E80911D0190911E017B
:1038F000A0911F01B091200188169906AA06BB0667
:1039000079F48F898031A1F4DD24EE24FF24C601EF
:10391000880F991FFC01EA5FFD4F5182408219C058
:1039200040E0C501B4010E94E71A8111EACFB5CF8A
:10393000E894C7F8DD24EE24FF24C601880F991F00
:10394000880F991FFC01EA5FFD4F4082518262821D
:103950007382809103028160809303028A8982309E
:1039600080F08D819E81AF81B885880E991EAA1E38
:10397000BB1E8092FF0190920002A0920102B092C1
:10398000020281E0DF91CF911F910F91FF90EF90A4
:10399000DF90CF90BF90AF909F908F907F906F906F
:1039A0005F904F9008952F923F924F925F926F9247
:1039B0007F929F92AF92BF92CF92DF92EF92FF924F
:1039C0000F931F93CF93DF93CDB7DEB760970FB6FA
:1039D000F894DEBF0FBECDBF5C0149875A876B8765
:1039E0007C871901D901CD90DD90ED90FC90C11438
:1039F000D104E104F10431F0BFEFCB1ADB0AEB0A8A
:103A0000FB0A10C0FC01C080D180E280F3809924C1
:103A1000939409851A852B853C8501301105210574
:103A2000310509F0912CF50181859285A385B48536
:103A30008C019D010F5F1F4F2F4F3F4F0D871E873A
:103A40002F87388B260137011D821E821F82188620
:103A5000F50181859285A385B4850D811E812F8115
:103A60003885081719072A073B0708F056C02D8527
:103A70003E854F855889241535054605570550F470
:103A800082E0482E512C612C712C92E0C92ED12C51
:103A9000E12CF12C9E012F5F3F4FB301A201C50124
:103AA0000E94461B8823C9F149815A816B817C8120
:103AB000D301C2010196A11DB11D452B462B472BF9
:103AC00019F06C017D010FC0AC01BD014C195D09FD
:103AD0006E097F0909851A852B853C85401751079A
:103AE0006207730779F02D813E814F8158852F5FE2
:103AF0003F4F4F4F5F4F2D833E834F8358872C019D
:103B00003D01A6CF0FEF1FEF2FEF3FE0B301A20162
:103B1000C5010E94331C811118C080E041C0D3014F
:103B2000C2010197A109B1098D839E83AF83B88734
:103B300093018201AC01BD01C5010E94331C8823A1
:103B400061F34D805E806F807884C414D504E604F0
:103B5000F70428F3D1014D915D916D917C91411550
:103B600051056105710599F4F101C082D182E282AB
:103B7000F3829920A1F0FFEFCF1ADF0AEF0AFF0AC4
:103B8000D501CD92DD92ED92FC92139708C097017A
:103B90008601C5010E94331C8111E6CFBECF81E0B2
:103BA00060960FB6F894DEBF0FBECDBFDF91CF9108
:103BB0001F910F91FF90EF90DF90CF90BF90AF904B
:103BC0009F907F906F905F904F903F902F900895BF
:103BD000AF92BF92CF92DF92EF92FF920F931F931B
:103BE000CF93DF9300D000D0CDB7DEB75C016A0180
:103BF0007B0182E090E0A0E0B0E0F501808391835A
:103C0000A283B3839E012F5F3F4FB701A601C50179
:103C10000E94461B882311F100E010E09801B701D3
:103C2000A601C5010E94331C8823C1F0C980DA8037
:103C3000EB80FC80F5018789803129F088EF9FEFC8
:103C4000AFEFBFE004C088EF9FEFA0E0B0E0C81680
:103C5000D906EA06FB06B0F281E001C080E00F90D1
:103C60000F900F900F90DF91CF911F910F91FF90C8
:103C7000EF90DF90CF90BF90AF9008958F929F927A
:103C8000AF92BF92CF92DF92EF92FF920F931F936A
:103C9000CF93DF93EC01142F70930502609304021D
:103CA000442369F1453010F080E0F2C040E060E06C
:103CB00070E0CB010E94E71A8823B1F320E1129F44
:103CC000A00111244A505E4FFA01E254FE4F808158
:103CD0008F7751F73C9680819181A281B3818436A0
:103CE0009105A105B10500F33497C080D180E28031
:103CF000F380C114D104E104F10421F4D5CFC12C27
:103D0000D12C760140E0C701B6010E94E71A882352
:103D100059F280911102909112028115924021F680
:103D200090911602992309F4BFCF2091140230918B
:103D30001502232B09F4B8CF80911302882309F4CC
:103D4000B3CF9A8B8C831D8690E061E070E02D8567
:103D5000E22FAB01022E02C0440F551F0A94E2F776
:103D60008417950731F031E0320F3D87283078F322
:103D70009BCF20911C0230911D022115310519F0B5
:103D800040E050E008C020912A0230912B0240917F
:103D90002C0250912D022D833E834F8358878091B2
:103DA00014029091150246015701880E991EA11C1C
:103DB000B11C8B8A9C8AAD8ABE8A00911702109131
:103DC0001802198F088FA0911602B0E00E94FF2000
:103DD000860E971EA81EB91E8A8E9B8EAC8EBD8E37
:103DE00085E0000F111F8A95E1F701501E4F012F4A
:103DF00011270695800E911EA11CB11C8E869F86F0
:103E0000A88AB98A2091190230911A022115310528
:103E100021F0A90160E070E008C0409126025091B5
:103E200027026091280270912902D701C6018819E2
:103E30009909AA09BB09840F951FA61FB71F04C0C3
:103E4000B695A79597958795EA95D2F789879A872A
:103E5000AB87BC87853F2FE09207A105B10510F421
:103E60008CE014C0853F9F4FA105B10510F480E19F
:103E70000DC08091320290913302A0913402B09132
:103E800035028A8F9B8FAC8FBD8F80E28F8B81E054
:103E9000DF91CF911F910F91FF90EF90DF90CF9026
:103EA000BF90AF909F908F9008950895EF92FF92EA
:103EB0000F931F93CF93DF937B01FC01C281D381CA
:103EC00000E010E0209781F0E881F9810280F38121
:103ED000E02DB701CE01099597FD08C0080F191F05
:103EE0000884D985C02DEECFC80102C08FEF9FEFA7
:103EF000DF91CF911F910F91FF90EF9008950F9355
:103F00001F93CF93DF938B01FC01C281D381209754
:103F100071F0E881F9810480F581E02DB801CE01CE
:103F20000995009731F40884D985C02DF0CF80E041
:103F300090E0DF91CF911F910F9108950F931F9300
:103F4000CF93DF938B01FC01C281D381209771F065
:103F5000E881F9810680F781E02DB801CE0109954D
:103F6000080F111D0884D985C02DF0CFF8011082EB
:103F7000DF91CF911F910F9108950F931F93CF93CE
:103F8000DF938B01FC01C281D381209771F0E8811E
:103F9000F9810190F081E02DB801CE0109958111E0
:103FA00005C00884D985C02DF0CF80E0DF91CF9186
:103FB0001F910F91089580910A0481110DC082E034
:103FC0008093060484E08093070410920904109201
:103FD000080481E080930A0486E094E00895CF927B
:103FE000DF92EF92FF920F931F93CF93DF936C01B9
:103FF0007A018B01C0E0D0E0CE15DF0589F0D80151
:104000006D918D01D601ED91FC910190F081E02D33
:10401000C6010995892B11F47E0102C02196ECCFCF
:10402000C701DF91CF911F910F91FF90EF90DF902B
:10403000CF90089590E0FC013197EF30F105B0F595
:10404000EA5AFF4F0C94F920809180008F7703C0CB
:10405000809180008F7D8093800008958091800002
:10406000877FF9CF84B58F7702C084B58F7D84BDFB
:104070000895809190008F7707C0809190008F7D88
:1040800003C080919000877F809390000895809175
:10409000C0008F7703C08091C0008F7D8093C000E7
:1040A00008958091C200877F8093C2000895CF93C6
:1040B000DF9390E0FC01E458FE4F2491FC01E556AB
:1040C000FE4F8491882361F190E0880F991FFC01D5
:1040D000E853FE4FC591D491FC01E654FE4FA591E3
:1040E000B491611109C09FB7F8948881209582230B
:1040F0008883EC912E230BC0623061F49FB7F89453
:104100003881822F809583238883EC912E2B2C93EA
:104110009FBF06C08FB7F894E8812E2B28838FBFEE
:10412000DF91CF9108951F93CF93DF93282F30E035
:10413000F901E35AFE4F8491F901E458FE4FD491FE
:10414000F901E556FE4FC491CC23C9F0162F811119
:104150000E941A20EC2FF0E0EE0FFF1FE654FE4FF6
:10416000A591B4918FB7F894111105C09C91ED2FD2
:10417000E095E92302C0EC91ED2BEC938FBFDF912A
:10418000CF911F910895CF93CFB7F89480911504E4
:10419000811127C0ECEAF1E08491EDE8F1E094911F
:1041A000E82FF0E0EE0FFF1FE853FE4FA591B4910A
:1041B000EC91E92321F461E081E10E94932061E028
:1041C00081E10E9457208CB580618CBD8CB58064E4
:1041D0008CBD61E08FE00E94572061E080E10E9489
:1041E0005720809115048F5F80931504CFBFCF9126
:1041F0000895EE0FFF1F0590F491E02D09940E94A1
:104200000A21A59F900DB49F900DA49F800D911D34
:1042100011240895A29FB001B39FC001A39F700D08
:10422000811D1124911DB29F700D811D1124911DBE
:104230000895CF93DF938230910510F482E090E0EF
:10424000E0911804F091190420E030E0C0E0D0E0E3
:10425000309711F14081518148175907C0F0481734
:10426000590761F482819381209719F09B838A8397
:104270002BC0909319048093180426C02115310592
:1042800019F04217530718F49A01BE01DF01EF013C
:104290000280F381E02DDCCF2115310509F1281BC7
:1042A000390B2430310590F412968D919C9113971F
:1042B0006115710521F0FB019383828304C0909303
:1042C000190480931804FD01329644C0FD01E20FE9
:1042D000F31F81939193225031092D933C933AC05F
:1042E0002091160430911704232B41F420910201F0
:1042F000309103013093170420931604209100019C
:10430000309101012115310541F42DB73EB740919F
:10431000040150910501241B350BE0911604F09126
:104320001704E217F307A0F42E1B3F0B28173907D9
:1043300078F0AC014E5F5F4F2417350748F04E0F01
:104340005F1F50931704409316048193919302C00A
:10435000E0E0F0E0CF01DF91CF9108950F931F933C
:10436000CF93DF93009709F48CC0FC01329713823E
:10437000128200911804109119040115110581F49D
:1043800020813181820F931F2091160430911704F0
:104390002817390779F5F0931704E093160471C0D4
:1043A000D80140E050E0AE17BF0750F412962D91AF
:1043B0003C911397AD012115310509F1D901F3CFD6
:1043C0009D01DA013383228360817181860F971FFB
:1043D0008217930769F4EC0128813981260F371F72
:1043E0002E5F3F4F318320838A819B819383828319
:1043F000452B29F4F0931904E093180442C0139656
:10440000FC93EE931297ED01499159919E01240F6F
:10441000351FE217F30771F480819181840F951F96
:10442000029611969C938E938281938113969C930E
:104430008E931297E0E0F0E0D80112968D919C9156
:104440001397009719F0F8018C01F6CF8D919C918C
:1044500098012E5F3F4F820F931F209116043091D9
:1044600017042817390769F4309729F410921904B2
:104470001092180402C01382128210931704009342
:104480001604DF91CF911F910F910895FB01DC017C
:1044900004C08D910190801921F441505040C8F71B
:1044A000881B990B0895FC018191861721F08823C0
:1044B000D9F7992708953197CF010895FB01DC01C1
:1044C0004150504048F001900D920020C9F701C0C2
:0E44D0001D9241505040E0F70895F894FFCF40
:1044DE0000001A04800000082148FFFFFFFF00E1E2
:1044EE0000000000000000C18081000000FFFFFFFF
:1044FE00FF2F0000000000300577055A056A0546BB
:10450E0005570500000000B60BCC0BAD0C070C11C7
:0C451E000CE80B000000009B1AEF1F00CF
:00000001FF
