:100000000C9467000C948F000C948F000C948F005C
:100010000C948F000C948F000C948F000C948F0024
:100020000C948F000C948F000C948F000C948F0014
:100030000C948F000C948F000C948F000C948F0004
:100040000C94BB060C948F000C94F1050C942306C1
:100050000C948F000C948F000C948F000C948F00E4
:100060000C948F000C948F007C3C3E5E2B3D3F2F08
:100070005B5D3B2C2A225C000000000800020100AE
:100080000003040700000000000000000102040853
:1000900010204080010204081020010204081020F2
:1000A000040404040404040402020202020203031E
:1000B0000303030300000000250028002B000000BC
:1000C0000000240027002A005306860B310F11245C
:1000D0001FBECFEFD8E0DEBFCDBF11E0A0E0B1E0A2
:1000E000E0E6FBE302C005900D92A833B107D9F713
:1000F00024E0A8E3B1E001C01D92AB33B207E1F701
:1001000010E0C7E6D0E004C02197FE010E94451C24
:10011000C436D107C9F70E9481060C94AE1D0C9419
:1001200000002091080130910901FC0131832083F6
:100130008091060190910701FB01918380830895CE
:10014000FC0148E08CE89081292F30E03595279517
:10015000962790FD2827208366954150A1F70895A2
:100160000895682F88E391E00C9423051F93CF93A3
:10017000DF9300D0CDB7DEB7182F862F79839A830F
:100180000E94B1007981872F0E94B100812F0E94C7
:10019000B1009A81892F0F900F90DF91CF911F911D
:1001A0000C94B100AF92BF92CF92DF92EF92FF9288
:1001B0000F931F93CF93DF93CDB7DEB7EB970FB6B7
:1001C000F894DEBF0FBECDBF21E04EE051E06EEDF2
:1001D00071E0CE0181960E94F10ACE0181960E94C3
:1001E000E508882309F457C08E01075F1F4F5E01A1
:1001F000FCE0AF0EB11C40E250E0BE016F5F7F4FEC
:10020000CE0181960E947A08809709F044C08981C6
:10021000882309F440C0853E71F38C85887159F7B5
:1002200085E40E94B100CE0101967C01F701819125
:100230007F01803211F00E94B100E016F106B1F7A3
:100240008EE20E94B1007801F70181917F01803236
:1002500011F00E94B100EA14FB04B1F780E00E94A3
:10026000B100C98CDA8CE12CF12C7601DD24CC2490
:100270008F89988DA0E0B0E0C82AD92AEA2AFB2A03
:100280006D8D7E8D8F8D98A10E94B600C701B6013D
:100290000E94B600B0CFCE0181960E94D30880E0C4
:1002A0000E94B10081E0EB960FB6F894DEBF0FBE5E
:1002B000CDBFDF91CF911F910F91FF90EF90DF9015
:1002C000CF90BF90AF9008950F931F93CF93DF937C
:1002D0008C01C0E0D0E088E391E00E94A404892B67
:1002E00041F088E391E00E94BE04F801808381E040
:1002F0000CC061E070E080E090E00E94360721963B
:10030000C83EF3E0DF0739F780E0DF91CF911F911E
:100310000F9108958F929F92AF92BF92EF92FF92AA
:100320000F931F93CF93DF931F92CDB7DEB78C014E
:10033000FC011082118212821382E12CF12CCE0179
:1003400001960E946401882301F1498150E060E038
:1003500070E00E2C04C0440F551F661F771F0A94CF
:10036000D2F7F80180809180A280B380480D591D9A
:100370006A1D7B1D4083518362837383F8E0EF0E17
:10038000F11C90E2E916F104D1F60F90DF91CF91C4
:100390001F910F91FF90EF90BF90AF909F908F9023
:1003A0000895CF93DF9300D000D0CDB7DEB78BE4B4
:1003B0000E94B100CE0101960E948A01882361F05B
:1003C00049815A816B817C81709309016093080196
:1003D00050930701409306010F900F900F900F90DC
:1003E000DF91CF910895AF92BF92CF92DF92EF92BB
:1003F000FF920F931F93CF93DF9300D000D0CDB720
:10040000DEB75C01C12CD12C7601C416D506E606F8
:10041000F70671F08501C50149835A836B837C839C
:100420000E94640149815A816B817C81811102C0E3
:1004300080E00DC09FEFA91AB90AF80190819923B5
:1004400031F0FFEFCF1ADF0AEF0AFF0ADECF0F907D
:100450000F900F900F90DF91CF911F910F91FF9010
:10046000EF90DF90CF90BF90AF9008951F93CF9300
:10047000DF931F92CDB7DEB7CE0101960E946401D3
:10048000811102C010E013C089818235D9F788E557
:100490000E94B100CE0101960E946401182F8823AA
:1004A00089F38981823771F788E70E94B100812F33
:1004B0000F90DF91CF911F9108951F93CF93DF93FA
:1004C0001F92CDB7DEB7CE0101960E94640188234A
:1004D00061F069818EED91E00E94E809182F882370
:1004E00021F08BE40E94B10004C086E40E94B100B8
:1004F00010E0812F0F90DF91CF911F9108957F928F
:100500008F929F92AF92BF92CF92DF92EF92FF9223
:100510000F931F93CF93DF93CDB7DEB7CF56D1099B
:100520000FB6F894DEBF0FBECDBF8EE40E94B100BF
:10053000CE018F5B9F4F0E9467084EE050E060E065
:1005400070E0CE01845A9F4F0E94F301811104C0D4
:1005500086E40E94B100C3C0BE01645A7F4F8EED95
:1005600091E00E947B0B23E1AE01445A5F4F6EED98
:1005700071E0CE0101960E94F10A8B819C81259643
:100580009FAF8EAF25978D819E81AF81B8852996CB
:100590008CAF9DAFAEAFBFAF299789859A85AB85EC
:1005A000BC852D968CAF9DAFAEAFBFAF2D978DE0C4
:1005B000FE013D96DE01A35BBF4F01900D928A952F
:1005C000E1F78A8D9B8D6C969FAF8EAF6C97CE01B5
:1005D0008F5B9F4F0E94E508882309F4B9CF83E51C
:1005E0000E94B100CE0186599F4F0E948A01782E49
:1005F000882309F475C0E0961FAEE097AE96CCACA8
:10060000DDACEEACFFACAE9781E4C816D104E104DA
:10061000F10428F080E4C82ED12CE12CF12CC70184
:10062000B6010E94B600C114D104E104F10431F412
:10063000CE018F5B9F4F0E94D30852C08E010F5F87
:100640001F4F5801AC0CBD1C4801C8010E94640139
:10065000811114C0A601BE016F5F7F4FCE018F5B79
:100660009F4F0E94C30783E40E94B100CE018259CC
:100670009F4F0E94640181110EC02CC00F5F1F4F5D
:10068000F4016081CE0181599F4F0E94A0000A159C
:100690001B05D1F6DFCFE0969FADE097AF968FAD0B
:1006A000AF97981731F060E070E0CB010E94B60080
:1006B00011C0AE968CAD9DADAEADBFADAE978C19F1
:1006C0009D09AE09BF09AE968CAF9DAFAEAFBFAF6F
:1006D000AE9791CFCE018F5B9F4F0E94D308712CB4
:1006E000872DC159DF4F0FB6F894DEBF0FBECDBFC7
:1006F000DF91CF911F910F91FF90EF90DF90CF90FE
:10070000BF90AF909F908F907F900895CF92DF928F
:10071000EF92FF921F93CF93DF93CDB7DEB7C6540E
:10072000D1090FB6F894DEBF0FBECDBF8EE40E9494
:10073000B100CE014C960E9467084EE050E060E0A8
:1007400070E0CE01C7960E94F301182F811104C0FA
:1007500086E40E94B10090C021E0AE01495C5F4F89
:100760006EED71E0CE0101960E94F10A8B819C81B1
:100770009F8F8E8F8D819E81AF81B88588A399A32D
:10078000AAA3BBA389859A85AB85BC858CA39DA3B1
:10079000AEA3BFA38DE0FE013D96DE0198960190C9
:1007A0000D928A95E1F78A8D9B8D9EAB8DABCE0124
:1007B0004C960E94E508182F811106C060E070E099
:1007C000CB010E94B60058C0CE014C960E949408FE
:1007D0000E94B600CE0101960E948A01182F88233C
:1007E00009F445C089819A81AB81BC81892B8A2B10
:1007F0008B2B29F4CE014C960E94D3083DC027963E
:100800001FAE2797C12CD12C760189819A81AB81AB
:10081000BC81C816D906EA06FB06B8F4CE014C9690
:100820000E94FE0726968FAF26970E94B10026965B
:100830006FAD2697CE018A5B9F4F0E94A0008FEF7D
:10084000C81AD80AE80AF80AE0CFCE018B5B9F4F9E
:100850000E946401882359F026968FAD2697833431
:1008600031F427968FAD27970E94B100B3CFCE0108
:100870004C960E94D30810E0812FCA5BDF4F0FB661
:10088000F894DEBF0FBECDBFDF91CF911F91FF90D7
:10089000EF90DF90CF9008951F93CF93DF931F9237
:1008A000CDB7DEB710E0112339F0CE0101960E94DA
:1008B0006401811106C010E00E9436028111F5CF5B
:1008C000FBCF8981893489F048F48434C9F08534B8
:1008D00051F70F90DF91CF911F9108958435D1F09A
:1008E000853549F08C34F9F610C01111DCCF0E9427
:1008F0005D02182FD8CF1123F9F20E947F02D3CFC7
:100900001123D1F20E948603CECF1123A9F20E94B7
:10091000D200C9CF112381F20E94D101C4CF26E0B9
:1009200040E052EC61E070E088E391E00E946A05EB
:1009300081E990E090932B0280932A020E944C045C
:1009400088E391E00C94CF05FC01918D228D892FD5
:1009500090E0805C9F4F821B91098F7399270895C7
:10096000FC01918D828D981731F0828DE80FF11D79
:10097000858D90E008958FEF9FEF0895FC01918D94
:10098000828D981761F0828DDF01A80FB11D5D96F1
:100990008C91928D9F5F9F73928F90E008958FEF5F
:1009A0009FEF089589E496E0892B49F080E090E07C
:1009B000892B29F00E94490681110C9400000895AA
:1009C000FC01848DDF01A80FB11DA35ABF4F2C91EC
:1009D000848D90E001968F739927848FA689B789BB
:1009E0002C93A089B1898C9180648C93938D848D94
:1009F000981306C00288F389E02D80818F7D808363
:100A00000895CF93DF93EC01888D8823C9F0EA899C
:100A1000FB89808185FD05C0A889B9898C9186FDF7
:100A20000FC00FB607FCF5CF808185FFF2CFA889F4
:100A3000B9898C9185FFEDCFCE010E94E004E7CF0C
:100A4000DF91CF910895EF92FF920F931F93CF9371
:100A5000DF93EC0181E0888F9B8D8C8D981305C00E
:100A6000E889F989808185FD24C0F62E0B8D10E080
:100A70000F5F1F4F0F731127E02E8C8DE8120CC0F3
:100A80000FB607FCFACFE889F989808185FFF5CF99
:100A9000CE010E94E004F1CF8B8DFE01E80FF11D25
:100AA000E35AFF4FF0820B8FEA89FB8980818062D5
:100AB00007C0EE89FF896083E889F98980818064B5
:100AC000808381E090E0DF91CF911F910F91FF90A3
:100AD000EF900895CF92DF92EF92FF921F93CF9302
:100AE000DF93EC016A017B01122FE889F98982E02A
:100AF00080834115514E61057105B1F060E079E0E8
:100B00008DE390E0A70196010E94181CDA01C9014B
:100B10000197A109B109B695A79597958795AC015D
:100B2000411580E15807A8F0E889F989108260E84A
:100B300074E88EE190E0A70196010E94181CBA01AA
:100B4000A901415051096109710976956795579539
:100B50004795EC85FD855083EE85FF854083188E93
:100B6000EC89FD891083EA89FB898081806180831B
:100B7000EA89FB89808188608083EA89FB8980819A
:100B800080688083EA89FB8980818F7D8083DF9103
:100B9000CF911F91FF90EF90DF90CF900895CF936A
:100BA000DF93EC01E881F9810284F385E02D09955A
:100BB000EA89FB8980818F7E8083EA89FB89808135
:100BC000877F8083EA89FB8980818F778083EA89A8
:100BD000FB8980818F7D80838A8D898FDF91CF9182
:100BE00008951F920F920FB60F9211242F938F9397
:100BF0009F93EF93FF93E0914801F0914901808129
:100C0000E0914E01F0914F0182FD12C090818091E0
:100C100051018F5F8F7320915201821751F0E09143
:100C20005101F0E0E85CFE4F958F8093510101C0C7
:100C30008081FF91EF919F918F912F910F900FBE27
:100C40000F901F9018951F920F920FB60F921124BC
:100C50002F933F934F935F936F937F938F939F93C4
:100C6000AF93BF93EF93FF9388E391E00E94E0047A
:100C7000FF91EF91BF91AF919F918F917F916F9174
:100C80005F914F913F912F910F900FBE0F901F904A
:100C9000189588E391E00E94A40421E0892B09F4CF
:100CA00020E0822F0895E8E3F1E01382128288EEBB
:100CB00093E0A0E0B0E084839583A683B78384E1CA
:100CC00091E09183808385EC90E09587848784EC24
:100CD00090E09787868780EC90E0918B808B81EC09
:100CE00090E0938B828B82EC90E0958B848B86ECEA
:100CF00090E0978B868B118E128E138E148E089532
:100D000008950E9472070E9480060E948F04C2ED1F
:100D1000D4E00E94B0002097E1F30E94D204F9CF02
:100D2000CF92DF92EF92FF920F931F93CF93DF93B7
:100D30006C017A018B01C0E0D0E0CE15DF0589F0AF
:100D4000D8016D918D01D601ED91FC910190F0815A
:100D5000E02DC6010995892B11F47E0102C0219670
:100D6000ECCFC701DF91CF911F910F91FF90EF90D2
:100D7000DF90CF9008951F920F920FB60F9211241B
:100D80002F933F938F939F93AF93BF938091D601FF
:100D90009091D701A091D801B091D9013091D5019E
:100DA00023E0230F2D3720F40196A11DB11D05C0AE
:100DB00026E8230F0296A11DB11D2093D501809333
:100DC000D6019093D701A093D801B093D901809117
:100DD000DA019091DB01A091DC01B091DD01019677
:100DE000A11DB11D8093DA019093DB01A093DC017A
:100DF000B093DD01BF91AF919F918F913F912F9162
:100E00000F900FBE0F901F9018952FB7F894609118
:100E1000D6017091D7018091D8019091D9012FBF4F
:100E200008953FB7F8948091DA019091DB01A09189
:100E3000DC01B091DD0126B5A89B05C02F3F19F05C
:100E40000196A11DB11D3FBFBA2FA92F982F88274A
:100E5000820F911DA11DB11DBC01CD0142E0660FA5
:100E6000771F881F991F4A95D1F708958F929F92F7
:100E7000AF92BF92CF92DF92EF92FF926B017C0113
:100E80000E9411074B015C01C114D104E104F1047B
:100E900001F10E944C1B0E941107DC01CB01881953
:100EA0009909AA09BB09883E9340A105B10560F3E1
:100EB00021E0C21AD108E108F10888EE880E83E02B
:100EC000981EA11CB11CC114D104E104F10419F74E
:100ED000DBCFFF90EF90DF90CF90BF90AF909F90CF
:100EE0008F900895789484B5826084BD84B58160C4
:100EF00084BD85B5826085BD85B5816085BDEEE622
:100F0000F0E0808181608083E1E8F0E01082808100
:100F100082608083808181608083E0E8F0E080816E
:100F200081608083E1EBF0E0808184608083E0EB8E
:100F3000F0E0808181608083EAE7F0E08081846076
:100F400080838081826080838081816080838081D2
:100F5000806880831092C1000895CF93DF931F9221
:100F6000CDB7DEB76983DC01ED91FC910280F3819E
:100F7000E02D41E050E0BE016F5F7F4F09950F907B
:100F8000DF91CF910895CF93DF93EC01898D9A8DF6
:100F9000009739F481E090E09B838A8380E090E0C1
:100FA0000BC0FC01138212820E94F114E98DFA8DAC
:100FB00022813381232B71F7DF91CF910895FC01BA
:100FC000818D928D009711F00C9445120895CF9366
:100FD000DF931F92CDB7DEB741E050E0BE016F5FF7
:100FE0007F4F0E946110019719F4898190E002C03F
:100FF0008FEF9FEF0F90DF91CF910895FC01818DCE
:10100000928D009711F00C94E7078FEF9FEF0895F2
:101010000F931F93CF93DF93FC01818D928D0097E7
:10102000B9F0EF010E94E7078C010F3F8FEF18071F
:1010300091F0898D9A8DFC01428553856485758573
:1010400041505109610971090E94AF11C80105C0E1
:1010500080E090E002C08FEF9FEFDF91CF911F9172
:101060000F910895EF92FF920F931F93CF93DF9309
:10107000EC017B018A011B821A8288EE93E0A0E0DA
:10108000B0E08C839D83AE83BF8384E291E099833B
:1010900088838DE190E00E945A1C9A8F898F009777
:1010A00079F02DE1F701DC0101900D922A95E1F72D
:1010B0004CE050E0B801CE010C960E949F1D188EA6
:1010C000DF91CF911F910F91FF90EF900895FC0158
:1010D0001382128288EE93E0A0E0B0E084839583CF
:1010E000A683B78384E291E091838083128E118E70
:1010F00014860895FC01818D928D009711F00C9457
:10110000611080E090E00895DC015996ED91FC912A
:101110005A97309729F0628573858485958508955F
:101120006FEF7FEFCB010895DC015996ED91FC91B3
:101130005A97309729F0638974898589968908952B
:1011400060E070E0CB010895CF92DF92EF92FF92C2
:10115000CF93DF93FC01218D328D232BD9F0EC014D
:101160000E9494086B017C01CE010E948408A701B3
:101170009601261B370B480B590BDA01C901811563
:1011800030E89307A105B10538F08FEF9FE7A0E0A5
:10119000B0E002C080E090E0DF91CF91FF90EF904F
:1011A000DF90CF900895CF93DF93EC01898D9A8DD6
:1011B000009741F00E948C12898D9A8D0E94EF1C3D
:1011C0001A8E198EDF91CF910895DC015996ED9119
:1011D000FC915A97309721F081E09581911101C0DF
:1011E00080E00895442339F00E94CA1491E08111EF
:1011F00003C090E001C091E0892F08950F931F93E1
:10120000CF93DF93EC018B0141E00E94351A8111ED
:1012100009C040E0B801CE01DF91CF911F910F913D
:101220000C94351A81E0DF91CF911F910F910895B1
:101230000F931F93CF93DF93DA01EB01288139815C
:10124000FC01E20FF31F40814F3211F42F5F3F4F3B
:101250008D01E0E0F0E0AC01420F531FEA0158813C
:101260005F3259F0552349F031962F5F3F4FE80127
:1012700059938E01EC30F10571F7EA0FFB1F1082D4
:10128000FC01E20FF31F40814F3211F42F5F3F4FFB
:10129000FB0131832083FC01E20FF31F81E0908189
:1012A000911101C080E0DF91CF911F910F910895BE
:1012B0004F925F926F927F928F929F92AF92BF9266
:1012C000CF92DF92EF92FF920F931F93CF93DF9312
:1012D000CDB7DEB7C954D1090FB6F894DEBF0FBE43
:1012E000CDBF5C016B013A01490119A218A284E348
:1012F00091E09F8F8E8F1BA21C821B829A83898311
:101300001E822A961FAE1EAE2A978B017E018EE1A9
:10131000E80EF11C44244394AE01455C5F4FBE01CE
:10132000685B7F4FC5010E941809582E482F44253D
:101330009401BE01655C7F4FC801F30109958111DD
:1013400008C00C151D0519F0C8010E948C1280E020
:1013500027C05520B9F021E0AE01455C5F4FB801D0
:10136000C7010E94C013582E0C151D0599F0C80125
:101370000E948C12552059F3902F812F8701E92E5E
:10138000F82ECACF0C151D0519F0C8010E948C1249
:1013900081E006C08823D9F28E010F5F1F4FECCF8A
:1013A000C75BDF4F0FB6F894DEBF0FBECDBFDF9136
:1013B000CF911F910F91FF90EF90DF90CF90BF9052
:1013C000AF909F908F907F906F905F904F90089517
:1013D0000F931F93CF93DF93EC01462F61E00E94A0
:1013E0000C0D882389F08E01045F1F4FBE01C801D8
:1013F0000E94FE08882341F0B801CE018A960E941F
:10140000101091E0811101C090E0892FDF91CF9100
:101410001F910F910895FC01DB0112968D919C9113
:1014200013979383828384E391E09183808314965E
:101430008C911497848315968C91159785831696B5
:101440004D915D916D917C9119974683578360878B
:1014500071871A964D915D916D917C911D97428790
:101460005387648775871E964D915D916D917C9130
:10147000519746875787608B718B52968C91529704
:10148000828B53964D915D916D917C915697438BD4
:10149000548B658B768B57964D915D916D917C91B8
:1014A0005A97478B508F618F728F5B968D919C916D
:1014B0005C97948F838F08954F925F926F927F9283
:1014C0008F929F92AF92BF92CF92DF92EF92FF9254
:1014D0000F931F93CF93DF93CDB7DEB7C754D109D6
:1014E0000FB6F894DEBF0FBECDBF6C015A014901A3
:1014F000665D7F4F7E018EE1E80EF11CC7010E9400
:101500000B0A1C821B8284E391E09A8389831E82EA
:101510008501FE0131963F0127016FE270E0C801AD
:101520000E94941D0097D9F1F80120812F3219F4FF
:101530000F5F1F4FF2CF801B8D3008F08CE0E82E3C
:10154000F12CA701B801CE01CB960E949F1DEBE3C1
:10155000F0E0EC0FFD1FEE0DFF1D1082C3010E9495
:101560008C1221E0AE01455C5F4FB201C3010E94C5
:10157000C013811109C0F6011382128284E391E045
:1015800091838083158214C00E0D1F1DC2010E941D
:101590008C12942D852D2301692E782EBECF0A1929
:1015A0001B09F40111830083B201C6010E940B0ADA
:1015B000C601C95BDF4F0FB6F894DEBF0FBECDBFCB
:1015C000DF91CF911F910F91FF90EF90DF90CF901F
:1015D000BF90AF909F908F907F906F905F904F9053
:1015E0000895AF92BF92CF92DF92FF920F931F9315
:1015F000CF93DF93CDB7DEB7C955D1090FB6F894B5
:10160000DEBF0FBECDBF6C015B018A01F22E9E01D1
:10161000285A3F4FCE01CB960E945C0A6A968EAD47
:101620009FAD6A97080F191FF801808181110AC0C8
:10163000BE01655C7F4FCE0101960E940B0A4EE011
:1016400051E041C019A218A284E391E09F8F8E8FD0
:101650001BA221968FAD2197811104C0C6010E9463
:10166000670837C08250823060F4B501665D7F4FF5
:101670002F2DA801CE014E960E94C013811110C0DB
:10168000EDCF2F2DA801BE01655C7F4FCE014E9698
:101690000E94C013882311F3CE01CB960E948C12B6
:1016A0009F2D967041F049A95AA96BA97CA9CE013A
:1016B0004E960E94AF11BE01625E7F4FCE01019631
:1016C0000E940B0AA801BE016F5F7F4FC6010E94F6
:1016D0003208C601C75ADF4F0FB6F894DEBF0FBEFF
:1016E000CDBFDF91CF911F910F91FF90DF90CF90F1
:1016F000BF90AF900895FB01BC01665D7F4F20E075
:1017000030E042EF58E0CF010C945809EEEDF1E0E3
:10171000158216821186138682E090E0A0E0B0E088
:1017200084879587A687B78713A215A614A684E396
:1017300091E093A782A717A608950F93FC0130E0CC
:1017400080E092E1AAE7B0E0481759076A077B07F3
:1017500040F4B695A795979587953F5F3630A1F7EA
:1017600037E091E09327222311F020E501C020E724
:10177000892F86950C70082B022B00839170918322
:101780000F91089520913504222399F04FB7F894D2
:1017900020913504213059F42DB3209333043DB307
:1017A00020913404209523232DBB4FBF02C04093CA
:1017B00033048CBD9DBD08958EBD00000DB407FEA1
:1017C000FDCF8EB508958FEF0C94DC0B809135041E
:1017D000882361F09FB7F8942091350480913304F9
:1017E000213019F48DBB9FBF08958FBF089561E02C
:1017F000FC0184810E94B21B80912702882321F082
:10180000109227020C94E60B0895CF93DF93EC011E
:1018100080912702811109C081E080932702809185
:101820002802909129020E94C20B60E08C81DF9116
:10183000CF910C94B21BCF93DF93EC018E81882360
:1018400089F08F8198859C012F5F3F4F38872F83C8
:101850008230924018F40E94E30BF3CFCE010E9435
:10186000F70B1E82DF91CF9108950F93CF93DF93F3
:1018700000D0CDB7DEB7673028F026E1FC01258324
:1018800080E047C06230F9F058F46623A9F0613077
:1018900079F500E021E040E059E06DE370E02EC012
:1018A0006430F9F0B8F0653019F500E021E040E966
:1018B00050ED63E070E022C000E021E040E458E732
:1018C0006DE771E01BC000E021E040E854E86EE104
:1018D00070E014C000E021E040E452E46FE070E00A
:1018E0000DC000E021E040E251EA67E070E006C090
:1018F00000E021E048E458EE61E070E0CE0101969E
:101900000E949D0B89819A819093290280932802DD
:1019100081E00F900F90DF91CF910F9108950F9379
:101920001F93CF93DF93EB010E9405078B010E9469
:10193000E30B8F3F49F00E940507601B710B6C178A
:101940007D07A8F380E001C081E0DF91CF911F9176
:101950000F910895CF92DF92FF920F931F93CF9331
:10196000DF9300D000D0CDB7DEB76C01F62E29830F
:101970003A834B835C830E941B0CC6010E94050CBA
:101980006CE271E0C6010E948F0C8F2D80640E9472
:10199000DC0B08E110E05C814B813A812981DA019E
:1019A000C901002E04C0B695A795979587950A940E
:1019B000D2F729833A834B835C830E94DC0B085067
:1019C000110929813A814B815C81083F8FEF18070B
:1019D00031F7FF2029F0E8E0FE1204C087E803C0D9
:1019E00085E901C08FEF0E94DC0B10E00E94E30B41
:1019F000F601828787FF04C01F3F11F01F5FF6CFFB
:101A00000F900F900F900F90DF91CF911F910F913A
:101A1000FF90DF90CF9008957F928F929F92AF9228
:101A2000BF92CF92DF92EF92FF920F931F93CF93CB
:101A3000DF9300D0CDB7DEB77C01762EFC01138694
:101A400011861682158244830E9405076B0161E0AE
:101A5000F70184810E94761B61E0F70184810E9476
:101A6000B21B0E94E21B00E021E040E950ED63E080
:101A700070E0CE0101960E949D0B89819A8190931E
:101A80002902809328020E94C20B1AE08FEF0E9465
:101A9000DC0B1150D9F70E94E60BC7010E94050C20
:101AA00020E030E0A90160E0C7010E94AA0C082FE5
:101AB000F7018287813049F00E9405076C197D0982
:101AC000613D774068F381E04FC02AEA31E040E0B1
:101AD00050E068E0C7010E94AA0C82FF03C0F70132
:101AE00003870EC004E00E94E30BF70182870150D8
:101AF000D1F78A3A11F082E038C082E0F70183879B
:101B0000F7018385823021F0812C912C540105C08E
:101B1000812C912CA12C80E4B82E20E030E0A9018A
:101B200067E3C7010E94AA0CA501940169E2C701FD
:101B30000E94AA0CF7018287882349F00E940507BA
:101B40006C197D09613D774040F388E00DC08385C5
:101B50008230F1F420E030E0A9016AE3C7010E947D
:101B6000AA0C882339F086E0F7018583C7010E941B
:101B7000F70B16C00E94E30B807C803C19F483E0D5
:101B8000F70183870E94E30B0E94E30B0E94E30BA3
:101B9000C7010E94F70B672DC7010E94350C182F53
:101BA000812F0F900F90DF91CF911F910F91FF9098
:101BB000EF90DF90CF90BF90AF909F908F907F90ED
:101BC00008950F931F93CF93DF93EC010E940507B5
:101BD0008B010E94E30B8A878F3F49F40E9405071F
:101BE000601B710B6D327140A0F38FE003C08E3F1C
:101BF00039F08DE08D83CE010E94F70B80E001C0AB
:101C000081E0DF91CF911F910F910895CF92DF92E4
:101C1000EF92FF920F931F93CF93DF93EC01690133
:101C2000C801820F931F8130924008F05CC08E8102
:101C3000882371F088819981AA81BB81481759074F
:101C40006A077B0729F48F819885C816D90610F595
:101C5000488359836A837B838B85833039F089E09D
:101C6000440F551F661F771F8A95D1F79A01AB0164
:101C700061E1CE010E94AA0C882319F083E08D83D4
:101C800032C0CE010E94E10D882369F118861F82BF
:101C900081E08E838F8198858C159D0540F40E948C
:101CA000E30B8F819885019698878F83F3CF670127
:101CB000E00EF11ECE14DF0431F00E94E30BF601BA
:101CC00081936F01F7CF8F819885080F191F1887AF
:101CD0000F838985882319F00115124048F0CE0141
:101CE0000E941B0C05C0CE010E94F70B80E001C0D2
:101CF00081E0DF91CF911F910F91FF90EF90DF90E6
:101D0000CF900895EF92FF920F931F930115110545
:101D100019F00E94060E01C081E01F910F91FF9003
:101D2000EF900895EF92FF920F931F93790100E0D7
:101D300012E020E030E00E94060E1F910F91FF900C
:101D4000EF900895CF92DF92EF92FF920F931F933F
:101D5000CF93DF9300D0CDB7DEB78C01862F4983B8
:101D60005A830E94DC0B4981C42E5A81D52E7601FC
:101D70008EEFF81AF60181916F010E94DC0BCE14F0
:101D8000DF04C1F78FEF0E94DC0B8FEF0E94DC0BAA
:101D90000E94E30BF8018287982F9F71953039F0EC
:101DA00081E18583C8010E94F70B80E001C081E0DA
:101DB0000F900F90DF91CF911F910F91FF90EF90B7
:101DC000DF90CF9008950F931F93CF93DF93EC0193
:101DD0008901411551056105710511F482E132C097
:101DE0008B85833039F089E0440F551F661F771FBC
:101DF0008A95D1F79A01AB0168E1CE010E94AA0C45
:101E0000882311F084E01EC0A8016EEFCE010E946D
:101E1000A20E8823C1F068E572E0CE010E948F0C0B
:101E2000811102C085E10EC020E030E0A9016DE023
:101E3000CE010E94AA0C811104C00E94E30B8823EA
:101E400039F084E18D83CE010E94F70B80E004C05D
:101E5000CE010E94F70B81E0DF91CF911F910F918E
:101E60000895E8E2F2E080E5808311820895CF933F
:101E7000DF93EC019C012A5F3F4F41E050E060E0BE
:101E800070E08B8D9C8D0E94CA188823A1F08F89E9
:101E9000988DA98DBA8D892B8A2B8B2B59F48E8125
:101EA0009F81A885B9858F8B988FA98FBA8F8C81D8
:101EB00080688C8381E0DF91CF910895CF92DF928B
:101EC000EF92FF921F93CF93DF93EC010E94370FA5
:101ED000811102C080E04AC0EB8DFC8DCE80DF8096
:101EE000E884F98482E0C81AD108E108F108058481
:101EF00004C0CC0CDD1CEE1CFF1C0A94D2F78685B6
:101F00009785A089B189C80ED91EEA1EFB1E1481CF
:101F100081E0C81AD108E108F108112361F0C70176
:101F2000B601610F711D811D911D0E941917882333
:101F300089F21150F2CFEB8DFC8D80E092E0A0E0B1
:101F4000B0E0058404C0880F991FAA1FBB1F0A9424
:101F5000D2F74B895C896D897E89840F951FA61FF6
:101F6000B71F8B8B9C8BAD8BBE8B81E0DF91CF91AC
:101F70001F91FF90EF90DF90CF900895CF93DF9364
:101F8000EC01462F6E857F85888999890E94DE162F
:101F9000882341F08A8920E2829FC00111248D5C50
:101FA0009D4F02C080E090E0DF91CF910895FB014A
:101FB0009B01255F3F4F40E24193E217F307E1F7B2
:101FC000DC0190E027E08D91882319F18E3219F021
:101FD000E8E6F0E008C02A3009F198E02AE0F3CF03
:101FE00031963817D9F034913111FACF2917B0F062
:101FF0003FED380F3E3590F431E0390FFB01E90F2A
:10200000F11D9FE9980F9A3108F480528083932F35
:10201000DACF81E0FB019081903209F480E00895ED
:102020000F931F93CF93DF93FC012581222311F09F
:1020300080E042C08B01EC01FB0187898031B1F463
:1020400082E08D831F8A188E198E1A8E808D918D55
:10205000A0E0B0E025E0880F991FAA1FBB1F2A95BA
:10206000D1F78B8B9C8BAD8BBE8B15C0803201F76B
:1020700083E08D83FB01428D538D648D758D4F8B75
:10208000588F698F7A8F9E012D5E3F4FC8010E9445
:10209000C117882369F21C8F0B8F81E08C831E820D
:1020A0001F82188619861A861B861C861D861E8628
:1020B0001F86188A198A1A8ADF91CF911F910F9172
:1020C00008952F923F924F925F926F927F928F92DC
:1020D0009F92AF92BF92CF92DF92EF92FF920F93B7
:1020E0001F93CF93DF93EC015B014A018D81811136
:1020F00003C08FEF9FEFD7C08C8180FFFACF4B8852
:102100005C886D887E884A855B856C857D85C40189
:10211000A0E0B0E093018201041B150B260B370BE6
:10212000081719072A073B0718F44201841A950A71
:1021300024011E0126E0220E311C4114510409F431
:102140007EC04A855B856C857D856A0181E0D822E9
:10215000ED818A019B0189E03695279517950795B2
:102160008A95D1F78B8D9C8DE23061F4FC01828DD4
:10217000938DA48DB58DBC01CD01600F711F821FA1
:10218000931F3FC0FC0174807A947022C114D10463
:10219000C9F4711017C0452B462B472B49F48F8982
:1021A000988DA98DBA8D8E839F83A887B9870AC021
:1021B0004E815F816885798591010E943D17882352
:1021C00009F497CFEB8DFC8D8E819F81A885B98511
:1021D0000297A109B109058404C0880F991FAA1F9D
:1021E000BB1F0A94D2F74685578560897189840F91
:1021F000951FA61FB71FBC01CD01670D711D811D65
:10220000911D20E032E02C193D09320124153505DD
:1022100008F439012C8126FD04C06114F2E07F0628
:1022200079F500910A0110910B0120910C01309178
:102230000D01601771078207930719F421C0C401CB
:1022400032C0750183019601AB01BC01809131025E
:10225000909132020E94820E882309F44ACFA60C84
:10226000B71C8A859B85AC85BD85860D971DA11DF4
:10227000B11D8A879B87AC87BD87461857085DCFFD
:1022800040E00E94DE16882309F433CFF601ED5CAE
:10229000FD4FD501CF01860D971DE817F907F9F21B
:1022A00021912D93FACFDF91CF911F910F91FF9044
:1022B000EF90DF90CF90BF90AF909F908F907F90E6
:1022C0006F905F904F903F902F900895FF920F93E3
:1022D0001F93CF93DF931F92CDB7DEB7FC0125810B
:1022E000223018F480E090E033C08C01FC0142857C
:1022F00053856485758585E07695679557954795EF
:102300008A95D1F7F42FFF70FF2E41E050E0BE0117
:102310006F5F7F4FC8010E946110019719F4898196
:1023200090E002C08FEF9FEF0196E1F2F801828505
:102330009385A485B5854F96A11DB11D828793878E
:10234000A487B587F0E2FF9EC00111248D5C9D4FEC
:102350000F90DF91CF911F910F91FF9008958F9271
:102360009F92AF92BF92CF92DF92EF92FF920F9324
:102370001F93CF93DF93EC018D81811102C080E028
:1023800077C00B891C892D893E89041715072607FC
:102390003707A8F36A017B01823029F4CA86DB86FD
:1023A000EC86FD860DC0C114D104E104F10451F4A2
:1023B0001E821F82188619861A861B861C861D8619
:1023C00081E056C08A849B84AC84BD84EB8DFC8DF7
:1023D000258530E0275F3F4FB501A40141505109E9
:1023E00061097109022E04C0769567955795479546
:1023F0000A94D2F7D701C6010197A109B10904C017
:10240000B695A795979587952A95D2F7841795073E
:10241000A607B70720F089288A288B2849F44F8916
:10242000588D698D7A8D4E835F836887798704C064
:10243000841B950BA60BB70B4C015D018E010A5F47
:102440001F4F81149104A104B10409F4A7CF4E8158
:102450005F816885798598018B8D9C8D0E943D17E1
:1024600091E0891A9108A108B1088111EACF87CFBC
:10247000DF91CF911F910F91FF90EF90DF90CF9060
:10248000BF90AF909F908F9008950F931F93CF931D
:10249000DF93EC018D818823C9F18C8187FF30C0E7
:1024A00061E0CE010E94BE0F8C01892B79F18D81F4
:1024B000823048F48B899C89AD89BE89F801848F6C
:1024C000958FA68FB78F8F89988DA98DBA8DF801BA
:1024D000938F828FB58BA48BE0912A02F0912B020F
:1024E000309759F0B8016A5E7F4FC8014896099548
:1024F000F801808D918D938B828B8C818F778C836B
:10250000DF91CF911F910F910C94A31680E0DF9182
:10251000CF911F910F910895CF93DF93EC010E940B
:102520004512882311F01D8281E0DF91CF9108953B
:102530004F925F926F927F928F929F92AF92BF92D3
:10254000EF92FF920F931F93CF93DF9300D000D0B1
:10255000CDB7DEB7FC0185818130E9F4848181FF4C
:102560001AC083899489A589B68984179507A60717
:10257000B70788F0892B8A2B8B2B09F479C04A0185
:102580005B017F014284538464847584CF010E947F
:10259000AF11811102C080E06CC0F701838D948D72
:1025A00081149104A104B10471F44789508D618DA7
:1025B000728D0E94DF19882371F3F701178A108E3C
:1025C000118E128E3AC0F701468157816085718560
:1025D0009E012F5F3F4F0E943D178823E1F2498102
:1025E0005A816B817C81F701838D948DFC01278951
:1025F000203129F008EF1FEF2FEF3FE004C008EF74
:102600001FEF20E030E04017510762077307A8F47E
:102610000E94DF19882309F4BECFF7014681578154
:10262000608571850FEF1FEF2FEF3FE0838D948D55
:102630000E942A18882309F4AECFF701838A948A6E
:10264000A58AB68A848180688483C7010E94451266
:10265000882309F4A0CFB501A401481459046A04E1
:102660007B0410F4B301A201C7010E94AF1101C0A5
:1026700081E00F900F900F900F90DF91CF911F91FD
:102680000F91FF90EF90BF90AF909F908F907F90B1
:102690006F905F904F9008951F93CF93DF93EC015D
:1026A00080E2689FF00111249F012D5C3D4FD9010C
:1026B0001B969C91917129F0842F827411F080E017
:1026C0005BC0142F6A8B80910A0190910B01A0913D
:1026D0000C01B0910D018E879F87A88BB98BED5CA3
:1026E000FD4F4489558960E070E0BA0155274427C1
:1026F0004F8B588F698F7A8F828D938DA0E0B0E0D9
:10270000482B592B6A2B7B2B4F8B588F698F7A8FD5
:10271000D9011B968C91887151F4848D958DA68D6D
:10272000B78D8B8B9C8BAD8BBE8B81E00DC08031C8
:1027300031F69E012D5E3F4F8B8D9C8D0E94C117FF
:10274000882309F4BCCF84E08D83812F8F708C8324
:102750001E821F82188619861A861B861C861D8675
:1027600016FF09C040E050E0BA01CE01DF91CF91E1
:102770001F910C94981281E0DF91CF911F910895E1
:10278000CF92DF92EF92FF920F931F93CF93DF933D
:10279000CDB7DEB72C970FB6F894DEBF0FBECDBF16
:1027A000FC0135813111C2C0D22E8B017C01BE01EA
:1027B0006F5F7F4FCA010E94D70F882309F4B6C00C
:1027C000F801838D948DF701948F838FF801168221
:1027D000178210861186128613861486158630E0BD
:1027E000F80182859385A485B585438954896589D7
:1027F000768984179507A607B70708F041C025E03A
:10280000B695A795979587952A95D1F7F82FFF70DC
:10281000CF2EC8013C870E9466113C85009709F4C1
:1028200085C0FC012081222309F484C0253E99F053
:102830004BE050E0BC01CE0101963C870E94871D11
:102840003C85892B69F68D2D8073803309F46EC029
:102850004D2D6C2D67C031116BC0F701C28A4091BC
:102860000A0150910B0160910C0170910D01468796
:102870005787608B718BFC01808131E08111B0CF73
:102880008D2D8271823109F051C0332341F061E016
:10289000C7010E94BE0F8C01892B79F447C0F80153
:1028A0008581823009F442C0C8010E945E0F8823EE
:1028B000E9F1F701128A03E312E080E2F8011192D4
:1028C0008A95E9F78BE0FE013196D80101900D92CF
:1028D0008A95E1F7E0912A02F0912B02309739F0C6
:1028E000B801625F7F4FC8014096099509C081E237
:1028F00098E2F801918B808B80E098E0978786873B
:10290000F80180899189938B828B918F808F868546
:102910009785978B868B0E94A316882339F04D2DBF
:10292000F7016289C7010E944C1309C080E007C00B
:1029300031E056CF332309F490CF31E0A1CF2C966C
:102940000FB6F894DEBF0FBECDBFDF91CF911F91C0
:102950000F91FF90EF90DF90CF900895CF93DF938A
:10296000EC0140E050E0BA010E949812882371F017
:1029700061E0CE010E94BE0F009741F025EEFC0100
:1029800020831D82DF91CF910C94A31680E0DF910C
:10299000CF910895CF93DF93CDB7DEB76D970FB684
:1029A000F894DEBF0FBECDBFAB011C821B8224E3B7
:1029B00031E03A8329831E8222E0BC01CE010196D8
:1029C0000E94C013882321F0CE0101960E94AE140C
:1029D0006D960FB6F894DEBF0FBECDBFDF91CF91DD
:1029E00008952F923F924F925F926F927F928F92B3
:1029F0009F92AF92BF92CF92DF92EF92FF920F938E
:102A00001F93CF93DF9300D000D0CDB7DEB78C01FA
:102A10006B013A01DC0115968C9115978130C9F450
:102A200014968C9181FF15C082FF1DC0F801438967
:102A300054896589768982859385A485B5858417AF
:102A40009507A607B70779F0C8010E94AF11811159
:102A50000AC081E090E0D80113969C938E93129760
:102A600080E090E048C1430184C0D8015B968D911D
:102A70009C915C97FC0154802FEF250D1A012B01CE
:102A800039E056944794379427943A95D1F7522ECB
:102A900052207A01F1E0FF22552009F476C080E04F
:102AA00092E08E199F0954018815990508F45C017C
:102AB000D8015B962D913C915C9716968D919D91D6
:102AC0000D90BC91A02D0297A109B109F9010584CF
:102AD00004C0880F991FAA1FBB1F0A94D2F746850E
:102AE000578560897189840F951FA61FB71F9C01A8
:102AF000AD01250D311D411D511D19012A01A114E2
:102B000032E0B30609F088C080910A0190910B0170
:102B1000A0910C01B0910D0182159305A405B50596
:102B200059F48FEF9FEFDC0180930A0190930B0122
:102B3000A0930C01B0930D019601B201A101809107
:102B40003102909132020E94E30E882309F481CF72
:102B50009EEFD91A8A189B08F80182859385A4856F
:102B6000B5858A0D9B1DA11DB11D82879387A48702
:102B7000B587D8011A964D915D916D917C911D9705
:102B80008114910409F071CF87C0E114F10409F0B8
:102B900086CF16964D915D916D917C911997411557
:102BA00051056105710559F457968D919D910D90D0
:102BB000BC91A02D0097A105B10541F521C09E0152
:102BC0002F5F3F4F0E943D17882309F44ACF898128
:102BD0009A81AB81BC81F801238D348DF90127895D
:102BE000203129F048EF5FEF6FEF7FE004C048EF3E
:102BF0005FEF60E070E084179507A607B70730F035
:102C0000C8010E94370F81114ACF23CFF801868374
:102C10009783A087B18743CFE114F10429F5D80148
:102C20001A964D915D916D917C911D9753968D9162
:102C30009D910D90BC91A02D481759076A077B07FD
:102C400098F00E94A316882309F403CF20920A016A
:102C500030920B0140920C0150920D018091300294
:102C600081608093300208C041E0C201B1010E943E
:102C7000DE16882309F4EDCED601F701ED5CFD4F99
:102C8000CF018A0D9B1DE817F90719F02D912193AB
:102C9000FACFCA0CDB1C5ECF5396CD90DD90ED9041
:102CA000FC90569714968C91C416D506E606F70646
:102CB00040F4F801438B548B658B768B806884835A
:102CC0000DC020912A0230912B02232B39F0611480
:102CD000710421F08068D80114968C93F8018481E6
:102CE00083FD02C0C30107C0C8010E9445128823AA
:102CF00009F4AFCEF7CF0F900F900F900F90DF91A8
:102D0000CF911F910F91FF90EF90DF90CF90BF90E8
:102D1000AF909F908F907F906F905F904F903F907B
:102D20002F900895CF93DF931F92CDB7DEB76983BD
:102D300041E050E0BE016F5F7F4F0E94F1140F90A1
:102D4000DF91CF910895809130028823A9F14091BD
:102D50000A0150910B0160910C0170910D0123E368
:102D600032E080913102909132020E94E30E811193
:102D700002C080E0089540912C0250912D02609194
:102D80002E0270912F02411551056105710591F0D8
:102D900023E332E080913102909132020E94E30EEF
:102DA000882339F310922C0210922D0210922E02D9
:102DB00010922F021092300281E00895CF92DF929C
:102DC000EF92FF92CF936B017C01C42F80910A0197
:102DD00090910B01A0910C01B0910D018C159D05F6
:102DE000AE05BF05D1F00E94A316811102C080E09C
:102DF0001AC023E332E0B701A6018091310290911D
:102E000032020E94920E882391F3C0920A01D0925E
:102E10000B01E0920C01F0920D0180913002C82B61
:102E2000C093300281E0CF91FF90EF90DF90CF9080
:102E30000895CF92DF92EF92FF926B017C010E9486
:102E4000A3168823A9F0E3E3F2E0119284E0E333D0
:102E5000F807D9F7C0920A01D0920B01E0920C0159
:102E6000F0920D018091300281608093300281E008
:102E7000FF90EF90DF90CF9008958F929F92AF9246
:102E8000BF92CF92DF92EF92FF920F931F93CF9357
:102E9000DF93FC0181859285A385B4850196A11DF0
:102EA000B11D84179507A607B70710F480E05CC032
:102EB00083899489A589B689C789C03129F4852E6B
:102EC000962EA72EBB2409C04A015B01C7E0B69429
:102ED000A79497948794CA95D1F7E9016A017B0179
:102EE0008F01BC01CD01680D791D8A1D9B1D80904D
:102EF0000A0190900B01A0900C01B0900D01681593
:102F000079058A059B0599F4F80187898031A9F430
:102F1000B701A601552766277727440F551FFA01E9
:102F2000ED5CFD4F80819181A0E0B0E018C040E0F1
:102F30000E94DE168111E8CFB9CFB701A6014F7705
:102F4000552766277727440F551F440F551FFA0151
:102F5000ED5CFD4F80819181A281B381BF70888338
:102F60009983AA83BB8381E0DF91CF911F910F9159
:102F7000FF90EF90DF90CF90BF90AF909F908F9099
:102F800008954F925F926F927F92AF92BF92CF92CD
:102F9000DF92EF92FF920F931F93CF93DF9300D0B6
:102FA00000D0CDB7DEB78C0149835A836B837C8315
:102FB0005901C12CD12C7601412C82E0582E612C74
:102FC000712C49815A816B817C819E012F5F3F4F1B
:102FD000C8010E943D17882351F1D301C201F801B5
:102FE000058404C0880F991FAA1FBB1F0A94D2F73B
:102FF000C80ED91EEA1EFB1E49815A816B817C8155
:103000008789803129F088EF9FEFAFEFBFE004C0E0
:1030100088EF9FEFA0E0B0E0481759076A077B07E9
:1030200080F2F501C082D182E282F38281E00F90CA
:103030000F900F900F90DF91CF911F910F91FF9004
:10304000EF90DF90CF90BF90AF907F906F905F90A8
:103050004F9008954F925F926F927F928F929F92BE
:10306000AF92BF92CF92DF92EF92FF920F931F9396
:10307000CF93DF93EC016A017B01280139014230D3
:1030800051056105710510F480E073C089859A854A
:10309000AB85BC850196A11DB11D84179507A607B8
:1030A000B70790F38B889C88AD88BE888F89803164
:1030B00029F4BB27AF2D9E2D8D2D09C0DB01CA0140
:1030C00047E0B695A795979587954A95D1F7880ECD
:1030D000991EAA1EBB1E80910A0190910B01A0911E
:1030E0000C01B0910D0188169906AA06BB0679F469
:1030F0008F898031A1F4DD24EE24FF24C601880FDE
:10310000991FFC01ED5CFD4F5182408219C040E0E7
:10311000C501B4010E94DE168111EACFB5CFE89453
:10312000C7F8DD24EE24FF24C601880F991F880FFD
:10313000991FFC01ED5CFD4F4082518262827382D7
:10314000809130028160809330028A89823080F0E1
:103150008D819E81AF81B885880E991EAA1EBB1EE7
:1031600080922C0290922D02A0922E02B0922F02F9
:1031700081E0DF91CF911F910F91FF90EF90DF9051
:10318000CF90BF90AF909F908F907F906F905F9007
:103190004F9008952F923F924F925F926F927F923D
:1031A0009F92AF92BF92CF92DF92EF92FF920F93D6
:1031B0001F93CF93DF93CDB7DEB760970FB6F89428
:1031C000DEBF0FBECDBF5C0149875A876B877C8706
:1031D0001901D901CD90DD90ED90FC90C114D1047E
:1031E000E104F10431F0BFEFCB1ADB0AEB0AFB0A72
:1031F00010C0FC01C080D180E280F38099249394B8
:1032000009851A852B853C8501301105210531057D
:1032100009F0912CF50181859285A385B4858C01F7
:103220009D010F5F1F4F2F4F3F4F0D871E872F8729
:10323000388B260137011D821E821F821886F501F8
:1032400081859285A385B4850D811E812F81388566
:10325000081719072A073B0708F056C02D853E8539
:103260004F855889241535054605570550F482E0E9
:10327000482E512C612C712C92E0C92ED12CE12CBE
:10328000F12C9E012F5F3F4FB301A201C5010E94A7
:103290003D178823C9F149815A816B817C81D30113
:1032A000C2010196A11DB11D452B462B472B19F0DC
:1032B0006C017D010FC0AC01BD014C195D096E09A7
:1032C0007F0909851A852B853C85401751076207C0
:1032D000730779F02D813E814F8158852F5F3F4FD5
:1032E0004F4F5F4F2D833E834F8358872C013D0105
:1032F000A6CF0FEF1FEF2FEF3FE0B301A201C501F3
:103300000E942A18811118C080E041C0D301C20177
:103310000197A109B1098D839E83AF83B88793017B
:103320008201AC01BD01C5010E942A18882361F306
:103330004D805E806F807884C414D504E604F70461
:1033400028F3D1014D915D916D917C91411551050D
:103350006105710599F4F101C082D182E282F382A4
:103360009920A1F0FFEFCF1ADF0AEF0AFF0AD5017B
:10337000CD92DD92ED92FC92139708C097018601E1
:10338000C5010E942A188111E6CFBECF81E0609668
:103390000FB6F894DEBF0FBECDBFDF91CF911F9166
:1033A0000F91FF90EF90DF90CF90BF90AF909F90E4
:1033B0007F906F905F904F903F902F900895AF92C5
:1033C000BF92CF92DF92EF92FF920F931F93CF9312
:1033D000DF9300D000D0CDB7DEB75C016A017B017E
:1033E00082E090E0A0E0B0E0F50180839183A283C9
:1033F000B3839E012F5F3F4FB701A601C5010E9415
:103400003D17882311F100E010E09801B701A601F3
:10341000C5010E942A188823C1F0C980DA80EB8098
:10342000FC80F5018789803129F088EF9FEFAFEFAD
:10343000BFE004C088EF9FEFA0E0B0E0C816D90657
:10344000EA06FB06B0F281E001C080E00F900F9029
:103450000F900F90DF91CF911F910F91FF90EF9000
:10346000DF90CF90BF90AF9008958F929F92AF92D0
:10347000BF92CF92DF92EF92FF920F931F93CF9361
:10348000DF93EC01142F70933202609331024423D6
:1034900069F1453010F080E0F2C040E060E070E09B
:1034A000CB010E94DE168823B1F320E1129FA00118
:1034B00011244D5D5D4FFA01E254FE4F80818F77FC
:1034C00051F73C9680819181A281B3818436910528
:1034D000A105B10500F33497C080D180E280F3806C
:1034E000C114D104E104F10421F4D5CFC12CD12CB5
:1034F000760140E0C701B6010E94DE16882359F22A
:1035000080913E0290913F028115924021F6909168
:103510004302992309F4BFCF209141023091420226
:10352000232B09F4B8CF80914002882309F4B3CF4C
:103530009A8B8C831D8690E061E070E02D85E22FF0
:10354000AB01022E02C0440F551F0A94E2F7841704
:10355000950731F031E0320F3D87283078F39BCF6B
:103560002091490230914A022115310519F040E0BD
:1035700050E008C020915702309158024091590202
:1035800050915A022D833E834F8358878091410288
:103590009091420246015701880E991EA11CB11C50
:1035A0008B8A9C8AAD8ABE8A0091440210914502A2
:1035B000198F088FA0914302B0E00E943A1C860E3A
:1035C000971EA81EB91E8A8E9B8EAC8EBD8E85E07E
:1035D000000F111F8A95E1F701501E4F012F11278F
:1035E0000695800E911EA11CB11C8E869F86A88A0E
:1035F000B98A20914602309147022115310521F008
:10360000A90160E070E008C040915302509154025B
:103610006091550270915602D701C6018819990927
:10362000AA09BB09840F951FA61FB71F04C0B69532
:10363000A79597958795EA95D2F789879A87AB875B
:10364000BC87853F2FE09207A105B10510F48CE0FF
:1036500014C0853F9F4FA105B10510F480E10DC056
:1036600080915F0290916002A0916102B09162022C
:103670008A8F9B8FAC8FBD8F80E28F8B81E0DF9133
:10368000CF911F910F91FF90EF90DF90CF90BF905F
:10369000AF909F908F9008950895833081F028F423
:1036A000813099F08230A1F008958730A9F08830F8
:1036B000B9F08430D1F4809180008F7D03C0809177
:1036C00080008F7780938000089584B58F7702C043
:1036D00084B58F7D84BD08958091B0008F7703C03D
:1036E0008091B0008F7D8093B0000895CF93DF93D9
:1036F00090E0FC01E457FF4F2491FC01E056FF4F9E
:103700008491882361F190E0880F991FFC01E254B5
:10371000FF4FC591D491FC01EC54FF4FA591B4919A
:10372000611109C09FB7F89488812095822388830E
:10373000EC912E230BC0623061F49FB7F89438816E
:10374000822F809583238883EC912E2B2C939FBF0F
:1037500006C08FB7F894E8812E2B28838FBFDF91A6
:10376000CF9108951F93CF93DF93282F30E0F90175
:10377000E858FF4F8491F901E457FF4FD491F901C4
:10378000E056FF4FC491CC23C9F0162F81110E943F
:103790004D1BEC2FF0E0EE0FFF1FEC54FF4FA591F7
:1037A000B4918FB7F894111105C09C91ED2FE0955D
:1037B000E92302C0EC91ED2BEC938FBFDF91CF9109
:1037C0001F910895CF93CFB7F8948091360481115B
:1037D00027C0EAEAF0E08491E6E9F0E09491E82F6E
:1037E000F0E0EE0FFF1FE254FF4FA591B491EC9172
:1037F000E92321F461E08AE00E94B21B61E08AE0E3
:103800000E94761B8CB580618CBD8CB580648CBDAC
:1038100061E08DE00E94761B61E08BE00E94761BE8
:10382000809136048F5F80933604CFBFCF91089587
:10383000A1E21A2EAA1BBB1BFD010DC0AA1FBB1FB4
:10384000EE1FFF1FA217B307E407F50720F0A21B26
:10385000B30BE40BF50B661F771F881F991F1A9493
:1038600069F760957095809590959B01AC01BD01BD
:10387000CF0108950E944B1CA59F900DB49F900D01
:10388000A49F800D911D11240895EE0FFF1F059038
:10389000F491E02D0994A29FB001B39FC001A39FB2
:1038A000700D811D1124911DB29F700D811D112479
:1038B000911D0895CF93DF938230910510F482E03B
:1038C00090E0E0913904F0913A0420E030E0C0E06B
:1038D000D0E0309711F14081518148175907C0F06D
:1038E0004817590761F482819381209719F09B83CF
:1038F0008A832BC090933A048093390426C0211503
:10390000310519F04217530718F49A01BE01DF017F
:10391000EF010280F381E02DDCCF2115310509F1A3
:10392000281B390B2430310590F412968D919C910F
:1039300013976115710521F0FB019383828304C005
:1039400090933A0480933904FD01329644C0FD01FE
:10395000E20FF31F81939193225031092D933C93F1
:103960003AC02091370430913804232B41F4209140
:1039700002013091030130933804209337042091E1
:103980000001309101012115310541F42DB73EB7F9
:103990004091040150910501241B350BE09137043F
:1039A000F0913804E217F307A0F42E1B3F0B281701
:1039B000390778F0AC014E5F5F4F2417350748F0A8
:1039C0004E0F5F1F509338044093370481939193B7
:1039D00002C0E0E0F0E0CF01DF91CF9108950F93B6
:1039E0001F93CF93DF93009709F48CC0FC013297AB
:1039F000138212820091390410913A0401151105C5
:103A000081F420813181820F931F209137043091FE
:103A100038042817390779F5F0933804E093370410
:103A200071C0D80140E050E0AE17BF0750F41296C5
:103A30002D913C911397AD012115310509F1D90163
:103A4000F3CF9D01DA013383228360817181860F78
:103A5000971F8217930769F4EC0128813981260F9B
:103A6000371F2E5F3F4F318320838A819B81938351
:103A70008283452B29F4F0933A04E093390442C041
:103A80001396FC93EE931297ED01499159919E0183
:103A9000240F351FE217F30771F480819181840FA1
:103AA000951F029611969C938E9382819381139613
:103AB0009C938E931297E0E0F0E0D80112968D91DE
:103AC0009C911397009719F0F8018C01F6CF8D9116
:103AD0009C9198012E5F3F4F820F931F20913704D6
:103AE000309138042817390769F4309729F4109277
:103AF0003A041092390402C01382128210933804DF
:103B000000933704DF91CF911F910F910895FB012E
:103B1000DC0104C08D910190801921F44150504086
:103B2000C8F7881B990B0895FC018191861721F035
:103B30008823D9F7992708953197CF010895FB017C
:103B4000DC014150504048F001900D920020C9F72F
:103B500001C01D9241505040E0F70895F894FFCF06
:103B600000003B04800000082148FFFFFFFF2F00FA
:103B70000000000023059006A404BE04B004010563
:103B800000000000AD07C307A408FE070808DF0710
:083B90000000000092169006EF
:00000001FF
