:100000000C94A4000C94CC000C94CC000C94CC0068
:100010000C94CC000C94CC000C94CC000C94CC0030
:100020000C94CC000C94CC000C94070E0C94960C01
:100030000C94CC000C94CC000C94CC000C94CC0010
:100040000C94CC000C94CC000C94CC000C94CC0000
:100050000C94CC000C94CC000C94CC000C94A50E09
:100060000C94CC000C94BC180C94EE180C94CC009E
:100070000C94CC000C94CC000C94CC000C94CC00D0
:100080000C94CC000C94CC000C94CC000C94CC00C0
:100090000C94CC000C94CC000C94CC000C94CC00B0
:1000A0000C94CC000C94CC000C94CC00080B0002F7
:1000B0000202010009040000010202000005240000
:1000C0001001052401010104240206052406000193
:1000D0000705810310004009040100020A00000026
:1000E00007050202400000070583024000001201DC
:1000F0000002EF020140412341800001010203019F
:100100001201000200000040412341800001010271
:10011000030141726475696E6F204C4C4300555366
:100120004220494F20426F61726400040309047247
:10013000756E2D6272696467650A000A000A000024
:10014000B108BC13A2161E1911241FBECFEFDAE0AE
:10015000DEBFCDBF12E0A0E0B1E0E4EEFDE302C0FF
:1001600005900D92AA3EB107D9F724E0AAEEB2E0BD
:1001700001C01D92A930B207E1F710E0C4EAD0E057
:1001800004C02197FE010E940B1AC03AD107C9F79B
:100190000E94F2090C94F01E0C940000FC0148E04F
:1001A0008CE89081292F30E035952795962790FD92
:1001B0002827208366954150A1F70895CF93DF93B8
:1001C000CDB7DEB7CA55D1090FB6F894DEBF0FBE62
:1001D000CDBF1C821B8288EE93E0A0E0B0E08D834F
:1001E0009E83AF83B8878DED92E09A8389838FE4F5
:1001F00093E09E878D871A8A1B8A1C8A67E771E0C5
:10020000CE018B5A9F4F0E942010BE016B5A7F4F28
:10021000CE0101960E94A618CE018B5A9F4F0E94D4
:10022000B20FCE0101960E94A8178111FACFCE011C
:1002300001960E94111867E572E08AE593E00E943A
:100240004116CE0101960E943B18C65ADF4F0FB6E9
:10025000F894DEBF0FBECDBFDF91CF910895CF934D
:10026000DF93EC01E881F9810480F581E02D0995A7
:100270001816190644F4E881F9810680F781E02D0B
:10028000CE01099501C080E0DF91CF9108958A34B5
:1002900039F46136C9F44E3661F581E090E0089595
:1002A000863439F4653629F5423619F582E090E056
:1002B00008958D34C1F46136E1F4423771F0493765
:1002C000C1F485E090E00895653799F44E3641F029
:1002D0004C3679F487E090E0089583E090E008954B
:1002E00086E090E00895813489F4603729F065371D
:1002F00041F08CE090E008954237D9F784E090E037
:1003000008954736B1F788E090E00895833539F4D1
:10031000653679F7403769F789E090E008958F34C2
:1003200039F4633631F7443721F78AE090E00895D5
:100330008E34F9F66F36E9F64637D9F68BE090E061
:1003400008950895682F8AEE92E00C94AB07CF933E
:10035000DF931F92CDB7DEB799830E94A2019981E6
:10036000892F0F90DF91CF910C94A2011F93CF930F
:10037000DF9300D0CDB7DEB7182F862F79839A830D
:100380000E94A2017981872F0E94A201812F0E94E1
:10039000A2019A81892F0F900F90DF91CF911F9129
:1003A0000C94A2012F923F924F925F926F927F9294
:1003B0008F929F92AF92BF92CF92DF92EF92FF9275
:1003C0000F931F93CF93DF93CDB7DEB7CD55D109F0
:1003D0000FB6F894DEBF0FBECDBF1C821B8288EE25
:1003E00093E0A0E0B0E08D839E83AF83B8878DED6E
:1003F00092E09A8389838FE493E09E878D871A8A9F
:100400001B8A1C8A68E971E0CE018B5A9F4F0E94BB
:100410002010BE016B5A7F4FCE0101960E94A61894
:10042000CE018B5A9F4F0E94B20FCE0101960E94BF
:10043000A8178111FACF812C912C00E010E0C12C7B
:10044000D12CE12CF12C212C612C712CA12CB12C64
:1004500030E04AE0342ECE0101966E963FAF6E97A3
:100460000E942F01282F6E963FAD6E978032C9F4FF
:100470003F5F3A3049F485E46E963FAF6E970E9435
:10048000A2016E963FAD6E97CE0101966E963FAF7C
:100490006E970E942F01282F6E963FAD6E97803287
:1004A00099F3373009F445C048F5343079F13630E6
:1004B00009F08EC0CE0101966D962FAF6D976E96A6
:1004C0003FAF6E970E942F01682FCE0101966C9668
:1004D0006FAF6C970E942F01482F6C966FAD6C9791
:1004E0006D962FAD6D97822F0E9447015C016D962E
:1004F0002FAD6D976E963FAD6E976AC0393009F497
:1005000044C050F13A3009F451C062C080ED820F0E
:100510008A3008F05DC0389CB001399C700D112400
:100520004B0140E3841A9108820E911C27FD9A9496
:100530008CC080ED820F8A3008F04AC0369CC00122
:10054000379C900D11243C0140E3641A7108620E3F
:10055000711C27FD7A9479C080ED820F8A3070F487
:100560003C9CC0013D9C900D11246C0140E3C41AD9
:10057000D108C20ED11C27FDDA9467C02A3341F599
:100580002E2C7601C12CD12C66CF80ED820F8A30C3
:10059000F8F4309EC001319E900D11248C0100535F
:1005A0001109020F111D27FD1A954FC02A3091F035
:1005B000822F6D962FAF6D976E963FAF6E970E940C
:1005C000A2016D962FAD6D976E963FAD6E973DC0B3
:1005D0002A30D9F580E00E94A201B40180E090E0C9
:1005E0000E94B6010C5B1740102F0027110F602AE4
:1005F000712A95E0AA0CBB1C9A95E1F76A287B2822
:1006000025E0EE0CFF1C2A95E1F7522C550C550CF9
:10061000550C412CE428F528C601969587958E291E
:100620009F290E94A701C3010E94A701812C912C40
:1006300000E010E0C12CD12CE12CF12C212C612CFC
:10064000712CA12CB12C30E006CF211104CF80E019
:100650000E94A201CE0101960E943B18C35ADF4FAF
:100660000FB6F894DEBF0FBECDBFDF91CF911F91C3
:100670000F91FF90EF90DF90CF90BF90AF909F9041
:100680008F907F906F905F904F903F902F90089544
:100690000F931F93CF93DF938C01C0E0D0E08AEEDD
:1006A00092E00E94D507892B41F08AEE92E00E94E9
:1006B000E507F801808381E00CC061E070E080E034
:1006C00090E00E94200F2196C83EF3E0DF0739F743
:1006D00080E0DF91CF911F910F9108950F931F93A9
:1006E000CF93DF931F92CDB7DEB78C01FC0111824F
:1006F0001082CE0101960E9448038823F1F02981DF
:10070000F80180819181820F911D91838083CE01B8
:1007100001960E944803882381F0498150E060E0FF
:1007200070E0762F652F542F4427F8012081318106
:10073000420F531F5183408301C080E00F90DF912F
:10074000CF911F910F9108951F93CF93DF9300D006
:1007500000D0CDB7DEB78BE40E94A201CE01019696
:100760000E946E03882339F0CE0103960E946E0327
:10077000182F811102C010E040C089819A812B811D
:100780003C81AC014F715527440F551F5F934F9328
:10079000AC0175E0569547957A95E1F74F7355276B
:1007A0005F934F93892F8695869586951F928F9399
:1007B000A901452F552746954454584F5F934F93B1
:1007C000A901F5E056954795FA95E1F74F70552741
:1007D0005F934F932F7133273F932F9383EA91E0D9
:1007E0009F938F9386E091E09F938F930E94181CB4
:1007F0000FB6F894DEBF0FBECDBF812F0F900F90C4
:100800000F900F90DF91CF911F9108958F929F923B
:10081000AF92BF92EF92FF920F931F93CF93DF930C
:100820001F92CDB7DEB78C01FC01108211821282BB
:100830001382E12CF12CCE0101960E9448038823FB
:1008400001F1498150E060E070E00E2C04C0440FDB
:10085000551F661F771F0A94D2F7F8018080918098
:10086000A280B380480D591D6A1D7B1D40835183B2
:1008700062837383F8E0EF0EF11C90E2E916F10455
:10088000D1F60F90DF91CF911F910F91FF90EF90D4
:10089000BF90AF909F908F900895AF92BF92CF92EC
:1008A000DF92EF92FF920F931F93CF93DF9300D0CD
:1008B00000D0CDB7DEB75C01C12CD12C7601C416B7
:1008C000D506E606F70671F08501C50149835A830E
:1008D0006B837C830E94480349815A816B817C81B0
:1008E000811102C080E00DC09FEFA91AB90AF8017A
:1008F0009081992331F0FFEFCF1ADF0AEF0AFF0A48
:10090000DECF0F900F900F900F90DF91CF911F913E
:100910000F91FF90EF90DF90CF90BF90AF90089530
:10092000AF92BF92CF92DF92EF92FF920F931F93FD
:10093000CF93DF93CDB7DEB7C05ED1090FB6F89481
:10094000DEBF0FBECDBF86E0EDE2F1E0DE01A556D1
:10095000BF4F01900D928A95E1F7EBE9F0E0EC0FC3
:10096000FD1F36968AE3DF011D928A95E9F78EE432
:100970000E94A2014BE350E060E070E08BE990E060
:100980008C0F9D1F05960E944D04182F811104C0E5
:1009900086E40E94A20189C020E0AE0145565F4F67
:1009A0006AE573E0CE0101960E943416CE010196ED
:1009B0000E94EF14182F811106C060E070E0CB0197
:1009C0000E94B6016EC0CE0101960E94A3150E943E
:1009D000B601CE0185529F4F0E940604182F88232E
:1009E00009F45AC0C552DF4F488159816A817B8121
:1009F000CB5DD040411551056105710529F4CE014B
:100A000001960E94EE154DC0C052DF4F1882C05EA5
:100A1000D040BE01655A7F4FCE0101960E946D15F0
:100A20008E01055A1F4FC12CD12C7601C552DF4FC4
:100A300088819981AA81BB81CB5DD040C816D90637
:100A4000EA06FB0698F45801F80181918F010E9493
:100A5000A201D5016C91CE0180529F4F0E94CE0021
:100A6000BFEFCB1ADB0AEB0AFB0AE0CFCE018152C3
:100A70009F4F0E944803882379F0C152DF4F88813D
:100A8000CF5DD040833441F4C052DF4F8881C05ED7
:100A9000D0400E94A2019DCFCE0101960E94EE158A
:100AA00010E0CE0101960E942116812FC052DF4F27
:100AB0000FB6F894DEBF0FBECDBFDF91CF911F916F
:100AC0000F91FF90EF90DF90CF90BF90AF9008957F
:100AD0001F93CF93DF931F92CDB7DEB7CE01019660
:100AE0000E944803811102C010E013C08981823541
:100AF000D9F788E50E94A201CE0101960E94480321
:100B0000182F882389F38981823771F788E70E943B
:100B1000A201812F0F90DF91CF911F9108951F9314
:100B2000CF93DF931F92CDB7DEB7CE0101960E941F
:100B30004803882359F08AE593E00E943216182F63
:100B4000882321F08BE40E94A20104C086E40E9465
:100B5000A20110E0812F0F90DF91CF911F91089596
:100B60000F931F93CF93DF93CDB7DEB7C05FD1094B
:100B70000FB6F894DEBF0FBECDBF8C0122E047E573
:100B800052E06AE573E0CE0101960E943416BE0180
:100B900060557F4F85E2E1ECF1E0DB0101900D92C1
:100BA0008A95E1F7FB0101900020E9F73197AF0149
:100BB000461B570BCE0101960E94DF1343E150E024
:100BC00066E071E0CE0101960E94DF13BE01655A16
:100BD0007F4F85E5E6EEF1E0DB0101900D928A950D
:100BE000E1F7FB0101900020E9F73197AF01461BC7
:100BF000570BCE0101960E94DF13F80101900020EF
:100C0000E9F73197AF01401B510BB801CE010196B6
:100C10000E94DF13BE016B527F4F8CE1EBE3F2E0E9
:100C2000DB0101900D928A95E1F7FB010190002014
:100C3000E9F73197AF01461B570BCE0101960E9491
:100C4000DF13CE0101960E94EE15CE0101960E949F
:100C50002116C051DF4F0FB6F894DEBF0FBECDBFD7
:100C6000DF91CF911F910F9108956F927F928F9294
:100C70009F92AF92BF92CF92DF92EF92FF921F931B
:100C8000CF93DF93CDB7DEB7C05ED1090FB6F8942E
:100C9000DEBF0FBECDBF86E0EDE2F1E0DE01A5567E
:100CA000BF4F01900D928A95E1F7EBE9F0E0EC0F70
:100CB000FD1F36968AE3DF011D928A95E9F78EE4DF
:100CC0000E94A2014BE350E060E070E08BE990E00D
:100CD0008C0F9D1F05960E944D04182F811104C092
:100CE00086E40E94A201B5C0BE0165567F4F8AE529
:100CF00093E00E94411621E0AE0145565F4F6AE540
:100D000073E0CE0101960E943416CE0101960E9436
:100D1000EF14182F811104C086E40E94A20195C02F
:100D200083E50E94A201CE0185529F4F0E940604D6
:100D3000182F882309F489C0C052DF4F1882C05E83
:100D4000D040C552DF4FC880D980EA80FB80CB5DA0
:100D5000D040B1E4CB16D104E104F10428F090E4D2
:100D6000C92ED12CE12CF12CC701B6010E94B6018D
:100D7000C114D104E104F10451F4CE0101960E94A2
:100D8000EE15CE0185569F4F0E94B0055EC0FE0154
:100D9000E55AFF4F3F015F01AC0CBD1C4301C3018D
:100DA0000E94480381110BC083E40E94A201CE017E
:100DB00081529F4F0E94480381110FC041C0FFEF35
:100DC0006F1A7F0AD4016C91CE0180529F4F0E940E
:100DD000CE006A147B0411F7E7CFC052DF4F988131
:100DE000C05ED040C152DF4F8881CF5DD0409813A4
:100DF0001DC0A601BE01655A7F4FCE0101960E941B
:100E0000DF13C552DF4F88819981AA81BB81CB5DF9
:100E1000D0408C199D09AE09BF09C552DF4F8883A8
:100E20009983AA83BB83CB5DD04086CF6627772783
:100E3000CB016C197D098E099F090E94B6017CCFF8
:100E4000CE0101960E94EE1510E0CE0101960E949F
:100E50002116812FC052DF4F0FB6F894DEBF0FBEB0
:100E6000CDBFDF91CF911F91FF90EF90DF90CF909A
:100E7000BF90AF909F908F907F906F9008951F9339
:100E8000CF93DF931F92CDB7DEB710E0112339F077
:100E9000CE0101960E944803811106C010E00E9415
:100EA00068058111F5CFFBCF8981893499F058F419
:100EB0008434D9F0853451F70E94DE000F90DF9121
:100EC000CF911F9108958435D1F0853549F08C3448
:100ED000E9F610C01111DACF0E948F05182FD6CF76
:100EE0001123E9F20E943506D1CF1123C1F20E94ED
:100EF0009004CCCF112399F20E94D201C7CF1123C5
:100F000071F20E94A403C2CF26E040E950ED63E0F5
:100F100070E080915803909159030E948C098FE4EE
:100F200093E00E94B3128AE593E00E94321640E0FB
:100F300052EC61E070E08AEE92E00E949B088AEE3B
:100F400092E00E94A2088823D1F30E943F078AEE14
:100F500092E00C94A108CF93DF931F92CDB7DEB738
:100F60006983DC01ED91FC910280F381E02D41E089
:100F700050E0BE016F5F7F4F09950F90DF91CF91D9
:100F80000895CF93DF93EC018C859D8597FF05C075
:100F900082E00E946A0B9D878C878C859D85DF91FE
:100FA000CF91089583E00C94FD0DFC018485958517
:100FB00097FD06C082E00E94140B90E00196089510
:100FC00082E00E94140B90E00895FC0184859585D1
:100FD00097FD05C02FEF3FEF35872487089582E006
:100FE0000C946A0BCF93DF93EC0180912501882349
:100FF00031F083E00E949B0B1816190634F081E053
:1010000090E09B838A8380E090E0DF91CF91089508
:10101000FC0190819E5F908342E450E06CEA70E0B6
:1010200080E80C943C0CFC0181819081913A59F448
:10103000813209F048C047E050E06EE171E080E0A5
:101040000E943C0C76C09132F1F5833291F4938189
:10105000892F90E0982F88272281822BA0E0B0E092
:1010600080931A0190931B01A0931C01B0931D0162
:1010700060C0803239F467E070E08EE191E00E9458
:10108000630C06C0823209F054C08281809325012E
:1010900080913A03882319F0EEEFFAE002C0E0E015
:1010A000F8E080911E0190911F01A0912001B09164
:1010B0002101803B9440A105B10539F480912501BF
:1010C00080FF1FC002C080E008950FB6F894A89575
:1010D00080916000886180936000109260000FBE74
:1010E000A895EE3F8AE0F80739F08091FE0A9091CA
:1010F000FF0A918380831DC01092FF0A1092FE0A9E
:1011000018C0EE3F2AE0F20731F080819181909380
:10111000FF0A8093FE0A87E797E7918380839BE02D
:1011200088E10FB6F894A895809360000FBE909365
:10113000600081E008952FEF3FEFFC0135872487A1
:1011400008950895CF93C09125016AE070E080E092
:1011500090E00E94200F81E0C11101C080E0CF919A
:101160000895EAEEF2E01382128288EE93E0A0E0A6
:10117000B0E084839583A683B78385E792E091836B
:1011800080838FEF9FEF958784870895FC01918D71
:10119000228D892F90E0805C9F4F821B91098F7375
:1011A00099270895FC01918D828D981731F0828DD9
:1011B000E80FF11D858D90E008958FEF9FEF089562
:1011C000FC01918D828D981761F0828DDF01A80F4F
:1011D000B11D5D968C91928D9F5F9F73928F90E071
:1011E00008958FEF9FEF089584E199E1892B49F0ED
:1011F00080E090E0892B29F00E94141981110C9451
:1012000000000895FC01848DDF01A80FB11DA35AD1
:10121000BF4F2C91848D90E001968F739927848F16
:10122000A689B7892C93A089B1898C9180648C930D
:10123000938D848D981306C00288F389E02D8081F8
:101240008F7D80830895CF93DF93EC01888D882371
:10125000C9F0EA89FB89808185FD05C0A889B98923
:101260008C9186FD0FC00FB607FCF5CF808185FFFE
:10127000F2CFA889B9898C9185FFEDCFCE010E946C
:101280000209E7CFDF91CF910895EF92FF920F937C
:101290001F93CF93DF93EC0181E0888F9B8D8C8D22
:1012A000981305C0E889F989808185FD24C0F62E50
:1012B0000B8D10E00F5F1F4F0F731127E02E8C8DE9
:1012C000E8120CC00FB607FCFACFE889F9898081D3
:1012D00085FFF5CFCE010E940209F1CF8B8DFE0173
:1012E000E80FF11DE35AFF4FF0820B8FEA89FB896B
:1012F0008081806207C0EE89FF896083E889F9896F
:1013000080818064808381E090E0DF91CF911F91A4
:101310000F91FF90EF900895CF92DF92EF92FF929E
:101320001F93CF93DF93EC016A017B01122FE889B1
:10133000F98982E080834115514E61057105B1F054
:1013400060E079E08DE390E0A70196010E94E91941
:10135000DA01C9010197A109B109B695A795979539
:101360008795AC01411580E15807A8F0E889F98913
:10137000108260E874E88EE190E0A70196010E9477
:10138000E919BA01A901415051096109710976951C
:10139000679557954795EC85FD855083EE85FF85CC
:1013A0004083188EEC89FD891083EA89FB8980814E
:1013B00080618083EA89FB89808188608083EA89F3
:1013C000FB89808180688083EA89FB8980818F7DA9
:1013D0008083DF91CF911F91FF90EF90DF90CF90AE
:1013E000089508950E945C0F0E94F1098BE393E039
:1013F0000E94880E0E948407C4EFD8E00E94A101D9
:101400002097E1F30E94F408F9CFCF92DF92EF9298
:10141000FF920F931F93CF93DF936C017A018B019F
:10142000C0E0D0E0CE15DF0589F0D8016D918D01C7
:10143000D601ED91FC910190F081E02DC601099556
:10144000892B11F47E0102C02196ECCFC701DF91F8
:10145000CF911F910F91FF90EF90DF90CF90089563
:10146000EF92FF920F931F93CF93DF938C017B0139
:10147000C0E0D0E0F701EC0FFD1F6491662361F03E
:10148000D801ED91FC910190F081E02DC801099502
:10149000892B11F02196EECFCE01DF91CF911F91D4
:1014A0000F91FF90EF900895DC01ED91FC91019078
:1014B000F081E02D0994615030F02091F100FC01A1
:1014C00020830196F8CF289884E6809344030895FA
:1014D00040913F035091400320913D0330913E03E2
:1014E00042175307B4F49091E8009570E1F390919E
:1014F000E80092FD19C08093F10080913F03909124
:10150000400301968F739927892B19F48EEF8093EE
:10151000E80080913F03909140030196909340032F
:1015200080933F0381E0089580E00895CF92DF9299
:10153000EF92FF920F931F93CF93DF931F92CDB73C
:10154000DEB7182F062FE42E862F880F8E5F998323
:101550000E94680A83E00E94680AF12EC12E9981D8
:10156000D92E8C2D8F19801798F4F601E7FE02C052
:10157000849101C080810E94680A182F80E00E9437
:10158000680A8123FFEFCF1ADF0A8111EACF01C079
:1015900081E00F90DF91CF911F910F91FF90EF901D
:1015A000DF90CF9008958091D70081608093D7001D
:1015B00080EA8093D80089B5806189BD89B5826051
:1015C00089BD09B400FEFDCF61E070E080E090E0ED
:1015D0000E94200F8091D8008F7C80618093D8007A
:1015E0008091E000807F8093E0000895CF93DF93A7
:1015F0001F92CDB7DEB71982CE0101960E9408086E
:101600000E94D519BE016F5F7F4F0E9450198981DA
:101610000F90DF91CF9108952FB7FC012083F894AC
:1016200067706093E9000895CF93DF931F92CDB761
:10163000DEB7682FCE0101960E940C0B8091F2005C
:1016400099819FBF0F90DF91CF910895EF92FF9204
:101650000F931F93CF93DF931F92CDB7DEB7909177
:101660004303992311F057FF03C08FEF9FEF2AC068
:101670008A017B01682FCE0101960E940C0B80919C
:10168000F20090E0A801801791070CF4AC01842FC0
:10169000F70194E6815038F0289890934403209104
:1016A000F1002193F7CF4115510521F08091F2000F
:1016B000882321F089818FBFCA0104C08BE6809303
:1016C000E800F8CF0F90DF91CF911F910F91FF901D
:1016D000EF900895CF93DF931F92CDB7DEB741E02F
:1016E00050E0BE016F5F7F4F0E94260B019719F4F7
:1016F000898190E002C08FEF9FEF0F90DF91CF9133
:101700000895CF93DF931F92CDB7DEB7682FCE0138
:1017100001960E940C0B9091E800892F807295FF32
:1017200004C09091F2008FE3891B99819FBF0F90B5
:10173000DF91CF9108956F927F928F929F92AF9297
:10174000BF92CF92DF92EF92FF920F931F93CF93AE
:10175000DF931F92CDB7DEB7A82E6B01B42E052FF5
:1017600080914303811103C08FEF9FEF6AC0809186
:10177000410380FF05C08091E00082608093E0001B
:10178000EB2CF02E8AEF982E8A2D8072782E9AE319
:10179000892E8A2D8074682EE114F10409F447C063
:1017A0008A2D0E94810B182F81110AC09A949920CA
:1017B000D9F261E070E080E090E00E94200FECCF71
:1017C00090E0E816F9060CF41E2D6A2DCE01019664
:1017D0000E940C0B8091E80085FF26C0812F90E0CD
:1017E000E81AF90A772029F01150A8F01092F100B8
:1017F000FBCFF601A7FE07C0115058F024912093AB
:10180000F1003196F9CF115020F021912093F10091
:10181000FACFC80ED91E8091E80085FF0FC0E114F1
:10182000F10411F461100AC089818FBFB5CF5D98B2
:1018300084E6809345038B2D902F03C08092E800AF
:10184000F3CF0F90DF91CF911F910F91FF90EF9009
:10185000DF90CF90BF90AF909F908F907F906F90D0
:1018600008951092E9001092400310923F03909364
:101870003E0380933D030895DF92EF92FF920F9312
:101880001F93CF93DF93D82E8A017B01E40EF51EC0
:10189000EB01CE15DF0571F0D7FE03C0FE01849188
:1018A00001C088810E94680A21968111F2CF8FEFD2
:1018B0009FEF01C0C801DF91CF911F910F91FF9061
:1018C000EF90DF900895BF92CF92DF92EF92FF9258
:1018D0000F931F93CF93DF936C018B01EB019BEF71
:1018E000B92E2097C1F07E01C134D1051CF080E4EF
:1018F000E82EF12C8091E80082FFFCCFC8018C1B00
:101900009D0B6E2D8C0D9D1D0E945B0AB092E80010
:10191000CE19DF09E6CFC801DF91CF911F910F915A
:10192000FF90EF90DF90CF90BF9008951F920F929D
:101930000FB60F921124CF92DF92EF92FF920F9386
:101940001F932F933F934F935F936F937F938F9347
:101950009F93AF93BF93EF93FF93CF93DF93CDB755
:10196000DEB76C97DEBFCDBF1092E9008091E80032
:1019700083FF24C168E0CE0145960E945B0A82EF96
:101980008093E8008D8987FF05C09091E80090FF63
:10199000FCCF03C09EEF9093E800982F907609F05B
:1019A000F1C09E892F89188D91110CC0803829F4BF
:1019B000809142038093F10002C01092F1001092D6
:1019C000F100F5C0422F50E0512B913051F48111BC
:1019D000EEC04130510509F0EAC0809142038D7F8D
:1019E0000BC0933061F48111E2C04130510509F020
:1019F000DEC080914203826080934203D8C095305C
:101A000041F48091E80080FFFCCF20682093E30040
:101A1000CEC0963009F08CC0EB8CFC8C123069F58E
:101A200080E090E00E94310C0E94F60A99E09E014D
:101A30002F5F3F4F6901F901292F11922A95E9F78C
:101A400099831A8391E09E8390EA98879AEF998709
:101A500020913F0330914003275F3F4F3C832B830E
:101A60008D83C7010E94310C49E050E0B60180E04F
:101A70000E943C0C0E94F60A9AC0C7010E94310CD9
:101A80000E94D519BE016B5E7F4F0E9479190097A5
:101A900019F00CF08CC08FC0113071F48B8D9C8DBF
:101AA000089719F481E080933C0380913C038111F5
:101AB0002FC060E071E031C0133009F07CC08F8925
:101AC000882349F1823029F440E86CE08EE191E00E
:101AD00006C0813039F440E86BE082E191E00E9479
:101AE000960A63C0833009F066C00E94D5198E0142
:101AF0000F5F1F4FB8010E949819F8010190002054
:101B0000E9F73197BF01601B710B40E0C801E7CFD7
:101B10006EEE70E002C06BE271E06115710509F4D0
:101B20004AC0FB01449150E080E80E943C0C3FC059
:101B3000973009F440C0983021F481E08093F1009F
:101B400036C09930A1F58370B1F5E7E2F1E081E0AC
:101B500021E036E39081992361F08093E90020939E
:101B6000EB0091919093EC003093ED008F5F873004
:101B700089F78EE78093EA001092EA008F898093BC
:101B8000430315C08B8D9C8D0E94310C898D811172
:101B900005C0CE0145960E94130807C00E94D519C2
:101BA000BE016B5E7F4F0E94B719882321F08EEF34
:101BB0008093E80003C081E28093EB006C960FB63F
:101BC000F894DEBF0FBECDBFDF91CF91FF91EF91B3
:101BD000BF91AF919F918F917F916F915F914F9145
:101BE0003F912F911F910F91FF90EF90DF90CF9039
:101BF0000F900FBE0F901F9018958093E900809171
:101C0000F200882319F08AE38093E80008951F9278
:101C10000F920FB60F9211242F933F934F935F9320
:101C20006F937F938F939F93AF93BF93CF93EF93D4
:101C3000FF93C091E1008091E100837F8093E100F8
:101C4000C3FF0FC01092E90081E08093EB00109277
:101C5000EC0082E38093ED001092430388E08093D0
:101C6000F000C2FF19C083E00E94FD0D8091450382
:101C7000882339F080914503815080934503882360
:101C800089F180914403882339F080914403815085
:101C900080934403882341F1C4FF10C08091E20087
:101CA0008E7E81608093E2008091E1008F7E809340
:101CB000E100809141038E7E806111C0C0FF16C09B
:101CC0008091E2008E7E80618093E2008091E1004D
:101CD0008E7E8093E100809141038E7E81608093AF
:101CE000410304C05D9ACDCF289AD6CFFF91EF91E2
:101CF000CF91BF91AF919F918F917F916F915F91A4
:101D00004F913F912F910F900FBE0F901F901895FC
:101D10001092430310924203109241030E94D30A8F
:101D20008091E1008E7E8093E1008DE08093E2005F
:101D3000559A209AEEEFFFE7859194918B3F9C4D49
:101D400019F481E080933A0308951F920F920FB621
:101D50000F9211242F933F938F939F93AF93BF9331
:101D60008091470390914803A0914903B0914A03A1
:101D70003091460323E0230F2D3720F40196A11D57
:101D8000B11D05C026E8230F0296A11DB11D2093A9
:101D900046038093470390934803A0934903B0936D
:101DA0004A0380914B0390914C03A0914D03B09155
:101DB0004E030196A11DB11D80934B0390934C03DC
:101DC000A0934D03B0934E03BF91AF919F918F911C
:101DD0003F912F910F900FBE0F901F9018952FB726
:101DE000F894609147037091480380914903909162
:101DF0004A032FBF08953FB7F89480914B03909109
:101E00004C03A0914D03B0914E0326B5A89B05C08D
:101E10002F3F19F00196A11DB11D3FBFBA2FA92F69
:101E2000982F8827820F911DA11DB11DBC01CD01E6
:101E300042E0660F771F881F991F4A95D1F70895D2
:101E40008F929F92AF92BF92CF92DF92EF92FF92CA
:101E50006B017C010E94FB0E4B015C01C114D1049B
:101E6000E104F10401F10E944B190E94FB0EDC0118
:101E7000CB0188199909AA09BB09883E9340A1059D
:101E8000B10560F321E0C21AD108E108F10888EE3B
:101E9000880E83E0981EA11CB11CC114D104E1047A
:101EA000F10419F7DBCFFF90EF90DF90CF90BF9058
:101EB000AF909F908F900895789484B5826084BD90
:101EC00084B5816084BD85B5826085BD85B581603E
:101ED00085BDEEE6F0E0808181608083E1E8F0E09E
:101EE0001082808182608083808181608083E0E8CD
:101EF000F0E0808181608083E1E9F0E080818260B0
:101F00008083808181608083E0E9F0E0808181606E
:101F10008083E1ECF0E08081846080838081826056
:101F20008083808181608083E3ECF0E08081816048
:101F30008083E0ECF0E0808182608083E2ECF0E07E
:101F4000808181608083EAE7F0E080818460808323
:101F500080818260808380818160808380818068CD
:101F600080830895FC01808191810C94A61ACF93FF
:101F7000DF93EC0188819981009711F00E94A61AE5
:101F8000198218821D821C821B821A82DF91CF91D6
:101F900008950F931F93CF93DF93EC018B016F5F35
:101FA0007F4F888199810E943E1B009731F0998371
:101FB00088831B830A8381E001C080E0DF91CF9199
:101FC0001F910F910895CF93DF93EC018881998140
:101FD000892B29F08A819B818617970760F4CE01AF
:101FE0000E94C90F882341F08C819D81892B19F4AF
:101FF000E881F981108281E0DF91CF910895EF921D
:10200000FF920F931F93CF93DF93EC017B018A0123
:10201000BA010E94E30F811104C0CE010E94B70FE4
:1020200007C01D830C83B701888199810E94111C10
:10203000CE01DF91CF911F910F91FF90EF90089506
:10204000FC011182108213821282158214826115A2
:10205000710551F0FB0101900020E9F73197AF01C4
:10206000461B570B0C94FF0F0895CF93DF93EC01A1
:10207000FB018617970761F0608171816115710519
:1020800029F0448155810E94FF0F02C00E94B70FC2
:10209000CE01DF91CF910895FC011182108213824D
:1020A0001282158214820C943510CF93DF93EC01C9
:1020B0006115710559F0FB0101900020E9F7319796
:1020C000AF01461B570B0E94FF0F02C00E94B70FC3
:1020D000CE01DF91CF910895EF92FF920F931F935E
:1020E000CF93DF93FC01248135816115710511F4D3
:1020F00080E019C041155105A9F07B01EC018A016E
:10210000020F131FB8010E94E30F882389F328816F
:1021100039818C819D81B701820F931F0E94111C10
:102120001D830C8381E0DF91CF911F910F91FF9070
:10213000EF900895FB0144815581608171810C9479
:102140006C106115710551F0FB0101900020E9F759
:102150003197AF01461B570B0C946C1080E008952B
:10216000FC01238134812627022E2295207F202501
:10217000032E322F22952F700226269532272327F1
:10218000220F220F220F2025348323830895CF931B
:10219000DF93EC018D819E81DC01ED91FC916C81DE
:1021A0000190F081E02D09958D819E81DC01ED91FA
:1021B000FC910190F081E02D6B81DF91CF9109942A
:1021C0008F929F92AF92BF92CF92DF92EF92FF9247
:1021D000CF93DF93EC016B010E94EF0E4B015C018A
:1021E000E12CF12C8D819E81DC01ED91FC9106802A
:1021F000F781E02D099597FF0FC00E94EF0EDC01DB
:10220000CB0188199909AA09BB098C159D05AE0552
:10221000BF0540F38FEF9FEFDF91CF91FF90EF90DD
:10222000DF90CF90BF90AF909F908F900895CF9305
:10223000DF93EC018D819E81DC01ED91FC910480A6
:10224000F581E02D09951816190654F48D819E81AB
:10225000DC01ED91FC910680F781E02D0995EACF34
:10226000DF91CF9108952F923F924F925F926F929C
:102270007F928F929F92AF92BF92CF92DF92EF9216
:10228000FF920F931F93CF93DF93CDB7DEB72D97B8
:102290000FB6F894DEBF0FBECDBF3C012B013C83CF
:1022A0002B83BF82AE82C8018C0D9D1D1C01240EA4
:1022B000351E3D82A32CB12CCB01840F951F99872D
:1022C0008887D901A00FB11FBB87AA87F701EC0D42
:1022D000FD1DFD87EC87F3018085B81608F028C145
:1022E000EFEFFFEFD3011496FC93EE93139715963F
:1022F0008D919C911697DC01ED91FC910190F081FC
:10230000E02D6FEF09956FEFC3010E94B010F3014C
:1023100085819681DC01ED91FC910190F081E02DA9
:10232000D3016C910995F3016081C3010E94B01043
:10233000D30115968D919C911697DC01ED91FC913E
:102340000190F081E02D6D8109956A2DC3010E94F5
:10235000B010F30185819681DC01ED91FC91019033
:10236000F081E02D622D0995622DC3010E94B0100D
:10237000620188859985C816D906A1F0F301858187
:1023800096818601DC01ED91FC910190F081E02DB8
:10239000D6016D916D010995F8016081C3010E941C
:1023A000B010E7CFCB80DC808A859B85C816D90624
:1023B000B1F0D30115968D919C9116978601DC01A1
:1023C000ED91FC910190F081E02DD6016D916D01B0
:1023D0000995F8016081C3010E94B010E5CF670143
:1023E0008C859D85C816D906B1F0D30115968D91BF
:1023F0009C9116978601DC01ED91FC910190F08192
:10240000E02DD6016D916D010995F8016081C30140
:102410000E94B010E5CFC3010E94C71064E670E0CF
:10242000C3010E94E0108F3F910509F076C0EFEFE5
:10243000FFEFD3011496FC93EE9313976FEFC30154
:102440000E94B01065E070E0C3010E94E010D3016B
:102450006C91262F30E08217930709F05EC0C3010C
:102460000E94B0106AE070E0C3010E94E0106C01AD
:1024700097FD53C0682FC3010E94B0106AE070E05E
:10248000C3010E94E0108C0197FD47C0682FC30173
:102490000E94B010CA821982E981FA810E0F1F1FB3
:1024A000C12CD12C65E070E0C301C016D106A1F0AB
:1024B000C814D90489F00E94E01097FD09C0EE818C
:1024C000FF81EC0DFD1D8083682FC3010E94B010B9
:1024D000FFEFCF1ADF0AE6CF0E94E0106C0197FDF4
:1024E0001CC065E070E0C3010E94E01097FD15C0BC
:1024F000DC2CCC248C0D9D1DD30113962D913C9189
:1025000014972817390749F48C918F5F8C93C80171
:102510008016910678F4C4010DC0B39464E670E0AF
:1025200080E090E00E94200FC3010E941711D3CEDB
:102530008FEF9FEF2D960FB6F894DEBF0FBECDBF85
:10254000DF91CF911F910F91FF90EF90DF90CF908F
:10255000BF90AF909F908F907F906F905F904F90C3
:102560003F902F9008953F924F925F926F927F928B
:102570008F929F92AF92BF92CF92DF92EF92FF9293
:102580000F931F93CF93DF93CDB7DEB72E970FB680
:10259000F894DEBF0FBECDBFDC0117962C911797C4
:1025A0002111D2C03C0181E0FD018783C3010E945B
:1025B000171168EE73E080E090E00E94200FD301D5
:1025C00015968D919C911697DC01ED91FC910480FC
:1025D000F581E02D09951816190644F395E0592E5A
:1025E0004424439422E3322EEDE6F1E0DE01169618
:1025F000852D01900D928A95E1F7F3014086812C9B
:10260000912CA12CB12CC12CD12CE12CF12C00E06F
:1026100010E020E030E045E050E0BE016A5F7F4F0F
:10262000C3010E94331163E0D30115968D919C91F3
:1026300016970E94540A6AEF70E080E090E00E94D2
:10264000200F6DE371E0F301858196810E94300ACD
:102650006AEF70E080E090E00E94200F6BE371E091
:10266000D30115968D919C9116970E94300A64EFC4
:1026700071E080E090E00E94200F6FE271E0F301D2
:10268000858196810E94300A64EF71E080E090E0DD
:102690000E94200FC3010E941711E2E7F1E0DE0162
:1026A0001196852D01900D928A95E1F7D301189628
:1026B0003C9284E0882E912CFE013B965F0120E045
:1026C00030E045E050E0BE016F5F7F4FC3010E94E4
:1026D00033118F3FFFEF9F0739F468EE73E080E01E
:1026E00090E00E94200F80CF2B852111FFCF04970F
:1026F00011F52C8530E02053310984E6829FA0013A
:10270000839F500D11242D8530E0205331096AE05C
:10271000629FC001639F900D1124840F951F2E8529
:1027200030E020533109820F931FD30112969C93FE
:102730008E93119705C084E690E0F3019283818324
:1027400082E3D30118968C932E960FB6F894DEBFD1
:102750000FBECDBFDF91CF911F910F91FF90EF90F2
:10276000DF90CF90BF90AF909F908F907F906F90B1
:102770005F904F903F900895EFE4F3E010828CE576
:1027800093E09683858317821086928781870895C8
:10279000CF93DF931F92CDB7DEB76983DC01ED9154
:1027A000FC910280F381E02D41E050E0BE016F5FBB
:1027B0007F4F09950F90DF91CF91089508956F9203
:1027C0007F928F929F92AF92BF92CF92DF92EF92C1
:1027D000FF920F931F93CF93DF9300D01F92CDB73B
:1027E000DEB7FC01E85AFF4F20812F3F31F13A015B
:1027F0009B0147E64983319640814A833997882473
:102800008394912CCE0103965C01C12CD12CE12C38
:10281000F12C830142E050E0BE016F5F7F4F808169
:1028200091810E9433118B81882329F090E091954A
:102830008195910904C0C30102C08FEF9FEF0F90F3
:102840000F900F90DF91CF911F910F91FF90EF901C
:10285000DF90CF90BF90AF909F908F907F906F90C0
:1028600008958F929F92AF92BF92CF92DF92EF9294
:10287000FF920F931F9348015901C12CD12CE12CD9
:10288000F12C00E010E020E030E00E9433111F91B5
:102890000F91FF90EF90DF90CF90BF90AF909F90FF
:1028A0008F9008952F923F924F925F926F927F92F6
:1028B0008F929F92AF92BF92CF92DF92EF92FF9250
:1028C0000F931F93CF93DF93CDB7DEB728970FB643
:1028D000F894DEBF0FBECDBF3C018B01FC0113821B
:1028E000128288EE93E0A0E0B0E084839583A68313
:1028F000B7838FEB92E0918380831301F0E52F0E75
:10290000311CF101318320837301F2E5EF0EF11CDC
:1029100066E572E0C70148870E942010230188E520
:10292000480E511C4885F2014083B801C7010E943E
:10293000551082E7898387E78A8381E68B8386E463
:102940008E83F2018081FE01E80FF11D81818F836A
:1029500081E090E0F30197878687EA5AFF4F008174
:102960001181F7012081318182E0882E912CCE01E6
:1029700004965C01C12CD12CE12CF12C42E050E0FA
:10298000BE016A5F7F4FF101808191810E94331106
:102990008C81882321F08FEFF201808307C0F3013F
:1029A000E75AFF4F8D818083F301148628960FB676
:1029B000F894DEBF0FBECDBFDF91CF911F910F9175
:1029C000FF90EF90DF90CF90BF90AF909F908F904F
:1029D0007F906F905F904F903F902F900895FC01F3
:1029E000E85AFF4F81E090819F3F09F480E008950D
:1029F000EF92FF920F931F93CF93DF9300D01F921C
:102A0000CDB7DEB7FC012485211128C07C011586D5
:102A100087E489838FE38B83E75AFF4F80818A8322
:102A20009701205F3F4F399700E410E043E050E00A
:102A3000BE016F5F7F4F808191810E9431149C01A4
:102A4000215031092E3F3F4F18F0F701148606C080
:102A5000F70195859F5F9587815084870F900F9030
:102A60000F90DF91CF911F910F91FF90EF900895FC
:102A7000CF93DF93EC010E94F8148C85882359F0E2
:102A800081508C878D8591E0980F9D87C80FD11D4F
:102A9000888990E002C08FEF9FEFDF91CF9108957A
:102AA000CF93DF93EC010E94F8148C85882331F0DA
:102AB0008D85C80FD11D888990E002C08FEF9FEFF0
:102AC000DF91CF910895CF93DF93EC010E94F8142A
:102AD0008C8590E0DF91CF910895CF92DF92EF92B5
:102AE000FF920F931F93CF93DF93EC016A017B0159
:102AF00000E010E00C151D05E1F08C85811108C087
:102B0000CE010E94F8148C85811102C0680111C0A9
:102B10008D8591E0980F9D87FE01E80FF11D80895A
:102B2000F70181937F018C8581508C870F5F1F4F48
:102B3000E1CFC601DF91CF911F910F91FF90EF90F0
:102B4000DF90CF9008950F931F93CF93DF93CDB76E
:102B5000DEB727970FB6F894DEBF0FBECDBFFC01DE
:102B6000E05BFF4FA081B18111962D913C911297AE
:102B70002536310528F1FC0184E78E83E75AFF4FA3
:102B800080818F8305E010E09E012F5F3F4F42E080
:102B900050E0BE016A5F7F4FCD010E9431142A814F
:102BA0006B81862F90E0A0E0B0E0DC0199278827B8
:102BB000B22B2D81822B2C81BC01CD01722B03C045
:102BC00060E070E0CB0127960FB6F894DEBF0FBE31
:102BD000CDBFDF91CF911F910F910895EF92FF929A
:102BE0000F931F93CF93DF9300D01F92CDB7DEB723
:102BF0007C0128E5E20EF11CF70120812F3FB9F09E
:102C000026E62983319620812A83399701E010E056
:102C10009E012D5F3F4F42E050E0BE016F5F7F4F4E
:102C2000808191810E9431148FEFF70180830F9092
:102C30000F900F90DF91CF911F910F91FF90EF9028
:102C40000895CF93DF93EC018FEB92E09983888313
:102C5000CE010E94EE15CE018E5A9F4FDF91CF918B
:102C60000C94B20F81E00895CF93DF93EC01BA0189
:102C7000422F2FE433E00E945214CE01DF91CF9116
:102C800008950F931F93CF93DF93CDB7DEB7CA5547
:102C9000D1090FB6F894DEBF0FBECDBF8B011C82E9
:102CA0001B8288EE93E0A0E0B0E08D839E83AF832B
:102CB000B8878DED92E09A8389838FE493E09E87B5
:102CC0008D871A8A1B8A1C8A62EB72E0CE018B5AAE
:102CD0009F4F0E942010BE016B5A7F4FCE0101967C
:102CE0000E944218CE018B5A9F4F0E94B20FB8012A
:102CF000CE018B5A9F4F0E942010BE016B5A7F4F0E
:102D0000CE0101960E943417CE018B5A9F4F0E942C
:102D1000B20FCE0101960E94FB178C01CE010196E5
:102D20000E943B1881E0012B09F080E0C65ADF4F7A
:102D30000FB6F894DEBF0FBECDBFDF91CF911F91CC
:102D40000F9108958FE493E090935B0380935A036F
:102D5000089508950F931F93CF93DF9300D01F9290
:102D6000CDB7DEB729E42983FC0126852A836B834E
:102D700000E010E020E030E043E050E0BE016F5F93
:102D80007F4F848595850E94311481E090E00F90FB
:102D90000F900F90DF91CF911F910F910895EF92B7
:102DA000FF920F931F93CF93DF9300D01F92CDB765
:102DB000DEB7FC012289211118C07C01138A8FE43F
:102DC000898380E48B8386858A839F012C5E3F4FB5
:102DD00000E410E043E050E0BE016F5F7F4F848568
:102DE00095850E943114F701828B0F900F900F9000
:102DF000DF91CF911F910F91FF90EF900895CF93A6
:102E0000DF93EC010E94CF168A8990E0DF91CF9189
:102E10000895CF93DF93EC010E94CF168A8988230F
:102E200059F081508A8B8B8991E0980F9B8BC80F4A
:102E3000D11D8C8990E002C08FEF9FEFDF91CF9181
:102E40000895CF93DF93EC010E94CF168A898823DF
:102E500031F08B89C80FD11D8C8990E002C08FEFB3
:102E60009FEFDF91CF9108950F931F93CF93DF933F
:102E7000EC018B016BEC72E08F8598890E94A110A8
:102E8000B8018F859889DF91CF911F910F910C9494
:102E90009A106F927F928F929F92AF92BF92CF9231
:102EA000DF92EF92FF920F931F93CF93DF9300D0A7
:102EB0001F92CDB7DEB73C0182E58B83D3011F960D
:102EC000ED91FC915097048115812081318182E040
:102ED000882E912CFE0131965F01C12CD12CE12C62
:102EE000F12C41E050E0BE016D5F7F4F1C968D914B
:102EF0009C911D970E9433118A81D3011E968C9359
:102F00001E971F960D911C9150970115110531F0D8
:102F1000C8010E94B20FC8010E944E19F301108A25
:102F200017868981811102C081E0818B0F900F90FB
:102F30000F90DF91CF911F910F91FF90EF90DF9055
:102F4000CF90BF90AF909F908F907F906F9008959B
:102F50000F931F93CF93DF9300D01F92CDB7DEB7AF
:102F600022E72983FC0126852A8301E010E09E01E7
:102F70002D5F3F4F42E050E0BE016F5F7F4F848581
:102F800095850E94311481E09B81913009F080E0A9
:102F90000F900F900F90DF91CF911F910F91089597
:102FA0000F931F93CF93DF9300D000D0CDB7DEB740
:102FB00027E52B83FC0126852C8302E010E09E018F
:102FC0002F5F3F4F42E050E0BE016D5F7F4F848531
:102FD00095850E943114898190E0982F88272A8155
:102FE000820F911D0F900F900F900F90DF91CF9156
:102FF0001F910F910895CF93DF93EC010E94491721
:10300000CE010E94A817882339F064E670E080E0C2
:1030100090E00E94200FF4CFCE01DF91CF910C946D
:10302000D017EF92FF920F931F93CF93DF9300D0AF
:10303000CDB7DEB77C01FC018189882389F087E761
:10304000898386858A8300E010E020E030E042E05A
:1030500050E0BE016F5F7F4F848595850E943114DB
:10306000F701118A0F900F90DF91CF911F910F916F
:10307000FF90EF9008952DED32E0FC013183208325
:103080000C941118EF92FF920F931F93CF93DF933D
:1030900000D0CDB7DEB77C0169837A830E94111816
:1030A00086E090E00E944C198C0169817A810E942F
:1030B0004C10F701108B07870F900F90DF91CF9185
:1030C0001F910F91FF90EF900895EF92FF920F9351
:1030D0001F93CF93DF9300D000D000D0CDB7DEB7E1
:1030E0008C017B016DEC72E0CE0101960E942010F4
:1030F000BE016F5F7F4FC8010E944218CE0101964A
:103100000E94B20F66ED72E0CE0101960E9420107F
:10311000BE016F5F7F4FC8010E943417CE01019638
:103120000E94B20FB701C8010E943417C8010E9463
:10313000491726960FB6F894DEBF0FBECDBFDF91BC
:10314000CF911F910F91FF90EF900895CF93DF9350
:10315000EC010E946518CE010E94A817882339F05F
:1031600064E670E080E090E00E94200FF4CFCE0192
:10317000DF91CF910C94D0171F920F920FB60F9240
:1031800011242F938F939F93EF93FF93E0916C0300
:10319000F0916D038081E0917203F091730382FDE1
:1031A00012C09081809175038F5F8F732091760399
:1031B000821751F0E0917503F0E0E45AFC4F958FCF
:1031C0008093750301C08081FF91EF919F918F9152
:1031D0002F910F900FBE0F901F9018951F920F9276
:1031E0000FB60F9211242F933F934F935F936F93DA
:1031F0007F938F939F93AF93BF93EF93FF938CE550
:1032000093E00E940209FF91EF91BF91AF919F91CE
:103210008F917F916F915F914F913F912F910F907F
:103220000FBE0F901F9018958CE593E00E94C60882
:1032300021E0892B09F420E0822F0895ECE5F3E0EA
:103240001382128288EE93E0A0E0B0E0848395833D
:10325000A683B78385E892E0918380838DEC90E02C
:10326000958784878CEC90E09787868788EC90E040
:10327000918B808B89EC90E0938B828B8AEC90E031
:10328000958B848B8EEC90E0978B868B118E128EB3
:10329000138E148E089508950C94111A0C94A61A86
:1032A000EF92FF920F931F93CF93DF937B01FC016B
:1032B000C281D38100E010E0209781F0E881F9819C
:1032C0000280F381E02DB701CE01099597FD08C07A
:1032D000080F191F0884D985C02DEECFC80102C080
:1032E0008FEF9FEFDF91CF911F910F91FF90EF90A4
:1032F00008950F931F93CF93DF938B01FC01C2813D
:10330000D381209771F0E881F9810480F581E02D67
:10331000B801CE010995009731F40884D985C02DF4
:10332000F0CF80E090E0DF91CF911F910F91089551
:103330000F931F93CF93DF938B01FC01C281D38145
:10334000209771F0E881F9810680F781E02DB801BE
:10335000CE010995080F111D0884D985C02DF0CF25
:10336000F8011082DF91CF911F910F9108950F9373
:103370001F93CF93DF938B01FC01C281D3812097F0
:1033800071F0E881F9810190F081E02DB801CE0162
:103390000995811105C00884D985C02DF0CF80E042
:1033A000DF91CF911F910F9108958091FD038111BD
:1033B0000DC082E08093F90384E08093FA031092B9
:1033C000FC031092FB0381E08093FD0389EF93E0FF
:1033D0000895A1E21A2EAA1BBB1BFD010DC0AA1F56
:1033E000BB1FEE1FFF1FA217B307E407F50720F06E
:1033F000A21BB30BE40BF50B661F771F881F991FE9
:103400001A9469F760957095809590959B01AC0131
:10341000BD01CF010895EE0FFF1F0590F491E02D3F
:103420000994CF93DF938230910510F482E090E00D
:10343000E0910704F091080420E030E0C0E0D0E023
:10344000309711F14081518148175907C0F0481752
:10345000590761F482819381209719F09B838A83B5
:103460002BC0909308048093070426C021153105D2
:1034700019F04217530718F49A01BE01DF01EF015A
:103480000280F381E02DDCCF2115310509F1281BE5
:10349000390B2430310590F412968D919C9113973D
:1034A0006115710521F0FB019383828304C0909321
:1034B000080480930704FD01329644C0FD01E20F29
:1034C000F31F81939193225031092D933C933AC07D
:1034D0002091050430910604232B41F42091020130
:1034E00030910301309306042093050420910001DC
:1034F000309101012115310541F42DB73EB74091BE
:10350000040150910501241B350BE0910504F09155
:103510000604E217F307A0F42E1B3F0B2817390708
:1035200078F0AC014E5F5F4F2417350748F04E0F1F
:103530005F1F50930604409305048193919302C04A
:10354000E0E0F0E0CF01DF91CF9108950F931F935A
:10355000CF93DF93009709F48CC0FC01329713825C
:10356000128200910704109108040115110581F4DD
:1035700020813181820F931F209105043091060430
:103580002817390779F5F0930604E093050471C014
:10359000D80140E050E0AE17BF0750F412962D91CD
:1035A0003C911397AD012115310509F1D901F3CFF4
:1035B0009D01DA013383228360817181860F971F19
:1035C0008217930769F4EC0128813981260F371F90
:1035D0002E5F3F4F318320838A819B819383828337
:1035E000452B29F4F0930804E093070442C0139696
:1035F000FC93EE931297ED01499159919E01240F8E
:10360000351FE217F30771F480819181840F951FB4
:10361000029611969C938E938281938113969C932C
:103620008E931297E0E0F0E0D80112968D919C9174
:103630001397009719F0F8018C01F6CF8D919C91AA
:1036400098012E5F3F4F820F931F20910504309108
:1036500006042817390769F4309729F410920804F2
:103660001092070402C01382128210930604009382
:103670000504DF91CF911F910F910895A0E0B0E074
:10368000E4E4FBE10C94BD1EEC01009721F4CB01B6
:103690000E94111AB8C0FC01E60FF71F9C012250CE
:1036A0003109E217F30708F4ACC0D9010D911C9160
:1036B000119706171707B0F00530110508F49FC0E1
:1036C000C80104978617970708F499C0025011099A
:1036D000061B170B019311936D937C93CF010E94EE
:1036E000A61A8DC05B01A01AB10A4C01800E911E72
:1036F000A0910704B091080440E050E0E12CF12CC7
:10370000109709F44AC0A815B905D1F56D907C90C1
:103710001197630182E0C80ED11CCA14DB0480F14A
:10372000A3014A195B096A0182E0C80ED11C1296F6
:10373000BC9012971396AC91B5E0CB16D10440F033
:10374000B282A38351834083D9016D937C930AC0D5
:103750000E5F1F4FC301800F911FF901918380837A
:10376000EB2DFA2FE114F10431F0D7011396FC93FD
:10377000EE93129744C0F0930804E09307043FC00F
:103780008D919C9111974817590708F4AC017D0160
:1037900012960D90BC91A02DB3CF8091050490910D
:1037A000060488159905E1F446175707C8F4809177
:1037B000000190910101009741F48DB79EB74091AF
:1037C000040150910501841B950BE817F907C8F413
:1037D000F0930604E0930504F901718360830FC040
:1037E000CB010E94111A7C01009759F0A801BE017B
:1037F0000E94081CCE010E94A61AC70104C0CE0177
:1038000002C080E090E0CDB7DEB7EEE00C94D91EA8
:10381000FB01DC0102C001900D9241505040D8F7ED
:103820000895FB01DC0101900D920020E1F708955D
:10383000AEE0B0E0EEE1FCE10C94C71E0D891E89FC
:1038400086E08C831A8309838FEF9FE79E838D83A5
:10385000AE01475E5F4F6F89788DCE0101960E9461
:103860003B1C2F813885F801E20FF31F10822E9642
:10387000E4E00C94E31EACE0B0E0E1E4FCE10C9485
:10388000B91E7C016B018A01FC01178216828381BB
:1038900081FFBDC1CE0101964C01F7019381F60174
:1038A00093FD859193FF81916F01882309F4ABC14A
:1038B000853239F493FD859193FF81916F018532B3
:1038C00029F4B70190E00E94231EE7CF512C312C40
:1038D00020E02032A0F48B3269F030F4803259F0CD
:1038E000833269F420612CC08D3239F0803339F491
:1038F000216026C02260246023C0286021C027FDEB
:1039000027C030ED380F3A3078F426FF06C0FAE0D1
:103910005F9E300D1124532E13C08AE0389E300D67
:103920001124332E20620CC08E3221F426FD6BC18F
:10393000206406C08C3611F4206802C0883641F439
:10394000F60193FD859193FF81916F018111C1CFA4
:10395000982F9F7D9554933028F40C5F1F4FFFE301
:10396000F9830DC0833631F0833771F0833509F068
:103970005BC022C0F801808189830E5F1F4F442401
:103980004394512C540115C03801F2E06F0E711CA4
:10399000F801A080B18026FF03C0652D70E002C051
:1039A0006FEF7FEFC5012C870E94181E2C01830149
:1039B0002C852F77222E17C03801F2E06F0E711C74
:1039C000F801A080B18026FF03C0652D70E002C021
:1039D0006FEF7FEFC5012C870E940D1E2C012C85F7
:1039E0002068222E830123FC1BC0832D90E0481603
:1039F0005906B0F4B70180E290E00E94231E3A9489
:103A0000F4CFF50127FC859127FE81915F01B70175
:103A100090E00E94231E31103A94F1E04F1A5108B1
:103A20004114510471F7E5C0843611F0893639F537
:103A3000F80127FF07C060817181828193810C5F4B
:103A40001F4F08C060817181072E000C880B990BF5
:103A50000E5F1F4F2F76722E97FF09C090958095AD
:103A6000709561957F4F8F4F9F4F2068722E2AE08F
:103A700030E0A4010E945B1EA82EA81844C0853720
:103A800029F42F7EB22E2AE030E025C0F22FF97FF4
:103A9000BF2E8F36C1F018F4883579F0B4C0803766
:103AA00019F0883721F0AFC02F2F2061B22EB4FE5D
:103AB0000DC08B2D8460B82E09C024FF0AC09F2F33
:103AC0009660B92E06C028E030E005C020E130E065
:103AD00002C020E132E0F801B7FE07C060817181C9
:103AE000828193810C5F1F4F06C06081718180E0ED
:103AF00090E00E5F1F4FA4010E945B1EA82EA81825
:103B0000FB2DFF777F2E76FE0BC0372D3E7FA51451
:103B100050F474FE0AC072FC08C0372D3E7E05C00A
:103B2000BA2C372D03C0BA2C01C0B52C34FF0DC000
:103B3000FE01EA0DF11D8081803311F4397E09C048
:103B400032FF06C0B394B39404C0832F867809F083
:103B5000B39433FD13C030FF06C05A2CB31418F4CD
:103B6000530C5B18B32CB31468F4B70180E290E0F7
:103B70003C870E94231EB3943C85F5CFB31410F408
:103B80003B1801C0312C34FF12C0B70180E390E034
:103B90003C870E94231E3C8532FF17C031FD03C0C5
:103BA00088E790E002C088E590E0B7010CC0832F61
:103BB000867859F031FF02C08BE201C080E237FD08
:103BC0008DE2B70190E00E94231EA51438F4B701DE
:103BD00080E390E00E94231E5A94F7CFAA94F40148
:103BE000EA0DF11D8081B70190E00E94231EA11013
:103BF000F5CF332009F451CEB70180E290E00E9466
:103C0000231E3A94F6CFF7018681978102C08FEF89
:103C10009FEF2C96E2E10C94D51EFC0105906150BB
:103C200070400110D8F7809590958E0F9F1F0895D2
:103C3000FC016150704001900110D8F7809590957B
:103C40008E0F9F1F08950F931F93CF93DF93FB0158
:103C5000238121FD03C08FEF9FEF28C022FF16C0F4
:103C600046815781248135814217530744F4A0814E
:103C7000B1819D012F5F3F4F318320838C9326813B
:103C800037812F5F3F4F3783268310C0EB01092F09
:103C9000182F0084F185E02D0995892BE1F68E819E
:103CA0009F8101969F838E83812F902FDF91CF91EB
:103CB0001F910F910895FA01AA27283051F1203160
:103CC00081F1E8946F936E7F6E5F7F4F8F4F9F4FB0
:103CD000AF4FB1E03ED0B4E03CD0670F781F891FF2
:103CE0009A1FA11D680F791F8A1F911DA11D6A0FC0
:103CF000711D811D911DA11D20D009F468943F9173
:103D00002AE0269F11243019305D3193DEF6CF0171
:103D10000895462F4770405D4193B3E00FD0C9F737
:103D2000F6CF462F4F70405D4A3318F0495D31FDA4
:103D30004052419302D0A9F7EACFB4E0A6959795F7
:103D4000879577956795BA95C9F7009761057105CD
:103D500008959B01AC010A2E069457954795379517
:103D60002795BA95C9F7620F731F841F951FA01D71
:103D700008952F923F924F925F926F927F928F920F
:103D80009F92AF92BF92CF92DF92EF92FF920F93EA
:103D90001F93CF93DF93CDB7DEB7CA1BDB0B0FB6F4
:103DA000F894DEBF0FBECDBF09942A8839884888B1
:103DB0005F846E847D848C849B84AA84B984C88447
:103DC000DF80EE80FD800C811B81AA81B981CE0F3E
:103DD000D11D0FB6F894DEBF0FBECDBFED01089523
:043DE000F894FFCF85
:103DE4000000090480003031203031203230313677
:103DF4002031323A33343A353600FFFFFFFF00E119
:103E040000000000000000C180810000002F7673D4
:103E14006D2F000000000000000000000000000002
:103E2400000000000000000000000000000000008E
:103E3400000000000000000000000000000000007E
:103E44000000000000000000000000000058585866
:103E540058585858313030707974686F6E202F7606
:103E6400736D2F73657466696C657374696D6573BE
:103E740074616D702E7079006C73202D65202F761F
:103E8400736D0025303269202530326920253034A5
:103E94006920253032693A253032693A2530326951
:103EA40000696D706F72742074696D650A696D7054
:103EB4006F7274206F730A74696D65737472696EBE
:103EC40067203D202200220A74696D657374616D58
:103ED40070203D2074696D652E6D6B74696D652865
:103EE40074696D652E7374727074696D6528746974
:103EF4006D65737472696E672C2022256420256DAC
:103F04002025592025483A254D3A25532229290AA6
:103F14006F732E7574696D65282200222C20287415
:103F2400696D657374616D702C2074696D6573744B
:103F3400616D7029290A002F76736D2F736574667D
:103F4400696C657374696D657374616D702E7079D5
:103F54000000000000AB07F207D507E507C107D250
:103F640007000000004509050AC608E008D2082336
:103F7400096C732000207C2061776B20274E523D12
:103F84003D0027002F006C73006D6B646972002D77
:103F94007000726D00726D6469720000000000C8E8
:103FA40013DF13631538155015DE13FE002F6269F5
:103FB4006E2F617368002D630000000000AA1605CF
:0A3FC4000AFF1609172117A91600BD
:00000001FF
