:100000000C945C010C948D010C948D010C948D0169
:100010000C948D010C948D010C948D010C948D0128
:100020000C948D010C948D010C948D010C948D0118
:100030000C948D010C948D010C948D010C948D0108
:100040000C948D010C948D010C948D010C948D01F8
:100050000C948D010C948D010C948D010C94F1077E
:100060000C948D010C941F070C9455070C948D0172
:100070000C948D010C948D010C948D010C948D01C8
:100080000C948D010C948D010C948D010C948D01B8
:100090000C948D010C948D010C948D010C948D01A8
:1000A0000C948D010C948D010C948D010C948D0198
:1000B0000C948D010C948D010C948D010C948D0188
:1000C0000C948D010C948D010C948D010C948D0178
:1000D0000C948D010C948D010C948D010C948D0168
:1000E0000C948D01C81CCB1CBA1CBE1CC41C021D68
:1000F000CF1CD31CD91CDD1CE11CE71CEB1CEF1C26
:10010000021DF51CF91CFD1C0C94F91C0C94E11C3F
:100110000C94DD1C0C94C41C0C942F060C948907C1
:100120000C944F0A0C94F51C0C945B090C94BD05BF
:100130000C9465090C94FD1C0C94D1050C94A3053A
:100140000C9491100C94EF1C0C94F2170C94C81C96
:100150000C94CF1C0C94E71C0C94EB1C0C94BE1C50
:100160000C9420090C948F010C94D91C0C9451060A
:100170000C94010A0C94D31C0C94AF050C94BA1C7B
:100180000C94021D0C940A090C943C090C947F07F2
:100190000C94E30C0C94C6070C94CB1C7C3C3E5E88
:1001A0002B3D3F2F5B5D3B2C2A225C0000000A0B9D
:1001B00002090C0D0E0807030401000000000000F6
:1001C000000000000000000000000000000000002F
:1001D00000000000000000001211100000000000EC
:1001E000000000000000000000000000000000000F
:1001F000000001021020200808102040102040803C
:1002000002010201080402010102040810204080DA
:100210008040201008040201800402018040201068
:1002200008040201080402010102040810204080B1
:10023000010204081020408005050505070508088F
:100240000808020202020A0A080804040404010160
:100250000101010101010303030303030303040775
:1002600007070C0C0C0C0C0C0C0C0202020206060C
:100270000606060606060B0B0B0B0B0B0B0B000002
:100280002200250028002B002E003100340002013E
:100290000000050108010B010000210024002700D7
:1002A0002A002D0030003300010100000401070185
:1002B0000A018907E30C911011241FBECFEFD1E290
:1002C000DEBFCDBF00E00CBF12E0A0E0B2E0EEE781
:1002D000FEE300E00BBF02C007900D92A833B10708
:1002E000D9F725E0A8E3B2E001C01D92AB33B20715
:1002F000E1F711E0CCE5D1E000E006C0219701096B
:10030000802FFE010E94C71DC935D10780E0080774
:10031000A9F70E94B7070C943D1F0C940000209190
:10032000080230910902FC0131832083809106028A
:1003300090910702FB01918380830895FC0148E0BE
:100340008CE89081292F30E035952795962790FDF0
:100350002827208366954150A1F708950895682FB6
:1003600088E392E00C9451061F93CF93DF931F9282
:100370001F92CDB7DEB7182F862F79839A830E94FC
:10038000AF017981872F0E94AF01812F0E94AF01B9
:100390009A81892F0F900F90DF91CF911F910C942C
:1003A000AF01AF92BF92CF92DF92EF92FF920F9385
:1003B0001F93CF93DF93CDB7DEB7EB970FB6F894CB
:1003C000DEBF0FBECDBF21E04EE052E06EED72E029
:1003D000CE0181960E944E0CCE0181960E94420A67
:1003E000882309F457C08E01075F1F4F5E01FCE0B0
:1003F000AF0EB11C40E250E0BE016F5F7F4FCE01F7
:1004000081960E94D709809709F044C0898188238A
:1004100009F440C0853E71F38C85887159F785E4F5
:100420000E94AF01CE0101967C01F70181917F010D
:10043000803211F00E94AF01E016F106B1F78EE2B2
:100440000E94AF017801F70181917F01803211F0A4
:100450000E94AF01EA14FB04B1F780E00E94AF01F3
:10046000C98CDA8CE12CF12C7601DD24CC248F8927
:10047000988DA0E0B0E0C82AD92AEA2AFB2A6D8D1F
:100480007E8D8F8D98A10E94B401C701B6010E9494
:10049000B401B0CFCE0181960E94300A80E00E9464
:1004A000AF0181E0EB960FB6F894DEBF0FBECDBF73
:1004B000DF91CF911F910F91FF90EF90DF90CF9040
:1004C000BF90AF9008950F931F93CF93DF938C014C
:1004D000C0E0D0E088E392E00E94A305892B41F0C0
:1004E00088E392E00E94BD05F801808381E00CC0A2
:1004F00061E070E080E090E00E946C082196C83EC8
:10050000F3E0DF0739F780E0DF91CF911F910F9182
:1005100008958F929F92AF92BF92EF92FF920F93A6
:100520001F93CF93DF931F92CDB7DEB78C01FC01F1
:100530001082118212821382E12CF12CCE010196DD
:100540000E946302882301F1498150E060E070E07D
:100550000E2C04C0440F551F661F771F0A94D2F754
:10056000F80180809180A280B380480D591D6A1DDA
:100570007B1D4083518362837383F8E0EF0EF11C8F
:1005800090E2E916F104D1F60F90DF91CF911F911F
:100590000F91FF90EF90BF90AF909F908F90089534
:1005A000CF93DF9300D01F92CDB7DEB78BE40E94CC
:1005B000AF01CE0101960E948902882361F0498132
:1005C0005A816B817C817093090260930802509379
:1005D0000702409306020F900F900F900F90DF914B
:1005E000CF910895AF92BF92CF92DF92EF92FF9298
:1005F0000F931F93CF93DF9300D01F92CDB7DEB739
:100600005C01C12CD12C7601C416D506E606F7068E
:1006100071F08501C50149835A836B837C830E94F5
:10062000630249815A816B817C81811102C080E023
:100630000DC09FEFA91AB90AF8019081992331F0F2
:10064000FFEFCF1ADF0AEF0AFF0ADECF0F900F90FD
:100650000F900F90DF91CF911F910F91FF90EF902E
:10066000DF90CF90BF90AF9008951F93CF93DF930B
:100670001F92CDB7DEB7CE0101960E9463028111B1
:1006800002C010E013C089818235D9F788E50E9445
:10069000AF01CE0101960E946302182F882389F3CF
:1006A0008981823771F788E70E94AF01812F0F900F
:1006B000DF91CF911F9108951F93CF93DF931F92E6
:1006C000CDB7DEB7CE0101960E946302882361F0A8
:1006D00069818EED92E00E94450B182F882321F04E
:1006E0008BE40E94AF0104C086E40E94AF0110E0D9
:1006F000812F0F90DF91CF911F9108957F928F925C
:100700009F92AF92BF92CF92DF92EF92FF920F93A0
:100710001F93CF93DF93CDB7DEB7CF56D1090FB676
:10072000F894DEBF0FBECDBF8EE40E94AF01CE01B4
:100730008F5B9F4F0E94C4094EE050E060E070E084
:10074000CE01845A9F4F0E94F202811104C086E4B8
:100750000E94AF01C3C0BE01645A7F4F8EED92E08C
:100760000E94D80C23E1AE01445A5F4F6EED72E057
:10077000CE0101960E944E0C8B819C8125969FAFE5
:100780008EAF25978D819E81AF81B88529968CAFDC
:100790009DAFAEAFBFAF299789859A85AB85BC85E4
:1007A0002D968CAF9DAFAEAFBFAF2D978DE0FE0104
:1007B0003D96DE01A35BBF4F01900D928A95E1F754
:1007C0008A8D9B8D6C969FAF8EAF6C97CE018F5BA1
:1007D0009F4F0E94420A882309F4B9CF83E50E9403
:1007E000AF01CE0186599F4F0E948902782E88233F
:1007F00009F475C0E0961FAEE097AE96CCACDDACC8
:10080000EEACFFACAE9781E4C816D104E104F1046C
:1008100028F080E4C82ED12CE12CF12CC701B601C0
:100820000E94B401C114D104E104F10431F4CE01F9
:100830008F5B9F4F0E94300A52C08E010F5F1F4F87
:100840005801AC0CBD1C4801C8010E946302811113
:1008500014C0A601BE016F5F7F4FCE018F5B9F4F1B
:100860000E94200983E40E94AF01CE0182599F4F6C
:100870000E94630281110EC02CC00F5F1F4FF40154
:100880006081CE0181599F4F0E949E010A151B0570
:10089000D1F6DFCFE0969FADE097AF968FADAF97E3
:1008A000981731F060E070E0CB010E94B40111C0F4
:1008B000AE968CAD9DADAEADBFADAE978C199D091A
:1008C000AE09BF09AE968CAF9DAFAEAFBFAFAE97CE
:1008D00091CFCE018F5B9F4F0E94300A712C872DE4
:1008E000C159DF4F0FB6F894DEBF0FBECDBFDF9109
:1008F000CF911F910F91FF90EF90DF90CF90BF901D
:10090000AF909F908F907F900895CF92DF92EF925B
:10091000FF921F93CF93DF93CDB7DEB7C654D109B3
:100920000FB6F894DEBF0FBECDBF8EE40E94AF01BC
:10093000CE014C960E94C4094EE050E060E070E0A9
:10094000CE01C7960E94F202182F811104C086E4DE
:100950000E94AF0190C021E0AE01495C5F4F6EED97
:1009600072E0CE0101960E944E0C8B819C819F8F7C
:100970008E8F8D819E81AF81B88588A399A3AAA30C
:10098000BBA389859A85AB85BC858CA39DA3AEA3AB
:10099000BFA38DE0FE013D96DE01989601900D9279
:1009A0008A95E1F78A8D9B8D9EAB8DABCE014C96DF
:1009B0000E94420A182F811106C060E070E0CB014E
:1009C0000E94B40158C0CE014C960E94F1090E94C9
:1009D000B401CE0101960E948902182F882309F4E0
:1009E00045C089819A81AB81BC81892B8A2B8B2B55
:1009F00029F4CE014C960E94300A3DC027961FAEC6
:100A00002797C12CD12C760189819A81AB81BC8139
:100A1000C816D906EA06FB06B8F4CE014C960E9429
:100A20005B0926968FAF26970E94AF0126966FAD81
:100A30002697CE018A5B9F4F0E949E018FEFC81AB6
:100A4000D80AE80AF80AE0CFCE018B5B9F4F0E94DC
:100A50006302882359F026968FAD2697833431F4AC
:100A600027968FAD27970E94AF01B3CFCE014C964A
:100A70000E94300A10E0812FCA5BDF4F0FB6F89456
:100A8000DEBF0FBECDBFDF91CF911F91FF90EF90E2
:100A9000DF90CF9008951F93CF93DF931F92CDB730
:100AA000DEB710E0112339F0CE0101960E946302F7
:100AB000811106C010E00E9435038111F5CFFBCFF4
:100AC0008981893489F048F48434C9F0853451F738
:100AD0000F90DF91CF911F9108958435D1F0853526
:100AE00049F08C34F9F610C01111DCCF0E945C0380
:100AF000182FD8CF1123F9F20E947E03D3CF1123F0
:100B0000D1F20E948504CECF1123A9F20E94D10117
:100B1000C9CF112381F20E94D002C4CF26E040E069
:100B200052EC61E070E088E392E00E9498068FE862
:100B300091E090932B0380932A030E944B0588E356
:100B400092E00C94FD06FC01918D228D892F90E09E
:100B5000805C9F4F821B91098F7399270895FC0138
:100B6000918D828D981731F0828DE80FF11D858D62
:100B700090E008958FEF9FEF0895FC01918D828D95
:100B8000981761F0828DDF01A80FB11D5D968C91E1
:100B9000928D9F5F9F73928F90E008958FEF9FEFEC
:100BA00008958FE797E0892B41F080E090E0892B52
:100BB00021F00E947F07811125C080E090E0892B01
:100BC00041F080E090E0892B21F00E94000081112B
:100BD0001CC080E090E0892B41F080E090E0892B00
:100BE00021F00E940000811113C080E090E0892B69
:100BF000A1F080E090E0892B81F00E94000081113B
:100C00000AC008950E940000D8CF0E940000E1CFE2
:100C10000E940000EACF0C9400000895FC01848D2E
:100C2000DF01A80FB11DA35ABF4F2C91848D90E016
:100C300001968F739927848FA689B7892C93A089F1
:100C4000B1898C9180648C93938D848D981306C0A8
:100C50000288F389E02D80818F7D80830895CF9372
:100C6000DF93EC01888D8823C9F0EA89FB898081B4
:100C700085FD05C0A889B9898C9186FD0FC00FB686
:100C800007FCF5CF808185FFF2CFA889B9898C91C7
:100C900085FFEDCFCE010E940E06E7CFDF91CF9109
:100CA0000895EF92FF920F931F93CF93DF93EC0180
:100CB00081E0888F9B8D8C8D981305C0E889F98918
:100CC000808185FD24C0F62E0B8D10E00F5F1F4F35
:100CD0000F731127E02E8C8DE8120CC00FB607FCA5
:100CE000FACFE889F989808185FFF5CFCE010E948E
:100CF0000E06F1CF8B8DFE01E80FF11DE35AFF4F79
:100D0000F0820B8FEA89FB898081806207C0EE89BF
:100D1000FF896083E889F98980818064808381E02C
:100D200090E0DF91CF911F910F91FF90EF90089588
:100D3000CF92DF92EF92FF921F93CF93DF93EC015C
:100D40006A017B01122FE889F98982E080834115CD
:100D5000514E61057105B1F060E079E08DE390E0FE
:100D6000A70196010E94A51DDA01C9010197A109F9
:100D7000B109B695A79597958795AC01411580E186
:100D80005807A8F0E889F989108260E874E88EE1D4
:100D900090E0A70196010E94A51DBA01A90141504A
:100DA0005109610971097695679557954795EC85C5
:100DB000FD855083EE85FF854083188EEC89FD8983
:100DC0001083EA89FB89808180618083EA89FB89BD
:100DD000808188608083EA89FB8980818068808344
:100DE000EA89FB8980818F7D8083DF91CF911F917C
:100DF000FF90EF90DF90CF900895CF93DF93EC01B9
:100E0000E881F9810284F385E02D1995EA89FB894F
:100E100080818F7E8083EA89FB898081877F8083C0
:100E2000EA89FB8980818F778083EA89FB898081C9
:100E30008F7D80838A8D898FDF91CF9108951F9256
:100E40000F920FB60F9211240BB60F922F938F9320
:100E50009F93EF93FF93E0914802F09149028081C4
:100E6000E0914E02F0914F0282FD12C0908180917C
:100E700051028F5F8F7320915202821751F0E091DF
:100E80005102F0E0E85CFD4F958F8093510201C064
:100E90008081FF91EF919F918F912F910F900BBEC9
:100EA0000F900FBE0F901F9018951F920F920FB6C4
:100EB0000F9211240BB60F922F933F934F935F9392
:100EC0006F937F938F939F93AF93BF93EF93FF9312
:100ED00088E392E00E940E06FF91EF91BF91AF91DF
:100EE0009F918F917F916F915F914F913F912F9142
:100EF0000F900BBE0F900FBE0F901F90189588E3B8
:100F000092E00E94A30521E0892B09F420E0822FC2
:100F10000895E8E3F2E01382128288EE93E0A0E005
:100F2000B0E084839583A683B78384E192E09183C4
:100F3000808385EC90E09587848784EC90E09787A8
:100F4000868780EC90E0918B808B81EC90E0938B96
:100F5000828B82EC90E0958B848B86EC90E0978B73
:100F6000868B118E128E138E148E089508950E9412
:100F7000A8080E94B6070E948E05C1EDD5E00E9428
:100F8000AE012097E1F30E94D105F9CFCF92DF9215
:100F9000EF92FF920F931F93CF93DF936C017A012F
:100FA0008B01C0E0D0E0CE15DF0589F0D8016D914E
:100FB0008D01D601ED91FC910190F081E02DC601EB
:100FC0001995892B11F47E0102C02196ECCFC7013F
:100FD000DF91CF911F910F91FF90EF90DF90CF9015
:100FE00008951F920F920FB60F9211242F933F93E3
:100FF0008F939F93AF93BF938091D6029091D70226
:10100000A091D802B091D9023091D50223E0230FEC
:101010002D3720F40196A11DB11D05C026E8230F30
:101020000296A11DB11D2093D5028093D602909304
:10103000D702A093D802B093D9028091DA0290919E
:10104000DB02A091DC02B091DD020196A11DB11D71
:101050008093DA029093DB02A093DC02B093DD026E
:10106000BF91AF919F918F913F912F910F900FBEA4
:101070000F901F9018952FB7F8946091D602709139
:10108000D7028091D8029091D9022FBF08953FB71F
:10109000F8948091DA029091DB02A091DC02B09189
:1010A000DD0226B5A89B05C02F3F19F00196A11DB2
:1010B000B11D3FBFBA2FA92F982F8827820F911DEE
:1010C000A11DB11DBC01CD0142E0660F771F881F35
:1010D000991F4A95D1F708958F929F92AF92BF9230
:1010E000CF92DF92EF92FF926B017C010E94470842
:1010F0004B015C01C114D104E104F10401F10E942F
:10110000AC1C0E944708DC01CB0188199909AA0987
:10111000BB09883E9340A105B10560F321E0C21AE6
:10112000D108E108F10888EE880E83E0981EA11C22
:10113000B11CC114D104E104F10419F7DBCFFF9015
:10114000EF90DF90CF90BF90AF909F908F900895D9
:10115000789484B5826084BD84B5816084BD85B592
:10116000826085BD85B5816085BDEEE6F0E0808159
:1011700081608083E1E8F0E010828081826080837A
:10118000808181608083E0E8F0E0808181608083FD
:10119000E1EBF0E0808184608083E0EBF0E080812F
:1011A00081608083E1E9F0E08081826080838081DA
:1011B00081608083E0E9F0E0808181608083E1EA02
:1011C000F0E0808182608083808181608083E0EABA
:1011D000F0E0808181608083E1E2F1E080818260E3
:1011E0008083808181608083E0E2F1E080818160A2
:1011F0008083EAE7F0E08081846080838081826080
:101200008083808181608083808180688083109268
:10121000C1000895CF93DF931F92CDB7DEB76983E6
:10122000DC01ED91FC910280F381E02D41E050E082
:10123000BE016F5F7F4F19950F90DF91CF91089599
:10124000CF93DF93EC01898D9A8D009739F481E07B
:1012500090E09B838A8380E090E00BC0FC011382C6
:1012600012820E945116E98DFA8D22813381232B3F
:1012700071F7DF91CF910895FC01818D928D0097D8
:1012800011F00C94A5130895CF93DF931F92CDB75F
:10129000DEB741E050E0BE016F5F7F4F0E94C11199
:1012A000019719F4898190E002C08FEF9FEF0F90B2
:1012B000DF91CF910895FC01818D928D009711F0FF
:1012C0000C9444098FEF9FEF08950F931F93CF93D2
:1012D000DF93FC01818D928D0097B9F0EF010E94A0
:1012E00044098C010F3F8FEF180791F0898D9A8D7B
:1012F000FC0142855385648575854150510961091A
:1013000071090E940F13C80105C080E090E002C07F
:101310008FEF9FEFDF91CF911F910F910895EF9283
:10132000FF920F931F93CF93DF93EC017B018A0110
:101330001B821A8288EE93E0A0E0B0E08C839D834C
:10134000AE83BF8384E292E0998388838DE190E04D
:101350000E94E91D9A8F898F009779F02DE1F7019E
:10136000DC0101900D922A95E1F74CE050E0B801C4
:10137000CE010C960E942E1F188EDF91CF911F91E7
:101380000F91FF90EF900895FC011382128288EE76
:1013900093E0A0E0B0E084839583A683B78384E2E2
:1013A00092E091838083128E118E14860895FC0141
:1013B000818D928D009711F00C94C11180E090E026
:1013C0000895DC015996ED91FC915A97309729F0D8
:1013D000628573858485958508956FEF7FEFCB01D6
:1013E0000895DC015996ED91FC915A97309729F0B8
:1013F0006389748985899689089560E070E0CB01DE
:101400000895CF92DF92EF92FF92CF93DF93FC018A
:10141000218D328D232BD9F0EC010E94F1096B0153
:101420007C01CE010E94E109A7019601261B370B22
:10143000480B590BDA01C901811530E89307A10562
:10144000B10538F08FEF9FE7A0E0B0E002C080E088
:1014500090E0DF91CF91FF90EF90DF90CF900895D3
:10146000CF93DF93EC01898D9A8D009741F00E9414
:10147000EC13898D9A8D0E947E1E1A8E198EDF9133
:10148000CF910895DC015996ED91FC915A973097D0
:1014900021F081E09581911101C080E008954423FD
:1014A00039F00E942A1691E0811103C090E001C03A
:1014B00091E0892F08950F931F93CF93DF93EC0151
:1014C0008B0141E00E94951B811109C040E0B801E9
:1014D000CE01DF91CF911F910F910C94951B81E06C
:1014E000DF91CF911F910F9108950F931F93CF9389
:1014F000DF93DA01EB0128813981FC01E20FF31F50
:1015000040814F3211F42F5F3F4F8D01E0E0F0E05A
:10151000AC01420F531FEA0158815F3259F0552345
:1015200049F031962F5F3F4FE80159938E01EC301F
:10153000F10571F7EA0FFB1F1082FC01E20FF31FA8
:1015400040814F3211F42F5F3F4FFB0131832083E5
:10155000FC01E20FF31F81E09081911101C080E056
:10156000DF91CF911F910F9108954F925F926F92EB
:101570007F928F929F92AF92BF92CF92DF92EF9223
:10158000FF920F931F93CF93DF93CDB7DEB7C9546C
:10159000D1090FB6F894DEBF0FBECDBF5C016B0161
:1015A0003A01490119A218A284E392E09F8F8E8F1D
:1015B0001BA21C821B829A8389831E822A961FAEDD
:1015C0001EAE2A978B017E018EE1E80EF11C4424A9
:1015D0004394AE01455C5F4FBE01685B7F4FC50120
:1015E0000E94750A582E482F44259401BE01655C5F
:1015F0007F4FC801F3011995811108C00C151D0515
:1016000019F0C8010E94EC1380E027C05520B9F002
:1016100021E0AE01455C5F4FB801C7010E94201573
:10162000582E0C151D0599F0C8010E94EC13552089
:1016300059F3902F812F8701E92EF82ECACF0C1570
:101640001D0519F0C8010E94EC1381E006C0882333
:10165000D9F28E010F5F1F4FECCFC75BDF4F0FB684
:10166000F894DEBF0FBECDBFDF91CF911F910F91D8
:10167000FF90EF90DF90CF90BF90AF909F908F90B2
:101680007F906F905F904F9008950F931F93CF932B
:10169000DF93EC01462F61E00E946A0E882389F0F7
:1016A0008E01045F1F4FBE01C8010E945B0A8823A0
:1016B00041F0B801CE018A960E94701191E081112B
:1016C00001C090E0892FDF91CF911F910F91089574
:1016D000FC01DB0112968D919C9113979383828379
:1016E00084E392E09183808314968C911497848391
:1016F00015968C911597858316964D915D916D91F8
:101700007C91199746835783608771871A964D910C
:101710005D916D917C911D97428753876487758792
:101720001E964D915D916D917C915197468757879B
:10173000608B718B52968C915297828B53964D9100
:101740005D916D917C915697438B548B658B768B15
:1017500057964D915D916D917C915A97478B508F23
:10176000618F728F5B968D919C915C97948F838F24
:1017700008954F925F926F927F928F929F92AF9255
:10178000BF92CF92DF92EF92FF920F931F93CF936E
:10179000DF93CDB7DEB7C754D1090FB6F894DEBFDB
:1017A0000FBECDBF6C015A014901665D7F4F7E01BE
:1017B0008EE1E80EF11CC7010E94680B1C821B829F
:1017C00084E392E09A8389831E828501FE0131962B
:1017D0003F0127016FE270E0C8010E94231F0097BC
:1017E000D9F1F80120812F3219F40F5F1F4FF2CF8A
:1017F000801B8D3008F08CE0E82EF12CA701B80199
:10180000CE01CB960E942E1FEBE3F0E0EC0FFD1F04
:10181000EE0DFF1D1082C3010E94EC1321E0AE010A
:10182000455C5F4FB201C3010E942015811109C0C0
:10183000F6011382128284E392E091838083158201
:1018400014C00E0D1F1DC2010E94EC13942D852D96
:101850002301692E782EBECF0A191B09F4011183CA
:101860000083B201C6010E94680BC601C95BDF4F4D
:101870000FB6F894DEBF0FBECDBFDF91CF911F91A1
:101880000F91FF90EF90DF90CF90BF90AF909F901F
:101890008F907F906F905F904F900895AF92BF921E
:1018A000CF92DF92FF920F931F93CF93DF93CDB729
:1018B000DEB7C955D1090FB6F894DEBF0FBECDBF54
:1018C0006C015B018A01F22E9E01285A3F4FCE0126
:1018D000CB960E94B90B6A968EAD9FAD6A97080FA2
:1018E000191FF801808181110AC0BE01655C7F4F1C
:1018F000CE0101960E94680B4EE052E041C019A251
:1019000018A284E392E09F8F8E8F1BA221968FAD49
:101910002197811104C0C6010E94C40937C08250BA
:10192000823060F4B501665D7F4F2F2DA801CE0196
:101930004E960E942015811110C0EDCF2F2DA801C9
:10194000BE01655C7F4FCE014E960E942015882314
:1019500011F3CE01CB960E94EC139F2D967041F0AF
:1019600049A95AA96BA97CA9CE014E960E940F13D2
:10197000BE01625E7F4FCE0101960E94680BA801F6
:10198000BE016F5F7F4FC6010E948F09C601C75A13
:10199000DF4F0FB6F894DEBF0FBECDBFDF91CF9102
:1019A0001F910F91FF90DF90CF90BF90AF9008955F
:1019B000FB01BC01665D7F4F20E030E04FE45AE060
:1019C000CF010C94B50AEEEDF2E015821682118675
:1019D000138682E090E0A0E0B0E084879587A68738
:1019E000B78713A215A614A684E392E093A782A753
:1019F00017A608950F93FC0130E080E092E1AAE77A
:101A0000B0E0481759076A077B0740F4B695A795D9
:101A1000979587953F5F3630A1F737E091E09327A0
:101A2000222311F020E501C020E7892F86950C7054
:101A3000082B022B0083917091830F9108952091C0
:101A40003505222399F04FB7F894209135052130C0
:101A500059F42DB3209333053DB3209134052095DF
:101A600023232DBB4FBF02C0409333058CBD9DBDCA
:101A700008958EBD00000DB407FEFDCF8EB508950C
:101A80008FEF0C94390D80913505882361F09FB755
:101A9000F8942091350580913305213019F48DBBE0
:101AA0009FBF08958FBF089561E0FC0184810E946B
:101AB0003F1D80912703882321F0109227030C9467
:101AC000430D0895CF93DF93EC018091270381119B
:101AD00009C081E080932703809128039091290316
:101AE0000E941F0D60E08C81DF91CF910C943F1D0F
:101AF000CF93DF93EC018E81882389F08F819885C5
:101B00009C012F5F3F4F38872F838230924018F41B
:101B10000E94400DF3CFCE010E94540D1E82DF9132
:101B2000CF9108950F93CF93DF931F921F92CDB75C
:101B3000DEB7673028F026E1FC01258380E047C04E
:101B40006230F9F058F46623A9F0613079F500E0CD
:101B500021E040E059E06DE370E02EC06430F9F020
:101B6000B8F0653019F500E021E040E950ED63E0A0
:101B700070E022C000E021E040E458E76DE771E04A
:101B80001BC000E021E040E854E86EE170E014C0C2
:101B900000E021E040E452E46FE070E00DC000E0BE
:101BA00021E040E251EA67E070E006C000E021E099
:101BB00048E458EE61E070E0CE0101960E94FA0C14
:101BC00089819A81909329038093280381E00F9063
:101BD0000F90DF91CF910F9108950F931F93CF93A3
:101BE000DF93EB010E943B088B010E94400D8F3F69
:101BF00049F00E943B08601B710B6C177D07A8F32E
:101C000080E001C081E0DF91CF911F910F91089595
:101C1000CF92DF92FF920F931F93CF93DF9300D069
:101C20001F92CDB7DEB76C01F62E29833A834B8322
:101C30005C830E94780DC6010E94620D6CE271E027
:101C4000C6010E94ED0D8F2D80640E94390D08E1C0
:101C500010E05C814B813A812981DA01C901002EB3
:101C600004C0B695A795979587950A94D2F72983CE
:101C70003A834B835C830E94390D085011092981F6
:101C80003A814B815C81083F8FEF180731F7FF20C5
:101C900029F0E8E0FE1204C087E803C085E901C02E
:101CA0008FEF0E94390D10E00E94400DF6018287EF
:101CB00087FF04C01F3F11F01F5FF6CF0F900F90FA
:101CC0000F900F90DF91CF911F910F91FF90DF90B8
:101CD000CF9008957F928F929F92AF92BF92CF92B2
:101CE000DF92EF92FF920F931F93CF93DF931F9298
:101CF0001F92CDB7DEB77C01762EFC0113861186CC
:101D00001682158244830E943B086B0161E0F70153
:101D100084810E94031D61E0F70184810E943F1DC0
:101D20000E946F1D00E021E040E950ED63E070E0AB
:101D3000CE0101960E94FA0C89819A819093290321
:101D4000809328030E941F0D1AE08FEF0E94390D27
:101D50001150D9F70E94430DC7010E94620D20E087
:101D600030E0A90160E0C7010E94080E082FF701CA
:101D70008287813049F00E943B086C197D09613DE2
:101D8000774068F381E04FC02AEA31E040E050E05C
:101D900068E0C7010E94080E82FF03C0F7010387B5
:101DA0000EC004E00E94400DF70182870150D1F778
:101DB0008A3A11F082E038C082E0F7018387F701A8
:101DC0008385823021F0812C912C540105C0812C17
:101DD000912CA12C80E4B82E20E030E0A90167E32B
:101DE000C7010E94080EA501940169E2C7010E9483
:101DF000080EF7018287882349F00E943B086C197E
:101E00007D09613D774040F388E00DC083858230D5
:101E1000F1F420E030E0A9016AE3C7010E94080E56
:101E2000882339F086E0F7018583C7010E94540DAD
:101E300016C00E94400D807C803C19F483E0F701BD
:101E400083870E94400D0E94400D0E94400DC701F3
:101E50000E94540D672DC7010E94920D182F812FEB
:101E60000F900F90DF91CF911F910F91FF90EF9006
:101E7000DF90CF90BF90AF909F908F907F9008950C
:101E80000F931F93CF93DF93EC010E943B088B01CC
:101E90000E94400D8A878F3F49F40E943B08601BD7
:101EA000710B6D327140A0F38FE003C08E3F39F0AB
:101EB0008DE08D83CE010E94540D80E001C081E051
:101EC000DF91CF911F910F910895CF92DF92EF9202
:101ED000FF920F931F93CF93DF93EC016901C80129
:101EE000820F931F8130924008F05CC08E8188235E
:101EF00071F088819981AA81BB81481759076A07C7
:101F00007B0729F48F819885C816D90610F5488378
:101F100059836A837B838B85833039F089E0440F52
:101F2000551F661F771F8A95D1F79A01AB0161E1B2
:101F3000CE010E94080E882319F083E08D8332C001
:101F4000CE010E94400F882369F118861F8281E02C
:101F50008E838F8198858C159D0540F40E94400DDD
:101F60008F819885019698878F83F3CF6701E00E64
:101F7000F11ECE14DF0431F00E94400DF601819372
:101F80006F01F7CF8F819885080F191F18870F836E
:101F90008985882319F00115124048F0CE010E946E
:101FA000780D05C0CE010E94540D80E001C081E093
:101FB000DF91CF911F910F91FF90EF90DF90CF9025
:101FC0000895EF92FF920F931F930115110519F0D9
:101FD0000E94650F01C081E01F910F91FF90EF906B
:101FE0000895EF92FF920F931F93790100E012E0A2
:101FF00020E030E00E94650F1F910F91FF90EF905D
:102000000895CF92DF92EF92FF920F931F93CF9399
:10201000DF931F921F92CDB7DEB78C01862F4983C5
:102020005A830E94390D4981C42E5A81D52E7601DA
:102030008EEFF81AF60181916F010E94390DCE14CE
:10204000DF04C1F78FEF0E94390D8FEF0E94390D29
:102050000E94400DF8018287982F9F71953039F0CA
:1020600081E18583C8010E94540D80E001C081E0B8
:102070000F900F90DF91CF911F910F91FF90EF90F4
:10208000DF90CF9008950F931F93CF93DF93EC01D0
:102090008901411551056105710511F482E132C0D4
:1020A0008B85833039F089E0440F551F661F771FF9
:1020B0008A95D1F79A01AB0168E1CE010E94080E22
:1020C000882311F084E01EC0A8016EEFCE010E94AB
:1020D00001108823C1F068E572E0CE010E94ED0D89
:1020E000811102C085E10EC020E030E0A9016DE061
:1020F000CE010E94080E811104C00E94400D882369
:1021000039F084E18D83CE010E94540D80E004C03B
:10211000CE010E94540D81E0DF91CF911F910F916C
:102120000895E8E2F3E080E5808311820895CF937B
:10213000DF93EC019C012A5F3F4F41E050E060E0FB
:1021400070E08B8D9C8D0E942A1A8823A1F08F89C4
:10215000988DA98DBA8D892B8A2B8B2B59F48E8162
:102160009F81A885B9858F8B988FA98FBA8F8C8115
:1021700080688C8381E0DF91CF910895CF92DF92C8
:10218000EF92FF921F93CF93DF93EC010E94971081
:10219000811102C080E04AC0EB8DFC8DCE80DF80D3
:1021A000E884F98482E0C81AD108E108F1080584BE
:1021B00004C0CC0CDD1CEE1CFF1C0A94D2F78685F3
:1021C0009785A089B189C80ED91EEA1EFB1E14810D
:1021D00081E0C81AD108E108F108112361F0C701B4
:1021E000B601610F711D811D911D0E947918882310
:1021F00089F21150F2CFEB8DFC8D80E092E0A0E0EF
:10220000B0E0058404C0880F991FAA1FBB1F0A9461
:10221000D2F74B895C896D897E89840F951FA61F33
:10222000B71F8B8B9C8BAD8BBE8B81E0DF91CF91E9
:102230001F91FF90EF90DF90CF900895CF93DF93A1
:10224000EC01462F6E857F85888999890E943E180A
:10225000882341F08A8920E2829FC00111248D5C8D
:102260009C4F02C080E090E0DF91CF910895FB0188
:102270009B01255F3F4F40E24193E217F307E1F7EF
:10228000DC0190E027E08D91882319F18E3219F05E
:10229000ECE9F1E008C02A3009F198E02AE0F3CF38
:1022A00031963817D9F034913111FACF2917B0F09F
:1022B0003FED380F3E3590F431E0390FFB01E90F67
:1022C000F11D9FE9980F9A3108F480528083932F73
:1022D000DACF81E0FB019081903209F480E008952B
:1022E0000F931F93CF93DF93FC012581222311F0DD
:1022F00080E042C08B01EC01FB0187898031B1F4A1
:1023000082E08D831F8A188E198E1A8E808D918D92
:10231000A0E0B0E025E0880F991FAA1FBB1F2A95F7
:10232000D1F78B8B9C8BAD8BBE8B15C0803201F7A8
:1023300083E08D83FB01428D538D648D758D4F8BB2
:10234000588F698F7A8F9E012D5E3F4FC8010E9482
:102350002119882369F21C8F0B8F81E08C831E82E8
:102360001F82188619861A861B861C861D861E8665
:102370001F86188A198A1A8ADF91CF911F910F91AF
:1023800008952F923F924F925F926F927F928F9219
:102390009F92AF92BF92CF92DF92EF92FF920F93F4
:1023A0001F93CF93DF93EC015B014A018D81811173
:1023B00003C08FEF9FEFD7C08C8180FFFACF4B888F
:1023C0005C886D887E884A855B856C857D85C401C7
:1023D000A0E0B0E093018201041B150B260B370B24
:1023E000081719072A073B0718F44201841A950AAF
:1023F00024011E0126E0220E311C4114510409F46F
:102400007EC04A855B856C857D856A0181E0D82226
:10241000ED818A019B0189E03695279517950795EF
:102420008A95D1F78B8D9C8DE23061F4FC01828D11
:10243000938DA48DB58DBC01CD01600F711F821FDE
:10244000931F3FC0FC0174807A947022C114D104A0
:10245000C9F4711017C0452B462B472B49F48F89BF
:10246000988DA98DBA8D8E839F83A887B9870AC05E
:102470004E815F816885798591010E949D1888232E
:1024800009F497CFEB8DFC8D8E819F81A885B9854E
:102490000297A109B109058404C0880F991FAA1FDA
:1024A000BB1F0A94D2F74685578560897189840FCE
:1024B000951FA61FB71FBC01CD01670D711D811DA2
:1024C000911D20E032E02C193D093201241535051B
:1024D00008F439012C8126FD04C06114F2E07F0666
:1024E00079F500910A0210910B0220910C023091B3
:1024F0000D02601771078207930719F421C0C40108
:1025000032C0750183019601AB01BC01809131039A
:10251000909132030E94E10F882309F44ACFA60C60
:10252000B71C8A859B85AC85BD85860D971DA11D31
:10253000B11D8A879B87AC87BD87461857085DCF3A
:1025400040E00E943E18882309F433CFF601ED5C89
:10255000FC4FD501CF01860D971DE817F907F9F259
:1025600021912D93FACFDF91CF911F910F91FF9081
:10257000EF90DF90CF90BF90AF909F908F907F9023
:102580006F905F904F903F902F900895FF920F9320
:102590001F93CF93DF931F92CDB7DEB7FC01258148
:1025A000223018F480E090E033C08C01FC014285B9
:1025B00053856485758585E076956795579547952C
:1025C0008A95D1F7F42FFF70FF2E41E050E0BE0155
:1025D0006F5F7F4FC8010E94C111019719F4898173
:1025E00090E002C08FEF9FEF0196E1F2F801828543
:1025F0009385A485B5854F96A11DB11D82879387CC
:10260000A487B587F0E2FF9EC00111248D5C9C4F2A
:102610000F90DF91CF911F910F91FF9008958F92AE
:102620009F92AF92BF92CF92DF92EF92FF920F9361
:102630001F93CF93DF93EC018D81811102C080E065
:1026400077C00B891C892D893E8904171507260739
:102650003707A8F36A017B01823029F4CA86DB863A
:10266000EC86FD860DC0C114D104E104F10451F4DF
:102670001E821F82188619861A861B861C861D8656
:1026800081E056C08A849B84AC84BD84EB8DFC8D34
:10269000258530E0275F3F4FB501A4014150510926
:1026A00061097109022E04C0769567955795479583
:1026B0000A94D2F7D701C6010197A109B10904C054
:1026C000B695A795979587952A95D2F7841795077C
:1026D000A607B70720F089288A288B2849F44F8954
:1026E000588D698D7A8D4E835F836887798704C0A2
:1026F000841B950BA60BB70B4C015D018E010A5F85
:102700001F4F81149104A104B10409F4A7CF4E8195
:102710005F816885798598018B8D9C8D0E949D18BD
:1027200091E0891A9108A108B1088111EACF87CFF9
:10273000DF91CF911F910F91FF90EF90DF90CF909D
:10274000BF90AF909F908F9008950F931F93CF935A
:10275000DF93EC018D818823C9F18C8187FF30C024
:1027600061E0CE010E941E118C01892B79F18D81CF
:10277000823048F48B899C89AD89BE89F801848FA9
:10278000958FA68FB78F8F89988DA98DBA8DF801F7
:10279000938F828FB58BA48BE0912A03F0912B034A
:1027A000309759F0B8016A5E7F4FC8014896199575
:1027B000F801808D918D938B828B8C818F778C83A8
:1027C000DF91CF911F910F910C94031880E0DF915E
:1027D000CF911F910F910895CF93DF93EC010E9449
:1027E000A513882311F01D8281E0DF91CF91089518
:1027F0004F925F926F927F928F929F92AF92BF9211
:10280000EF92FF920F931F93CF93DF9300D01F920D
:10281000CDB7DEB7FC0185818130E9F4848181FF89
:102820001AC083899489A589B68984179507A60754
:10283000B70788F0892B8A2B8B2B09F479C04A01C2
:102840005B017F014284538464847584CF010E94BC
:102850000F13811102C080E06CC0F701838D948D4D
:1028600081149104A104B10471F44789508D618DE4
:10287000728D0E943F1B882371F3F701178A108E17
:10288000118E128E3AC0F70146815781608571859D
:102890009E012F5F3F4F0E949D188823E1F24981DE
:1028A0005A816B817C81F701838D948DFC0127898E
:1028B000203129F008EF1FEF2FEF3FE004C008EFB1
:1028C0001FEF20E030E04017510762077307A8F4BC
:1028D0000E943F1B882309F4BECFF7014681578130
:1028E000608571850FEF1FEF2FEF3FE0838D948D93
:1028F0000E948A19882309F4AECFF701838A948A4B
:10290000A58AB68A848180688483C7010E94A51342
:10291000882309F4A0CFB501A401481459046A041E
:102920007B0410F4B301A201C7010E940F1301C080
:1029300081E00F900F900F900F90DF91CF911F913A
:102940000F91FF90EF90BF90AF909F908F907F90EE
:102950006F905F904F9008951F93CF93DF93EC019A
:1029600080E2689FF00111249F012D5C3C4FD9014A
:102970001B969C91917129F0842F827411F080E054
:102980005BC0142F6A8B80910A0290910B02A09178
:102990000C02B0910D028E879F87A88BB98BED5CDE
:1029A000FC4F4489558960E070E0BA0155274427FF
:1029B0004F8B588F698F7A8F828D938DA0E0B0E016
:1029C000482B592B6A2B7B2B4F8B588F698F7A8F13
:1029D000D9011B968C91887151F4848D958DA68DAB
:1029E000B78D8B8B9C8BAD8BBE8B81E00DC0803106
:1029F00031F69E012D5E3F4F8B8D9C8D0E942119DB
:102A0000882309F4BCCF84E08D83812F8F708C8361
:102A10001E821F82188619861A861B861C861D86B2
:102A200016FF09C040E050E0BA01CE01DF91CF911E
:102A30001F910C94F81381E0DF91CF911F910895BD
:102A4000CF92DF92EF92FF920F931F93CF93DF937A
:102A5000CDB7DEB72C970FB6F894DEBF0FBECDBF53
:102A6000FC0135813111C2C0D22E8B017C01BE0127
:102A70006F5F7F4FCA010E943711882309F4B6C0E7
:102A8000F801838D948DF701948F838FF80116825E
:102A9000178210861186128613861486158630E0FA
:102AA000F80182859385A485B58543895489658914
:102AB000768984179507A607B70708F041C025E077
:102AC000B695A795979587952A95D1F7F82FFF701A
:102AD000CF2EC8013C870E94C6123C85009709F49E
:102AE00085C0FC012081222309F484C0253E99F091
:102AF0004BE050E0BC01CE0101963C870E94161FBE
:102B00003C85892B69F68D2D8073803309F46EC066
:102B10004D2D6C2D67C031116BC0F701C28A4091F9
:102B20000A0250910B0260910C0270910D024687CF
:102B30005787608B718BFC01808131E08111B0CFB0
:102B40008D2D8271823109F051C0332341F061E053
:102B5000C7010E941E118C01892B79F447C0F8012E
:102B60008581823009F442C0C8010E94BE108823CA
:102B7000E9F1F701128A03E313E080E2F801119210
:102B80008A95E9F78BE0FE013196D80101900D920C
:102B90008A95E1F7E0912A03F0912B03309739F001
:102BA000B801625F7F4FC8014096199509C081E264
:102BB00098E2F801918B808B80E098E09787868778
:102BC000F80180899189938B828B918F808F868584
:102BD0009785978B868B0E940318882339F04D2D9B
:102BE000F7016289C7010E94AC1409C080E007C0E8
:102BF00031E056CF332309F490CF31E0A1CF2C96AA
:102C00000FB6F894DEBF0FBECDBFDF91CF911F91FD
:102C10000F91FF90EF90DF90CF900895CF93DF93C7
:102C2000EC0140E050E0BA010E94F813882371F0F3
:102C300061E0CE010E941E11009741F025EEFC01DB
:102C400020831D82DF91CF910C94031880E0DF91E7
:102C5000CF910895CF93DF93CDB7DEB76D970FB6C1
:102C6000F894DEBF0FBECDBFAB011C821B8224E3F4
:102C700032E03A8329831E8222E0BC01CE01019614
:102C80000E942015882321F0CE0101960E940E1685
:102C90006D960FB6F894DEBF0FBECDBFDF91CF911A
:102CA00008952F923F924F925F926F927F928F92F0
:102CB0009F92AF92BF92CF92DF92EF92FF920F93CB
:102CC0001F93CF93DF9300D01F92CDB7DEB78C0157
:102CD0006B013A01DC0115968C9115978130C9F48E
:102CE00014968C9181FF15C082FF1DC0F8014389A5
:102CF00054896589768982859385A485B5858417ED
:102D00009507A607B70779F0C8010E940F13811134
:102D10000AC081E090E0D80113969C938E9312979D
:102D200080E090E048C1430184C0D8015B968D915A
:102D30009C915C97FC0154802FEF250D1A012B010B
:102D400039E056944794379427943A95D1F7522E08
:102D500052207A01F1E0FF22552009F476C080E08C
:102D600092E08E199F0954018815990508F45C01B9
:102D7000D8015B962D913C915C9716968D919D9113
:102D80000D90BC91A02D0297A109B109F90105840C
:102D900004C0880F991FAA1FBB1F0A94D2F746854B
:102DA000578560897189840F951FA61FB71F9C01E5
:102DB000AD01250D311D411D511D19012A01A1141F
:102DC00032E0B30609F088C080910A0290910B02AC
:102DD000A0910C02B0910D0282159305A405B505D2
:102DE00059F48FEF9FEFDC0180930A0290930B025E
:102DF000A0930C02B0930D029601B201A101809143
:102E00003103909132030E944310882309F481CF4B
:102E10009EEFD91A8A189B08F80182859385A485AC
:102E2000B5858A0D9B1DA11DB11D82879387A4873F
:102E3000B587D8011A964D915D916D917C911D9742
:102E40008114910409F071CF87C0E114F10409F0F5
:102E500086CF16964D915D916D917C911997411594
:102E600051056105710559F457968D919D910D900D
:102E7000BC91A02D0097A105B10541F521C09E018F
:102E80002F5F3F4F0E949D18882309F44ACF898104
:102E90009A81AB81BC81F801238D348DF90127899A
:102EA000203129F048EF5FEF6FEF7FE004C048EF7B
:102EB0005FEF60E070E084179507A607B70730F072
:102EC000C8010E94971081114ACF23CFF801868351
:102ED0009783A087B18743CFE114F10429F5D80186
:102EE0001A964D915D916D917C911D9753968D91A0
:102EF0009D910D90BC91A02D481759076A077B073B
:102F000098F00E940318882309F403CF20920A0244
:102F100030920B0240920C0250920D0280913003CD
:102F200081608093300308C041E0C201B1010E947A
:102F30003E18882309F4EDCED601F701ED5CFC4F75
:102F4000CF018A0D9B1DE817F90719F02D912193E8
:102F5000FACFCA0CDB1C5ECF5396CD90DD90ED907E
:102F6000FC90569714968C91C416D506E606F70683
:102F700040F4F801438B548B658B768B8068848397
:102F80000DC020912A0330912B03232B39F06114BB
:102F9000710421F08068D80114968C93F801848123
:102FA00083FD02C0C30107C0C8010E94A513882386
:102FB00009F4AFCEF7CF0F900F900F900F90DF91E5
:102FC000CF911F910F91FF90EF90DF90CF90BF9026
:102FD000AF909F908F907F906F905F904F903F90B9
:102FE0002F900895CF93DF931F92CDB7DEB76983FB
:102FF00041E050E0BE016F5F7F4F0E9451160F907D
:10300000DF91CF910895809130038823A9F14091F9
:103010000A0250910B0260910C0270910D0223E3A1
:1030200033E080913103909132030E94431081116B
:1030300002C080E0089540912C0350912D036091CF
:103040002E0370912F03411551056105710591F013
:1030500023E333E080913103909132030E944310C7
:10306000882339F310922C0310922D0310922E0313
:1030700010922F031092300381E00895CF92DF92D7
:10308000EF92FF92CF936B017C01C42F80910A02D3
:1030900090910B02A0910C02B0910D028C159D0530
:1030A000AE05BF05D1F00E940318811102C080E077
:1030B0001AC023E333E0B701A60180913103909158
:1030C00032030E94F10F882391F3C0920A02D0923A
:1030D0000B02E0920C02F0920D0280913003C82B9B
:1030E000C093300381E0CF91FF90EF90DF90CF90BD
:1030F0000895CF92DF92EF92FF926B017C010E94C4
:1031000003188823A9F0E3E3F3E0119285E0E333A9
:10311000F807D9F7C0920A02D0920B02E0920C0293
:10312000F0920D028091300381608093300381E042
:10313000FF90EF90DF90CF9008958F929F92AF9283
:10314000BF92CF92DF92EF92FF920F931F93CF9394
:10315000DF93FC0181859285A385B4850196A11D2D
:10316000B11D84179507A607B70710F480E05CC06F
:1031700083899489A589B689C789C03129F4852EA8
:10318000962EA72EBB2409C04A015B01C7E0B69466
:10319000A79497948794CA95D1F7E9016A017B01B6
:1031A0008F01BC01CD01680D791D8A1D9B1D80908A
:1031B0000A0290900B02A0900C02B0900D026815CC
:1031C00079058A059B0599F4F80187898031A9F46E
:1031D000B701A601552766277727440F551FFA0127
:1031E000ED5CFC4F80819181A0E0B0E018C040E030
:1031F0000E943E188111E8CFB9CFB701A6014F77E1
:10320000552766277727440F551F440F551FFA018E
:10321000ED5CFC4F80819181A281B381BF70888376
:103220009983AA83BB8381E0DF91CF911F910F9196
:10323000FF90EF90DF90CF90BF90AF909F908F90D6
:1032400008954F925F926F927F92AF92BF92CF920A
:10325000DF92EF92FF920F931F93CF93DF9300D0F3
:103260001F92CDB7DEB78C0149835A836B837C8371
:103270005901C12CD12C7601412C82E0582E612CB1
:10328000712C49815A816B817C819E012F5F3F4F58
:10329000C8010E949D18882351F1D301C201F80191
:1032A000058404C0880F991FAA1FBB1F0A94D2F778
:1032B000C80ED91EEA1EFB1E49815A816B817C8192
:1032C0008789803129F088EF9FEFAFEFBFE004C01E
:1032D00088EF9FEFA0E0B0E0481759076A077B0727
:1032E00080F2F501C082D182E282F38281E00F9008
:1032F0000F900F900F90DF91CF911F910F91FF9042
:10330000EF90DF90CF90BF90AF907F906F905F90E5
:103310004F9008954F925F926F927F928F929F92FB
:10332000AF92BF92CF92DF92EF92FF920F931F93D3
:10333000CF93DF93EC016A017B0128013901423010
:1033400051056105710510F480E073C089859A8587
:10335000AB85BC850196A11DB11D84179507A607F5
:10336000B70790F38B889C88AD88BE888F898031A1
:1033700029F4BB27AF2D9E2D8D2D09C0DB01CA017D
:1033800047E0B695A795979587954A95D1F7880E0A
:10339000991EAA1EBB1E80910A0290910B02A09159
:1033A0000C02B0910D0288169906AA06BB0679F4A4
:1033B0008F898031A1F4DD24EE24FF24C601880F1B
:1033C000991FFC01ED5CFC4F5182408219C040E026
:1033D000C501B4010E943E188111EACFB5CFE8942F
:1033E000C7F8DD24EE24FF24C601880F991F880F3B
:1033F000991FFC01ED5CFC4F408251826282738216
:10340000809130038160809330038A89823080F01C
:103410008D819E81AF81B885880E991EAA1EBB1E24
:1034200080922C0390922D03A0922E03B0922F0332
:1034300081E0DF91CF911F910F91FF90EF90DF908E
:10344000CF90BF90AF909F908F907F906F905F9044
:103450004F9008952F923F924F925F926F927F927A
:103460009F92AF92BF92CF92DF92EF92FF920F9313
:103470001F93CF93DF93CDB7DEB760970FB6F89465
:10348000DEBF0FBECDBF5C0149875A876B877C8743
:103490001901D901CD90DD90ED90FC90C114D104BB
:1034A000E104F10431F0BFEFCB1ADB0AEB0AFB0AAF
:1034B00010C0FC01C080D180E280F38099249394F5
:1034C00009851A852B853C850130110521053105BB
:1034D00009F0912CF50181859285A385B4858C0135
:1034E0009D010F5F1F4F2F4F3F4F0D871E872F8767
:1034F000388B260137011D821E821F821886F50136
:1035000081859285A385B4850D811E812F813885A3
:10351000081719072A073B0708F056C02D853E8576
:103520004F855889241535054605570550F482E026
:10353000482E512C612C712C92E0C92ED12CE12CFB
:10354000F12C9E012F5F3F4FB301A201C5010E94E4
:103550009D188823C9F149815A816B817C81D301EF
:10356000C2010196A11DB11D452B462B472B19F019
:103570006C017D010FC0AC01BD014C195D096E09E4
:103580007F0909851A852B853C85401751076207FD
:10359000730779F02D813E814F8158852F5F3F4F12
:1035A0004F4F5F4F2D833E834F8358872C013D0142
:1035B000A6CF0FEF1FEF2FEF3FE0B301A201C50130
:1035C0000E948A19811118C080E041C0D301C20154
:1035D0000197A109B1098D839E83AF83B8879301B9
:1035E0008201AC01BD01C5010E948A19882361F3E3
:1035F0004D805E806F807884C414D504E604F7049F
:1036000028F3D1014D915D916D917C91411551054A
:103610006105710599F4F101C082D182E282F382E1
:103620009920A1F0FFEFCF1ADF0AEF0AFF0AD501B8
:10363000CD92DD92ED92FC92139708C0970186011E
:10364000C5010E948A198111E6CFBECF81E0609644
:103650000FB6F894DEBF0FBECDBFDF91CF911F91A3
:103660000F91FF90EF90DF90CF90BF90AF909F9021
:103670007F906F905F904F903F902F900895AF9202
:10368000BF92CF92DF92EF92FF920F931F93CF934F
:10369000DF9300D01F92CDB7DEB75C016A017B01DA
:1036A00082E090E0A0E0B0E0F50180839183A28306
:1036B000B3839E012F5F3F4FB701A601C5010E9452
:1036C0009D18882311F100E010E09801B701A601D0
:1036D000C5010E948A198823C1F0C980DA80EB8075
:1036E000FC80F5018789803129F088EF9FEFAFEFEB
:1036F000BFE004C088EF9FEFA0E0B0E0C816D90695
:10370000EA06FB06B0F281E001C080E00F900F9066
:103710000F900F90DF91CF911F910F91FF90EF903D
:10372000DF90CF90BF90AF9008958F929F92AF920D
:10373000BF92CF92DF92EF92FF920F931F93CF939E
:10374000DF93EC01142F7093320360933103442311
:1037500069F1453010F080E0F2C040E060E070E0D8
:10376000CB010E943E188823B1F320E1129FA001F3
:1037700011244D5D5C4FFA01E254FE4F80818F773A
:1037800051F73C9680819181A281B3818436910565
:10379000A105B10500F33497C080D180E280F380A9
:1037A000C114D104E104F10421F4D5CFC12CD12CF2
:1037B000760140E0C701B6010E943E18882359F205
:1037C00080913E0390913F038115924021F69091A4
:1037D0004303992309F4BFCF209141033091420361
:1037E000232B09F4B8CF80914003882309F4B3CF89
:1037F0009A8B8C831D8690E061E070E02D85E22F2E
:10380000AB01022E02C0440F551F0A94E2F7841741
:10381000950731F031E0320F3D87283078F39BCFA8
:103820002091490330914A032115310519F040E0F8
:1038300050E008C02091570330915803409159033C
:1038400050915A032D833E834F83588780914103C3
:103850009091420346015701880E991EA11CB11C8C
:103860008B8A9C8AAD8ABE8A0091440310914503DD
:10387000198F088FA0914303B0E00E94CF1D860EE0
:10388000971EA81EB91E8A8E9B8EAC8EBD8E85E0BB
:10389000000F111F8A95E1F701501E4F012F1127CC
:1038A0000695800E911EA11CB11C8E869F86A88A4B
:1038B000B98A20914603309147032115310521F043
:1038C000A90160E070E008C0409153035091540397
:1038D0006091550370915603D701C6018819990963
:1038E000AA09BB09840F951FA61FB71F04C0B69570
:1038F000A79597958795EA95D2F789879A87AB8799
:10390000BC87853F2FE09207A105B10510F48CE03C
:1039100014C0853F9F4FA105B10510F480E10DC093
:1039200080915F0390916003A0916103B091620365
:103930008A8F9B8FAC8FBD8F80E28F8B81E0DF9170
:10394000CF911F910F91FF90EF90DF90CF90BF909C
:10395000AF909F908F900895089590E0FC0131976B
:10396000E231F10508F04EC08827EE58FF4F8F4F27
:103970000C94C71D809180008F7703C080918000D8
:103980008F7D80938000089580918000877FF9CF9C
:1039900084B58F7702C084B58F7D84BD08958091F2
:1039A000B0008F7703C08091B0008F7D8093B0000E
:1039B0000895809190008F7707C0809190008F7D4F
:1039C00003C080919000877F80939000089580913C
:1039D000A0008F7707C08091A0008F7D03C08091E9
:1039E000A000877F8093A0000895809120018F77A9
:1039F00007C0809120018F7D03C080912001877FC7
:103A0000809320010895CF93DF9390E0FC01EE5066
:103A1000FE4F2491FC01E85CFD4F8491882361F105
:103A200090E0880F991FFC01E856FD4FC591D49195
:103A3000FC01E258FD4FA591B491611109C09FB7F7
:103A4000F8948881209582238883EC912E230BC0E3
:103A5000623061F49FB7F8943881822F8095832378
:103A60008883EC912E2B2C939FBF06C08FB7F894C0
:103A7000E8812E2B28838FBFDF91CF9108951F936C
:103A8000CF93DF93282F30E0F901E455FE4F849166
:103A9000F901EE50FE4FD491F901E85CFD4FC4915D
:103AA000CC23C9F0162F81110E94AD1CEC2FF0E041
:103AB000EE0FFF1FE258FD4FA591B4918FB7F89418
:103AC000111105C09C91ED2FE095E92302C0EC9106
:103AD000ED2BEC938FBFDF91CF911F910895CF9382
:103AE000CFB7F89480913605811127C0EDE6F2E05A
:103AF0008491E7E2F2E09491E82FF0E0EE0FFF1FEF
:103B0000E856FD4FA591B491EC91E92321F461E0D1
:103B100085E30E943F1D61E085E30E94031D8CB593
:103B200080618CBD8CB580648CBD61E084E30E94B3
:103B3000031D61E083E30E94031D809136058F5FC2
:103B400080933605CFBFCF910895A1E21A2EAA1B0C
:103B5000BB1BFD010DC0AA1FBB1FEE1FFF1FA2173D
:103B6000B307E407F50720F0A21BB30BE40BF50B3A
:103B7000661F771F881F991F1A9469F760957095C3
:103B8000809590959B01AC01BD01CF010895EE0F8A
:103B9000FF1F881F8BBF0790F691E02D19940E949C
:103BA000DA1DA59F900DB49F900DA49F800D911DCF
:103BB00011240895A29FB001B39FC001A39F700D6F
:103BC000811D1124911DB29F700D811D1124911D25
:103BD0000895CF93DF938230910510F482E090E056
:103BE000E0913905F0913A0520E030E0C0E0D0E006
:103BF000309711F14081518148175907C0F048179B
:103C0000590761F482819381209719F09B838A83FD
:103C10002BC090933A058093390526C021153105B4
:103C200019F04217530718F49A01BE01DF01EF01A2
:103C30000280F381E02DDCCF2115310509F1281B2D
:103C4000390B2430310590F412968D919C91139785
:103C50006115710521F0FB019383828304C0909369
:103C60003A0580933905FD01329644C0FD01E20F0B
:103C7000F31F81939193225031092D933C933AC0C5
:103C80002091370530913805232B41F42091020211
:103C900030910302309338052093370520910002BC
:103CA000309101022115310541F42DB73EB7409105
:103CB000040250910502241B350BE0913705F09169
:103CC0003805E217F307A0F42E1B3F0B281739071E
:103CD00078F0AC014E5F5F4F2417350748F04E0F68
:103CE0005F1F50933805409337058193919302C02D
:103CF000E0E0F0E0CF01DF91CF9108950F931F93A3
:103D0000CF93DF93009709F48CC0FC0132971382A4
:103D100012820091390510913A050115110581F4BF
:103D200020813181820F931F209137053091380512
:103D30002817390779F5F0933805E093370571C0F6
:103D4000D80140E050E0AE17BF0750F412962D9115
:103D50003C911397AD012115310509F1D901F3CF3C
:103D60009D01DA013383228360817181860F971F61
:103D70008217930769F4EC0128813981260F371FD8
:103D80002E5F3F4F318320838A819B81938382837F
:103D9000452B29F4F0933A05E093390542C0139678
:103DA000FC93EE931297ED01499159919E01240FD6
:103DB000351FE217F30771F480819181840F951FFD
:103DC000029611969C938E938281938113969C9375
:103DD0008E931297E0E0F0E0D80112968D919C91BD
:103DE0001397009719F0F8018C01F6CF8D919C91F3
:103DF00098012E5F3F4F820F931F2091370530911E
:103E000038052817390769F4309729F410923A05D4
:103E10001092390502C01382128210933805009364
:103E20003705DF91CF911F910F910895FB01DC01C0
:103E300004C08D910190801921F441505040C8F781
:103E4000881B990B0895FC018191861721F0882326
:103E5000D9F7992708953197CF010895FB01DC0127
:103E60004150504048F001900D920020C9F701C028
:0E3E70001D9241505040E0F70895F894FFCFA6
:103E7E0000003B05800000082148FFFFFFFF2F00D8
:103E8E00000000005106C607A305BD05AF052F06AD
:103E9E00000000000A092009010A5B0965093C09B6
:083EAE0000000000F217C60736
:00000001FF
