:020000040000FA
:08000000803102288731F22F44
:1002D40042011E0C0139080071084101C800700870
:1002E400C700080071084101CC007008CB00080069
:1002F40071084101CA007008C9000800F1007108C2
:1003040081319D2181310800640080010131890B14
:10031400872900344F0196019701980199019A01A8
:100324009B010800603051018D008F01910106305E
:10033400930092010800F0004E010F1EA229A32988
:100344009E29700842019A00080081318C21813174
:100354008231AA2281318131942181318131F92183
:100364008131080068304001EA006A08ED0067083E
:10037400DF006608DE006D30EA006A08E000003045
:100384008231432281310800F4007408F2007208BB
:10039400F300D0290130F2007208F40774088600D3
:1003A40087010108031DD729D829CC2973087402B1
:1003B400F000F101F01BF10308007408803AF50025
:1003C40080307502031DE829013073020318EB29FC
:1003D400EC29F8297309F5007409F600F50A0319E4
:1003E400F60A7508F3007608F400F82908000830C6
:1003F40042019F0090309D0024309E008A309B0073
:100404009C010030F0000030F10081317421813111
:100414000030F0000030F10081317A218131003068
:10042400F0000030F10081316E2181314101A601DB
:1004340008004001A300A101A201332A2008FB0007
:10044400FC017B08F2007C08F3007A08FD007D08BB
:10045400F4008231E722823101304001A1070030EB
:10046400A23D21082307FB007B08860087010108C1
:10047400FC007C08A0002008031D412A422A202AEF
:1004840008004001E3005F08E5005E08E400410164
:10049400A001A101612A6430E1006108CE00600876
:1004A400E2006208CF0063088331C0238231400137
:1004B4004E084101A00740014F084101A13D400100
:1004C40064088400650885001200031D6A2A6B2AEB
:1004D4004D2A410121084001DF004101200840016B
:1004E400DE00080081316A218231003A03197B2A37
:1004F4007C2A742A9C2A40011814013042019C0071
:10050400A0309B0009307D01CB007E0199011030A1
:10051400A000A601A92A4001181742019C018A30B3
:100524009B0017307D01CB007E01A7011030A6008F
:10053400A001A92A7108003A0319A12AA92A70085E
:10054400003A03197D2A013A03198D2AA92A0800C1
:1005540040019A019901960197019801073095008D
:10056400FF309100FF309200BE309300FF309400C2
:10057400FF307E01D9003E30CE00FD30C30007308D
:10058400E400FF30B800DA01E501C401B901CF018C
:10059400E601BA01C501D001DB01FF30BB00FF3029
:1005A400C600FF30D100FF30DC000730E700FF3029
:1005B400BC00FF30C700FF30D200FF30DD000F3039
:1005C400E80017307D01CB00080074080319EB2AFA
:1005D400EC2AF12A7408031DF02AF12AF62A72087B
:1005E400813180218231252B7408033E86008701E6
:1005F400160001040319FF2A002B1D2B7408033E67
:1006040086008701403FF500413FF600740A8600EA
:100614008701403FF700413FF8007808803AF9002D
:100624007608803A7902031D192B7508770203189E
:100634001C2B1D2B252B740A860087010130810792
:1006440041310318810A08008131A7218331410116
:10065400D101D2015208F1005108F0008231742214
:10066400833100304001E6008830E7004101520840
:100674004001E900410151084001E8008131B42101
:10068400833101304101D1060030D20651085204B1
:10069400031D4D2B4E2B2C2B0030D0000030CF00EF
:1006A4000330CE00E830CD005F2BFF30CD07FF30A4
:1006B400CE3DFF30CF3DFF30D03D50084F044E04B7
:1006C4004D04031D662B672B572B2C2B80310228DE
:1006D4004001AC006E1C6F2B702B782B2C08A700EC
:1006E4002708FA00240882311B2283314001A61B0B
:1006F4007C2B7D2B822B2608AB002508AA00842B9B
:10070400AA01AB01A801A901982B2030F200003006
:10071400F30040012C08A7002708F4008231E722E7
:10072400833101304001A8070030A93D2908803AEF
:10073400A7002B08803A2702031DA22B2A082802AF
:10074400031CA52BA62B872B40016E18AA2BAB2BC1
:10075400B32B2C08A7002708FA00240882311B2297
:100764008331400124088131C621833140012A08A4
:100774007007A4002B08713DA50008004001DD00AE
:100784004E0886008701403FD000413FD100500809
:100794008400510885001200253A031DD22BD32B67
:1007A400792C4E08860087010130810741310318F6
:1007B400810A4101A201A3014001EE01EF01FF30D2
:1007C4004101A400FF30A50040014E0886008701C6
:1007D400403FD000413FD1005008840051088500BB
:1007E4001200643A0319F72BF82B092C4E088600E3
:1007F4008701403FD000413FD10050088400510898
:1008040085001200693A031D082C092C442C4E085B
:10081400860087010130810741310318810A4F089E
:100824008600870101088400850102308107003FAA
:10083400D000013FD1005008D5005108D600890DE1
:10084400893B8909D700D800D900DA00DB00DC0035
:100854005508B0005608B1005708B2005808B30054
:100864005908B4005A08B5005B08B6005C08B70024
:100874005D0886318826833140013108CF00300875
:10088400CE009C2C4E0886008701403FD000413F9B
:10089400D10050088400510885001200253A031D38
:1008A400542C552C6E2C4E0886008701013081078C
:1008B40041310318810A2530F2000030F3005D084D
:1008C400D0005008F4008231E72283310130400126
:1008D400CE000030CF009C2C4E08860087010130EA
:1008E400810741310318810ACE01CF019C2C4E08A7
:1008F40086008701403FD000413FD100500884006A
:10090400510885000008D200D3015208F2005308B0
:10091400F3005D08D4005408F4008231E7228331E7
:1009240040014E08860087010130810741310318D8
:10093400810A682C0800F201283086000030870004
:10094400473FF000F01FA72CA82CC92C4001A80990
:10095400A909AA09AB09AC09AD09AE09AF09A80AEE
:10096400031DC72CA90A031DC72CAA0A031DC72CE3
:10097400AB0A031DC72CAC0A031DC72CAD0A031D0B
:10098400C72CAE0A031DC72CAF0AF201F20A2030AD
:10099400860000308700473FF000F01FD22CD32C94
:1009A400F22C4001A009A109A209A309A409A509DF
:1009B400A609A709A00A031DF22CA10A031DF22C03
:1009C400A20A031DF22CA30A031DF22CA40A031D80
:1009D400F22CA50A031DF22CA60A031DF22CA70A69
:1009E40040012008210422042304240425042604AD
:1009F40027040319FE2CFF2C522DF101F10A0E2DB0
:100A0400A035A10DA20DA30DA40DA50DA60DA70D36
:100A14000130F0007008F107A71F112D122D022DCF
:100A240027082F02031D302D26082E02031D302D0A
:100A340025082D02031D302D24082C02031D302D02
:100A440023082B02031D302D22082A02031D302DFA
:100A540021082902031D302D20082802031C332DF0
:100A6400342D442D2008A8022108A93B2208AA3BC2
:100A74002308AB3B2408AC3B2508AD3B2608AE3B22
:100A84002708AF3BA736A60CA50CA40CA30CA20CFC
:100A9400A10CA00C0130F102031D512D522D122D79
:100AA40072080319562D572D752DA809A909AA09ED
:100AB400AB09AC09AD09AE09AF09A80A031D752D30
:100AC400A90A031D752DAA0A031D752DAB0A031D62
:100AD400752DAC0A031D752DAD0A031D752DAE0AC7
:100AE400031D752DAF0A40012808A0002908A100A4
:100AF4002A08A2002B08A3002C08A4002D08A50096
:100B04002E08A6002F08A7000800F2012030860056
:100B140000308700473FF000F01F912D922DB32D38
:100B24004001A009A109A209A309A409A509A609CC
:100B3400A709A00A031DB12DA10A031DB12DA20A04
:100B4400031DB12DA30A031DB12DA40A031DB12D4C
:100B5400A50A031DB12DA60A031DB12DA70AF20192
:100B6400F20A2830860000308700473FF000F01F6B
:100B7400BC2DBD2DE02D4001A809A909AA09AB0986
:100B8400AC09AD09AE09AF09A80A031DDC2DA90AF9
:100B9400031DDC2DAA0A031DDC2DAB0A031DDC2D6D
:100BA400AC0A031DDC2DAD0A031DDC2DAE0A031DAA
:100BB400DC2DAF0A0130F0007008F20673308600B5
:100BC400003087000830F00000301E00F00BE72DE5
:100BD40040012008210422042304240425042604BB
:100BE40027040319F62DF72D532EF101F10A062ED1
:100BF400A035A10DA20DA30DA40DA50DA60DA70D45
:100C04000130F0007008F107A71F092E0A2EFA2DF3
:100C1400F335F40DF50DF60DF70DF80DF90DFA0D8C
:100C240027082F02031D302E26082E02031D302E06
:100C340025082D02031D302E24082C02031D302EFE
:100C440023082B02031D302E22082A02031D302EF6
:100C540021082902031D302E20082802031C332EEC
:100C6400342E452E2008A8022108A93B2208AA3BBD
:100C74002308AB3B2408AC3B2508AD3B2608AE3B20
:100C84002708AF3B7314A736A60CA50CA40CA30C21
:100C9400A20CA10CA00C0130F102031D522E532E04
:100CA4000A2E72080319572E582E762EF309F409CA
:100CB400F509F609F709F809F909FA09F30A031D10
:100CC400762EF40A031D762EF50A031D762EF60AF7
:100CD400031D762EF70A031D762EF80A031D762EC1
:100CE400F90A031D762EFA0A73084001A00074085D
:100CF400A1007508A2007608A3007708A40078086C
:100D0400A5007908A6007A08A70008004001BF00E2
:100D14003008C4003108C5003208C6003308C700D3
:100D24003408C8003508C9003608CA003708CB00A3
:100D34004430860000308700473FB800B81BA32E1C
:100D4400A52E0130A62E00304001B900BA013908A1
:100D5400C2003A08C300420843040319B22EB32E5A
:100D6400D12EC409C509C609C709C809C909CA09D0
:100D7400CB09C40A031DD12EC50A031DD12EC60AF0
:100D8400031DD12EC70A031DD12EC80A031DD12E5F
:100D9400C90A031DD12ECA0A031DD12ECB0A410153
:100DA400A51BD52ED62EDB2EFD304001EE05FF30DF
:100DB400EF0541012508803A4001B800803038022F
:100DC400031DE72E0130410124020318EA2EEB2E05
:100DD400F12E01304001BD000030BE00F92E41016A
:100DE40025084001BE00410124084001BD00410125
:100DF40023084001C100410122084001C00042080B
:100E04004304031D062F072F0B2F6E1D0A2F0B2FD4
:100E14000F2FFF30C007FF30C13D1F30CC00003022
:100E2400CD004101C6017E2FFF304001CC07FF30C9
:100E3400CD3D0A30A000A101A201A301A401A50196
:100E4400A601A7014408A8004508A9004608AA006D
:100E54004708AB004808AC004908AD004A08AE009A
:100E64004B08AF0084319D24863140012108F400F1
:100E74002008F3008131DF2186317308303E4001C0
:100E8400B8004C08A73E8600870138088100FF306F
:100E9400BD07FF30BE3DFF30C007FF30C13D0A3003
:100EA400A000A101A201A301A401A501A601A7011B
:100EB4004408A8004508A9004608AA004708AB0052
:100EC4004808AC004908AD004A08AE004B08AF0022
:100ED40085318725863140012008C4002108C500DA
:100EE4002208C6002308C7002408C8002508C90032
:100EF4002608CA002708CB0040014D08803AB800F4
:100F040080303802031D882F01304C02031C8B2FC4
:100F14008C2FB92F40014408450446044704480473
:100F240049044A044B04031D982F992F162F3E0899
:100F3400803AB80080303802031DA22F01303D02F0
:100F44000318A52FA62F162F40014108803AB80098
:100F540080303802031DB02F01304002031CB32F30
:100F6400B42FB92F4001EE18B82FB92F162F400116
:100F740042084304031DBF2FC02FC42F6E1DC32F6F
:100F8400C42FDF2FFF30CC07FF30CD3D4208430490
:100F9400031DCD2FCE2FD32F2B30BB000030BC0030
:100FA400D72F2D30BB000030BC003B08B8004C08E4
:100FB400A73E86008701380881004C08A73EB80088
:100FC4003808A4004108A6004008A5003F08833162
:100FD4006A23863140012508B1002408B0000800C6
:100FE4004001EE01EF01A03084000030850027307D
:100FF40081318621873140018331262B5434653475
:1010040072346D3469346E3461346C342034253474
:0810140064340D340A34003489
:020000040001F9
:0A000E00EC3FFF3F9F3FFF3FFF3F25
:00000001FF
