:100000009EC067C5F5C465C564C563C562C561C5E5
:1000100060C55FC55EC55DC55CC55BC55AC559C5D4
:1000200058C557C556C555C554C553C552C551C504
:1000300050C54FC54EC54DC54CC54BC54AC53E0004
:100040003E03800000407A10F35A00A0724E180957
:100050000010A5D4E80000E87648170000E40B542F
:10006000020000CA9A3B000000E1F50500008096FE
:100070009800000040420F000000A0860100000030
:10008000102700000000E8030000000064000000EA
:1000900000000A00000000000100000000002C76B3
:1000A000D888DC674F0823DFC1DFAE59E1B1B796CE
:1000B000E5E3E453C63AE651997696E8E6C284262B
:1000C000EB898C9B62ED407C6FFCEFBC9C9F40F207
:1000D000BAA56FA5F490055A2AF75C936B6CF96783
:1000E0006DC11BFCE0E40D47FEF520E6B500D0ED48
:1000F000902E0300943577050080841E08000020B0
:100100004E0A000000C80C333333330F986E12834D
:100110001141EF8D2114893BE65516CFFEE6DB1821
:10012000D1844B381BF77C1D901DA4BBE4242032E6
:1001300084725E228100C9F124ECA1E53D271124DF
:100140001FBECFEFCDBFDFE3DEBFEEE3F0E040E068
:1001500017C0B591A59135912591059107FD0CC06A
:1001600095918591EF01F92FE82F05900D92A21737
:10017000B307D9F7FE0104C01D92A217B307E1F738
:0E018000E334F40731F710D300C0F894FFCF3A
:0D018E0056617667203D200020560D0A00C6
:10019C00A9E0B0E0E3EDF0E0D7C36A01122FB02E76
:1001AC002BE3201720F0FF24F394F00E02C02CE375
:1001BC00F22E0F2D27E0AE014F5F5F4F40D1BC01F7
:1001CC004981842F8970813031F0E1FC06C0E0FE5A
:1001DC0006C090E205C09DE203C09BE201C090E026
:1001EC005E2D507143FF3CC0911102C083E001C0F1
:1001FC0084E0811718F4212F281B01C020E0511135
:10020C000BC0F601822F30E2882319F03193815014
:10021C00FBCFC20ED11C20E0992329F0D6019C9370
:10022C00F60131966F01C6010396E2FE0AC03EE468
:10023C00D6013C9341E411964C93119712963C9342
:10024C0006C03EE6F601308341E641833283FC0171
:10025C00322F40E2332309F442C041933150FACF9C
:10026C0042FF44C0911102C083E001C084E08117B9
:10027C0018F4212F281B01C020E051110BC0F601EE
:10028C00822F30E2882319F031938150FBCFC20EBC
:10029C00D11C20E0992329F0D6019C93F6013196CC
:1002AC006F01C6010396E2FE0BC039E4D6013C9304
:1002BC003EE411963C93119736E412963C9307C09A
:1002CC0039E6F60130833EE6318336E63283FC01B3
:1002DC00322F40E2332319F041933150FBCFFC0114
:1002EC00E20FF11D10828EEF9FEFA6C021E030E0EF
:1002FC00911102C020E030E0161617061CF4FB0129
:10030C00319602C0E1E0F0E02E0F3F1FBB2021F040
:10031C00EB2DF0E0319602C0E0E0F0E02E0F3F1F35
:10032C00E12FF0E02E173F071CF4121B212F01C008
:10033C0020E08E2D887159F4F601822F30E288234B
:10034C0019F031938150FBCFC20ED11C20E09923C0
:10035C0029F0D6019C93F60131966F0151110BC017
:10036C00F601822F90E3882319F091938150FBCFF3
:10037C00C20ED11C20E00F2D060F9A81342F307144
:10038C0044FF03C0913309F40150101624F40930D2
:10039C0018F008E001C001E0AB0177FF02C040E0BB
:1003AC0050E0FB01E41BF50BA1E0B0E0AC0FBD1F6E
:1003BC00EA0FFB1F8EE2A82E4B01801A91080B2D21
:1003CC0010E01195019511094F3FBFEF5B0721F428
:1003DC00D601AC9211966D01641775072CF084163A
:1003EC00950614F4818101C080E341505109319686
:1003FC00D60111967D014017510724F0D6018C933C
:10040C006701E2CF6417750739F4963320F49533FE
:10041C0019F4311101C081E3F6018083F701822FB9
:10042C0090E2882319F091938150FBCFF701E20FF2
:0E043C00F11D108280E090E02996ECE09EC257
:10044A00283008F027E03327DA01990F311D87FD9C
:10045A00916000966105710539F432602E5F3D9313
:10046A0030E32A95E1F708959F3F30F0803871050F
:10047A00610509F03C5F3C5F3D93913008F080686C
:10048A00911DDF93CF931F930F93FF92EF92192F32
:10049A00987F9695E92F96959695E90FFF27E2564C
:1004AA00FF4F99273327EE24FF24A701E701059080
:1004BA000894079428F4360FE71EF81E491F511DA9
:1004CA00660F771F881F991F0694A1F70590079456
:1004DA0028F4E70EF81E491F561FC11D770F881F03
:1004EA00991F661F0694A1F70590079428F4F80E41
:1004FA00491F561FC71FD11D880F991F661F771FD7
:10050A000694A1F70590079420F4490F561FC71FB8
:10051A00D81F990F661F771F881F0694A9F7849121
:10052A001095177041F0D695C79557954795F7944A
:10053A00E7941A95C1F7E4E4F0E0689415901591F0
:10054A0035916591959105907FE27395E118F10ACD
:10055A00430B560BC90BD009C0F7E10CF11E431F20
:10056A00561FC91FD01D7EF4703311F48A95E6CF49
:10057A00E894015030F0080F0AF40027021708F433
:10058A00202F2395022F7A3328F079E37D932A9539
:10059A00E9F710C07D932A9589F606949795679591
:1005AA00379517951794E118F10A430B560BC90BA7
:1005BA00D00998F023957E9173957A3308F070E309
:1005CA007C932013B8F77E9170617D9330F0839508
:1005DA0071E37D9370E32A95E1F71124EF90FF9080
:1005EA000F911F91CF91DF91992787FD90950895DB
:1005FA000E94400558F00E94390540F029F45F3FF7
:10060A0029F00C944E0551110C9448050C9466057A
:10061A000E94630468F39923B1F3552391F3951B60
:10062A00550BBB27AA2762177307840738F09F5F09
:10063A005F4F220F331F441FAA1FA9F335D00E2E76
:10064A003AF0E0E832D091505040E695001CCAF7E3
:10065A002BD0FE2F29D0660F771F881FBB1F2617A6
:10066A0037074807AB07B0E809F0BB0B802DBF017D
:10067A00FF2793585F4F3AF09E3F510578F00C944C
:10068A004E050C9448055F3FE4F3983ED4F38695F3
:10069A0077956795B795F7959F5FC9F7880F911D6D
:1006AA009695879597F90895E1E0660F771F881F59
:1006BA00BB1F621773078407BA0720F0621B730B0C
:0C06CA00840BBA0BEE1F88F7E095089532
:1006D6000E94390538F00E94400520F0952311F05C
:1006E6000C944E050C94660511240C9448050E9442
:1006F600630470F3959FC1F3950F50E0551F629FF9
:10070600F001729FBB27F00DB11D639FAA27F00D64
:10071600B11DAA1F649F6627B00DA11D661F829F8B
:100726002227B00DA11D621F739FB00DA11D621F70
:10073600839FA00D611D221F749F3327A00D611D8D
:10074600231F849F600D211D822F762F6A2F11246F
:100756009F5750409AF0F1F088234AF0EE0FFF1FA2
:10076600BB1F661F771F881F91505040A9F79E3FF9
:10077600510580F00C944E050C9448055F3FE4F358
:10078600983ED4F3869577956795B795F795E7954F
:100796009F5FC1F7FE2B880F911D9695879597F958
:0207A6000895B4
:1007A800CF93DF93CDB7DEB7E297CDBFDEBF109210
:1007B8000004E0E2F4E08FEF848385E0808338D1A1
:1007C8002ED13ED144D181E491E06FD180EA90E00E
:1007D80067D1E0E0F6E0838183838381806183834E
:1007E80086E081838093003E85E090E0DAD0009037
:1007F800003E02C0969587950A94E2F78093013EE1
:100808009093023E8EE891E8FED06091013E70918F
:10081800023E80E090E016D020E030E040E250E474
:100828004DD120E030EC4FE754E444D18E010F5F06
:100838001F4F24E041E065D0C801E5D086E991E882
:04084800E2D0D2CF59
:10084C00E89409C097FB3EF490958095709561955E
:10085C007F4F8F4F9F4F9923A9F0F92F96E9BB2714
:10086C009395F695879577956795B795F111F8CF90
:10087C00FAF4BB0F11F460FF1BC06F5F7F4F8F4FFB
:10088C009F4F16C0882311F096E911C0772321F0F1
:10089C009EE8872F762F05C0662371F096E8862F89
:1008AC0070E060E02AF09A95660F771F881FDAF7E0
:0A08BC00880F9695879597F9089527
:1008C60057FD9058440F551F59F05F3F71F04795FB
:1008D600880F97FB991F61F09F3F79F087950895E0
:1008E600121613061406551FF2CF4695F1DF08C0FF
:1008F600161617061806991FF1CF8695710561051C
:0409060008940895B4
:10090A00EF920F931F93CF93DF93E80147FD02C045
:10091A0034E001C034E1042E000C550B57FF03C02C
:10092A00519541955109E32E022F242FAE0131DC56
:0E093A00CE01DF91CF911F910F91EF900895A4
:100948002F923F924F925F926F927F928F929F92D7
:10095800AF92BF92CF92DF92EF92FF920F931F93C5
:10096800CF93DF93CDB7DEB7CA1BDB0BCDBFDEBF9E
:020978000994E0
:10097A002A88398848885F846E847D848C849B8425
:10098A00AA84B984C884DF80EE80FD800C811B8133
:10099A00AA81B981CE0FD11DCDBFDEBFED01089569
:1009AA00E0E0F6E0868381E0808780910B0680FF95
:1009BA00FCCFE0E0F6E02089318993859160938746
:0409CA00C9010895C2
:1009CE00092E0394000C11F4882352F0BB0F40F44F
:1009DE00BF2B11F460FF04C06F5F7F4F8F4F9F4F8F
:0209EE0008956A
:1009F0001F920F920FB60F9211248F9381E0809374
:0E0A00008A008F910F900FBE0F901F901895D7
:100A0E00CF93DF93EC0102C026D02196888181110D
:080A1E00FBCFDF91CF91089599
:100A2600E0E0F8E08DE695E08087918780E48683B4
:020A3600089521
:100A3800E0E0F6E081E0828395E096838083089584
:0E0A480080E28093A00082E08093A1000895D8
:0E0A5600E0E0FAE083E1818381E0808308958F
:0E0A64009091040895FFFCCF8093020808953E
:0E0A720000240A9416161706180609060895A1
:0E0A800000240A9412161306140605060895A3
:0E0A8E00E894BB2766277727CB0197F90895D8
:0C0A9C0097F99F6780E870E060E0089523
:0A0AA8008093380A9093390A0895EC
:0A0AB2008093360A9093370A0895E6
:080ABC000E940D030C94E704F5
:080AC4000E947A030C94E70480
:060ACC009FEF80EC08958D
:020AD20096CAC2
:02000004008278
:090000000000020000C40700002A
:00000001FF
